:100000000C9491010C94B9010C94B9010C94B901B0
:100010000C94B9010C94CF230C94B9010C94A8232F
:100020000C94B9010C94B9010C94B9010C94B90168
:100030000C94B9010C94B9010C94B9010C94B90158
:100040000C9406230C94B9010C9476230C94502341
:100050000C94B9010C94B9010C94B9010C94B90138
:100060000C94B9010C94B9014541374C4A59003AF6
:1000700020004261636B6C696768740049512050CD
:100080006861736500526566206672657100504153
:100090002042696173206D6178005041204269619E
:1000A00073206D696E004351204D65737361676500
:1000B00000435120496E74657276616C0046543875
:1000C000204D6F6465005458204472697665004E77
:1000D0006F697365204761746500564F5800507210
:1000E000616374696365004B65796572205377615C
:1000F00070004B65796572204D6F6465004B6579C2
:1001000065722053706565640053656D69205153B5
:100110004B004357204465636F64657200532D6D37
:1001200065746572004154543200415454004E527B
:1001300000414743005249540056464F204D6F64DA
:10014000650054756E6520526174650042616E648D
:100150000046696C746572204257004D6F646500FB
:10016000566F6C756D6500FFFEFCF9F5EFE9E2D99D
:10017000D0C6BBB0A4988B7F73665A4E43382E25E9
:100180001C150F090502002020202020202020001F
:10019000436865636B205054542F6B65790052653A
:1001A0007365742073657474696E67732E2E0042D4
:1001B00045525F6932630056616463310056616481
:1001C00063300056616463320056617663630056A3
:1001D000332E330056352E3000312E303378002048
:1001E000520008040A050A0408000000000000008C
:1001F000000010101010101010101010141414140F
:10020000141410101515151515150C121E121200C8
:1002100000001C121C121C00000000000000000066
:10022000000064426D2000506F7765722D6F666626
:10023000203733203A2D2900524954200000000075
:1002400000240027002A0000000000250028002BC1
:100250000000000000230026002900040404040418
:100260000404040202020202020303030303030262
:10027000020301020408102040800102040810203B
:100280000102040810204080400000000900030221
:10029000000004050800000000000000000000004D
:1002A0007E20455449414E4D53555257444B474F7C
:1002B0004856462A4C2A504A425843595A512A2AEB
:1002C000353453332A2A2A322A2A2B2A2A2A4A3117
:1002D000363D2F2A2A2A482A372A472A382A3930EF
:1002E0002A2A2A2A2A2A2A2A2A2A2A2A3F5F2A2A24
:1002F0002A2A222A2A2E2A2A2A2A402A2A2A272A4F
:100300002A2D2A2A2A2A2A2A2A2A3B212A292A2A43
:100310002A2A2A2C2A2A2A2A3A2A2A2A2A001A246B
:10032000873511241FBECFEFD8E0DEBFCDBF13E06D
:10033000A0E0B1E0E2E6F9E702C005900D92AA3D27
:10034000B107D9F726E0AAEDB3E001C01D92A53FA1
:10035000B207E1F711E0C0E9D1E004C02197FE0146
:100360000E947B3BCF38D107C9F70E946D240C94C3
:10037000A43C0C94000087FF76C03C983D98000098
:100380000000000000003D9A000000000000000096
:1003900086FF6BC03C983D98000000000000000004
:1003A0003D9A000000000000000085FF60C03C98FE
:1003B0003D9800000000000000003D9A0000000091
:1003C0000000000084FF55C03C983D9800000000EC
:1003D000000000003D9A000000000000000083FFC4
:1003E0004AC03C983D9800000000000000003D9A83
:1003F000000000000000000082FF3FC03C983D98D4
:1004000000000000000000003D9A00000000000015
:10041000000081FF34C03C983D98000000000000BF
:1004200000003D9A000000000000000080FF29C08D
:100430003C983D9800000000000000003D9A00003C
:100440000000000000003C980000000000000000D8
:100450003D9800000000000000003D9A00000000F0
:100460000000000008953C9A89CF3C9A94CF3C9AB2
:100470009FCF3C9AAACF3C9AB5CF3C9AC0CF3C9A2A
:10048000CBCF3C9AD6CFE0912006E7FD16C0F0E036
:10049000E056FD4FE491EA3281F0E093DE0181E025
:1004A00080931F06EFECF1E08181819381E0EE3DC6
:1004B000F807D1F780E28093DE0181E08093200687
:1004C0000895843081F028F48230E9F08330F9F027
:1004D0000895883071F0893091F08530B9F48091B9
:1004E00080008F7D03C0809180008F778093800093
:1004F00008958091B0008F778093B0000895809127
:10050000B0008F7DF9CF84B58F7784BD089584B511
:100510008F7DFBCFCF93DF93282F30E0F901E75792
:10052000FD4F8491F901EE58FD4FD491F901E55A40
:10053000FD4FC491CC23A1F081110E946102EC2FE8
:10054000F0E0EE0FFF1FEF5AFD4FA591B491EC9133
:10055000ED2381E090E009F480E0DF91CF910895F0
:1005600080E090E0FACF1F93CF93DF93282F30E005
:10057000F901E757FD4F8491F901EE58FD4FD491F1
:10058000F901E55AFD4FC491CC23A9F0162F811132
:100590000E946102EC2FF0E0EE0FFF1FE95BFD4FC0
:1005A000A591B4918FB7F894EC91111108C0D09532
:1005B000DE23DC938FBFDF91CF911F910895DE2B57
:1005C000F8CFCF93DF9390E0FC01EE58FD4F2491DC
:1005D000855A9D4FFC0184918823C9F090E0880FD3
:1005E000991FFC01E35CFD4FA591B491FC01E95B0F
:1005F000FD4FC591D49161110DC09FB7F8948C91B6
:10060000209582238C938881282328839FBFDF91A4
:10061000CF910895623051F49FB7F8943C91822FA6
:10062000809583238C93E8812E2BEFCF8FB7F8949E
:10063000EC912E2B2C938FBFEACF883020F08D3099
:1006400008F48DE08E508770806480937C008091E8
:100650007A00806480937A0080917A0086FDFCCFD6
:1006600080917800909179000895880F991F880FE4
:10067000991F05970197F1F708953FB7F894809176
:100680001A0690911B06A0911C06B0911D0626B576
:10069000A89B05C02F3F19F00196A11DB11D3FBFBA
:1006A000BA2FA92F982F8827BC01CD01620F711D89
:1006B000811D911D42E0660F771F881F991F4A9583
:1006C000D1F708958F929F92AF92BF92CF92DF920F
:1006D000EF92FF926B017C010E943D034B015C0194
:1006E000C114D104E104F104B9F00E943D0368197A
:1006F00079098A099B09683E73408105910580F359
:1007000021E0C21AD108E108F10888EE880E83E0E2
:10071000981EA11CB11CE4CFFF90EF90DF90CF900A
:10072000BF90AF909F908F9008952FB7F8946091ED
:1007300016067091170680911806909119062FBF22
:100740000895DC01ED91FC910190F081E02D099478
:10075000AF92BF92CF92DF92EF92FF920F931F93CF
:10076000CF93DF936C017B018B01040F151FEB010D
:100770005E01AE18BF08C017D10759F06991D601C4
:10078000ED91FC910190F081E02DC6010995892B36
:1007900079F7C501DF91CF911F910F91FF90EF90F5
:1007A000DF90CF90BF90AF900895FC01538D448DA2
:1007B000252F30E0842F90E0821B930B541710F00C
:1007C000CF96089501970895FC01918D828D981719
:1007D00061F0A28DAE0FBF2FB11D5D968C91928DF1
:1007E0009F5F9F73928F90E008958FEF9FEF089522
:1007F000FC01918D828D981731F0828DE80FF11DEB
:10080000858D90E008958FEF9FEF0895FC01918D05
:10081000228D892F90E0805C9F4F821B91098F73FE
:100820009927089581E296E00E94060421E0892B31
:1008300009F420E0822F0895FC01A48DA80FB92FA0
:10084000B11DA35ABF4F2C91848D90E001968F73F8
:100850009927848FA689B7892C93A089B1898C9117
:10086000837080648C93938D848D981306C0028866
:10087000F389E02D80818F7D80830895EF92FF9230
:100880000F931F93CF93DF93EC0181E0888F9B8DB3
:100890008C8D98131AC0E889F989808185FF15C06D
:1008A0009FB7F894EE89FF896083E889F989808190
:1008B0008370806480839FBF81E090E0DF91CF915F
:1008C0001F910F91FF90EF900895F62E0B8D10E081
:1008D0000F5F1F4F0F731127E02E8C8D8E110CC0F0
:1008E0000FB607FCFACFE889F989808185FFF5CF3B
:1008F000CE010E941C04F1CFEB8DEC0FFD2FF11DFA
:10090000E35AFF4FF0829FB7F8940B8FEA89FB8977
:1009100080818062CFCFCF93DF93EC01888D8823D5
:10092000B9F0AA89BB89E889F9898C9185FD03C052
:10093000808186FD0DC00FB607FCF7CF8C9185FF37
:10094000F2CF808185FFEDCFCE010E941C04E9CF5C
:10095000DF91CF9108953C9A3D980000000000007F
:1009600000003C9887B18F7C87B93C9A08953D9AE6
:1009700000000000000000003C980895CF93DF9332
:10098000D82FC62F0E94B70480E40E94BB018D2F90
:100990000E94BB018C2F0E94BB01DF91CF910C9470
:1009A000AB04CF93DF93D82FC92F6FEF87E00E945E
:1009B000BE046FEF86E00E94BE046D2F82E00E94AD
:1009C000BE0460E086E00E94BE046C2F83E00E94BB
:1009D000BE0460E087E0DF91CF910C94BE0490915B
:1009E0007E00E1E0F0E0082E01C0EE0F0A94EAF785
:1009F0009E2B90937E0010927A0010927B001092B2
:100A00007C0090917C00892B80937C0080917C00FD
:100A100090E4611190EC892B80937C0061EB77EC82
:100A200082E190E00E943A3B80E0369527952115BF
:100A3000310511F08F5FF9CF90917A008770892B83
:100A400080937A0080917A00806880937A0008957C
:100A5000F8949BB1907F9061892B8BB984E090E0F2
:100A60000E9435035C9880916901882331F05B9A7C
:100A700078948CE390E00C9435035B98F9CF8091E7
:100A8000F10580937C00EAE7F0E080818064808358
:100A900020917800309179002F5F314086E897E00F
:100AA0009093C6058093C5058091C2059091C305BA
:100AB0004091C0055091C105480F591FCA01880FC8
:100AC000991F840F951F820F931F4091BE0550916F
:100AD000BF05840F951F959587953093C305209387
:100AE000C2052091BC053091BD054091BA055091D9
:100AF000BB05420F531F9A01220F331F240F351FCE
:100B0000280F391F4091B8055091B905240F351FA2
:100B10003093B7052093B6059093BD058093BC052F
:100B200008958091F10580937C00EAE7F0E08081F0
:100B300080648083809178009091790024E136E090
:100B40003093C6052093C5052091C0053091C1059D
:100B50003093BF052093BE058F5F91409093C105F0
:100B60008093C00508958091F10580937C00EAE7A9
:100B7000F0E080818064808320917800309179005A
:100B80002F5F314085E896E09093C6058093C505B8
:100B90008091BA059091BB059093B9058093B805F3
:100BA0008091C2059091C3054091C0055091C10547
:100BB000480F591FCA01880F991F840F951F820F74
:100BC000931F4091BE055091BF05840F951F9595C9
:100BD00087959093BB058093BA053093C305209306
:100BE000C20508958091F10580937C00EAE7F0E06A
:100BF000808180648083809178009091790025E1E4
:100C000037E03093C6052093C5052091C00530918B
:100C1000C1053093BF052093BE058F5F914090932F
:100C2000C1058093C00508958091F20580937C00F2
:100C300080917A00806480937A00209178003091CE
:100C400079002F5F31408091B0059091B105820FFE
:100C5000931F97FD0196959587953093B105209345
:100C6000B0052091F605211140C04091AC0550918E
:100C7000AD056091AA057091AB05640F751F9B01CE
:100C8000359527953595279535952795359527954C
:100C90003595279520583F4F2F3F310509F07CF5BA
:100CA00037FD31C07093AB056093AA056091AE0526
:100CB0007091AF05460F571F5093AD054093AC059B
:100CC000209388002FE335E03093C6052093C505B7
:100CD0002091B4053091B5053093B3052093B2054A
:100CE0009093B5058093B40508951092AF051092C6
:100CF000AE0520E870E060E050E040E0D3CF2FEF99
:100D000030E037FFCFCF20E0CDCF8091F205809348
:100D10007C0080917A00806480937A004091780012
:100D2000509179004F5F51408091B0059091B1058D
:100D3000840F951F97FD01969C013595279550933B
:100D4000B1054093B0058091F60581115EC04091D8
:100D5000AC055091AD056091AA057091AB05640F8B
:100D6000751FCB0195958795959587959595879551
:100D7000959587959595879580589F4F8F3F9105BD
:100D800011F00CF04CC097FD4EC07093AB05609312
:100D9000AA056091AE057091AF05460F571F50939D
:100DA000AD054093AC058093880081E995E0909370
:100DB000C6058093C5058091A8059091A9059093DB
:100DC000A7058093A6058091A4059091A505409163
:100DD000B4055091B505480F591FCA01880F991FD6
:100DE000840F951F820F931F4091B2055091B30558
:100DF000840F951F959587959093A9058093A805D5
:100E00003093A5052093A40508951092AF05109284
:100E1000AE0580E870E060E050E040E0B6CF8FEFD4
:100E200090E097FFB2CF80E0B0CF8091F205809341
:100E30007C0080917A00806480937A002091780011
:100E4000309179002F5F31408091B0059091B105CC
:100E5000820F931F97FD0196959587953093B10565
:100E60002093B0052091F605211140C04091AC05BA
:100E70005091AD056091AA057091AB05640F751F87
:100E80009B0135952795359527953595279535956A
:100E900027953595279520583F4F2F3F310509F06D
:100EA0007CF537FD31C07093AB056093AA05609166
:100EB000AE057091AF05460F571F5093AD05409397
:100EC000AC052093880023EB35E03093C6052093D2
:100ED000C5052091B4053091B5053093B305209335
:100EE000B2059093B5058093B40508951092AF05AF
:100EF0001092AE0520E870E060E050E040E0D3CF13
:100F00002FEF30E037FFCFCF20E0CDCF4F925F9271
:100F10006F927F928F929F92AF92BF92CF92DF9209
:100F2000EF92FF920F931F93CF93DF938091F2057F
:100F300080937C0080917A00806480937A00409155
:100F40007800509179004F5F51408091B0059091A9
:100F5000B105840F951F97FD01969C013595279546
:100F60005093B1054093B0058091F6058111DDC223
:100F7000E091AC05F091AD056091AA057091AB05CB
:100F80006E0F7F1FCB0195958795959587959595C4
:100F90008795959587959595879580589F4F8F3F15
:100FA000910511F00CF077C397FDB1C37093AB05B9
:100FB0006093AA054091AE055091AF054E0F5F1F9B
:100FC0005093AD054093AC058093880082EF95E087
:100FD0009093C6058093C5058091A4059091A505C1
:100FE0004091B4055091B505480F591FCA01880FAB
:100FF000991F840F951F820F931F4091B205509146
:10100000B305840F951F959587953093A50520937B
:10101000A4056090A2057090A3052091A8053091C9
:10102000A905260D371D3901660C771C620E731E4B
:10103000680E791E2091A6053091A705620E731ED9
:101040009093A3058093A2056091B6057091B705B2
:101050008091F605811154C28091A0059091A1055F
:1010600020919E0530919F05AC01421B530B9A01C4
:1010700040919C0550919D05D901A41BB50BAD0174
:101080005093AF054093AE0540919B05542F4F5FA1
:1010900040939B05511107C078948091A0059091D1
:1010A000A10540919B0530939D0520939C0590934D
:1010B0009F0580939E058091720102C0759567958A
:1010C0008A95E2F7C0908305D0908405A09097059B
:1010D000B0909805E0908705F0908805A091930561
:1010E000B0919405F701EA1BFB0B00918B05109161
:1010F0008C05C0918F05D091900598012C1B3D0B5C
:1011000080907F0590908005861A970AC6018A19FB
:101110009B09880F991F880F991F880E991E97FEAB
:1011200003C05FE3850E911C082C892C000C881CE1
:101130009908000C881C991CCF01820F931F97FD02
:101140000796959587959595879595958795880E9A
:10115000991ECF01880F991F880F991F8E0F9F1F0F
:10116000821B930B97FF02C081589F4F880F892FD6
:10117000881F990B880D991D37FF02C02F5F3F4FC5
:1011800035952795280F391F80918105909182050B
:101190009093800580937F05D0928205C09281054F
:1011A00080918505909186059093840580938305B1
:1011B000F0928605E09285058091890590918A05D7
:1011C000909388058093870510938A05009389057D
:1011D00080918D0590918E0590938C0580938B0561
:1011E000D0938E05C0938D058091910590919205C5
:1011F0009093900580938F05B0939205A0939105ED
:101200008091950590919605909394058093930510
:10121000B0929605A09295058091990590919A05B6
:10122000909398058093970570939A05609399051C
:101230008091720102C0759467948A95E2F770926A
:10124000D1056092D00570937E0560937D05E09195
:101250006F05F091700580917105909172059093E2
:10126000700580936F05809173059091740590933C
:101270007205809371058091750590917605909324
:10128000740580937305809177059091780590930C
:101290007605809375058091790590917A059093F4
:1012A00078058093770580917B0590917C059093DC
:1012B0007A058093790570927C0560927B05F195A3
:1012C000E195F109E21BF30B90916E05CFEFC90F89
:1012D000C0936E05C0906A05D0906B05E0906C05D8
:1012E000F0906D05911173C0C092E505D092E605AE
:1012F000E092E705F092E80510926A0510926B05FE
:1013000010926C0510926D058091CE01843009F425
:1013100076C08091CE01833009F4C2C180916A0108
:10132000813009F4B4C08091B4018E300CF407C14F
:101330008091B4018D5002C0EE0FFF1F8A95E2F735
:101340008091C60181110DC18091F805811129C1DB
:10135000C0906205D0906305E0906405F09065054B
:10136000CF7309F0B7C1C092D905D092DA05E092E7
:10137000DB05F092DC051092620510926305109275
:10138000640510926505E115B2E0FB0714F0EFEF7C
:10139000F1E0E1152EEFF20714F4E0E0FEEFF09338
:1013A000A105E093A005415040939B05DF91CF91AB
:1013B0001F910F91FF90EF90DF90CF90BF90AF9073
:1013C0009F908F907F906F905F904F900895CF0186
:1013D000F7FD98C1092E000CAA0BBB0B8C0D9D1DAF
:1013E000AE1DBF1D80936A0590936B05A0936C059D
:1013F000B0936D058091CE01843009F08ACF2091A1
:10140000D0053091D10580917D0590917E0537FF03
:1014100003C031952195310997FF03C091958195BE
:101420009109821793070CF474C180917D05909106
:101430007E05E091D005F091D105F7FF03C0F1954D
:10144000E195F109F595E795F595E79597FF03C0C7
:10145000919581959109E80FF91F80916805909108
:1014600069059F01281B390B37FF02C02F5F3F4FD3
:1014700035952795280F391F309369052093680506
:10148000E21BF30B80916A01813009F04CCF80910F
:10149000670190916801811564E0960774F09C01E2
:1014A000232F330F330B25952595DF01A29FF001E4
:1014B000A39FF00DB29FF00D11242F2F2595259598
:1014C0003F2F330F330B37FDE2C161E070E0DB01EA
:1014D000A21BB30B6FEF7FE7681B790BA617B7074B
:1014E00034F48A0F9B1F909368018093670118164C
:1014F00019060CF0C5C12091B40180E190E023C031
:101500001092A1051092A00510929F0510929E05C1
:1015100010929D0510929C051092F60550E040E057
:1015200030E020E090E080E0ABCD1092AF0510926B
:10153000AE0580E870E060E0F0E0E0E037CD2091BB
:10154000B4018DE090E0821B910927FD939502C0C4
:10155000F595E7958A95E2F78091C601882309F40D
:10156000F3CE00914E0510914F052091C601CF0199
:10157000801B910B2150330B61E070E002C0660FBD
:10158000771F2A95E2F70E94263BFB01E00FF11F2F
:10159000F0934F05E0934E058091F805882309F4F8
:1015A000D7CE8091F805E0905A05F0905B05C09089
:1015B0005E05D0905F05843008F0B4C0809160056E
:1015C00090916105F0936105E0936005DF01A81B30
:1015D000B90B9F0122953295307F3227207F322729
:1015E000CF01880F991F880F991F880F991F280F07
:1015F000391F2E0F3F1F8EE190E0A89FF001A99F99
:10160000F00DB89FF00D11242E0F3F1F3595279533
:1016100035952795359527953595279535952795B2
:101620008091F805823009F457C2833009F43EC234
:10163000813009F4FBC1A0915605B0915705809106
:10164000F8050091540510915505823009F4CDC17B
:10165000833009F4A8C1813009F469C1E0915005D3
:10166000F09151051093530500935205F0935505E1
:10167000E0935405F0925905E0925805B0935B054C
:10168000A0935A05D0925D05C0925C0530935F052A
:1016900020935E055DCE8FEF90E097FF87CC37C03B
:1016A0008091D0059091D1058E0F9F1F20916605E6
:1016B00030916705829FF001839FF00D929FF00D9E
:1016C00011248091D0059091D10590936705809366
:1016D000660524CECF01F7FF04C0882799278E1B0B
:1016E0009F0B092E000CAA0BBB0B8C0D9D1DAE1D74
:1016F000BF1D8093620590936305A0936405B0932A
:10170000650541CE882799278E1B9F0B63CE80E00D
:101710004DCC8091D0059091D105E0917D05F0915F
:101720007E058BCE8091F805853009F4F0C108F470
:10173000EEC0863009F4AFC02091580530915905AC
:10174000A3ECBFEF873009F0EFC10E94813B4B0152
:101750005C012EE630E0D7010E94983B95018401A0
:10176000060F171F281F391F37FF04C0015C1F4FCA
:101770002F4F3F4F56E035952795179507955A956A
:10178000D1F70C0D1D1D1093570500935605809140
:10179000F805A0905405B0905505853009F4C9C1ED
:1017A00008F480C0863009F4F9C1873009F0F1C12E
:1017B000C701880F991FB801681B790B80905805E5
:1017C00090905905860E971E97FE03C08FE1880EF4
:1017D000911C959487949594879495948794959467
:1017E0008794959487942091520530915305A2ECEB
:1017F000BFEF0E94813B2B013C0120E730E0D50187
:101800000E94983B460E571E681E791E77FE05C043
:10181000AFE34A0E511C611C711CC301B20126E0EA
:1018200095958795779567952A95D1F7680D791DD8
:101830007093510560935005B0925305A0925205E4
:101840007093550560935405F0925905E092580540
:1018500010935B0500935A05D0925D05C0925C051C
:10186000F0935F05E0935E0577FF02C0695F7F4FED
:10187000FB01F595E795F595E795F595E79568CD25
:1018800081E090E0909368018093670134CE3195B8
:10189000219531091ACE2091580530915905A2ECB5
:1018A000BFEF53CF843009F074C1209152053091BD
:1018B0005305ACECBFEF0E94813B2B013C012FE5AF
:1018C00030E0D5010E94983B460E571E681E791ED7
:1018D00077FE05C0BFE34B0E511C611C711CD6E0A6
:1018E0007594679457944794DA95D1F7C701880F98
:1018F000991F9801281B390BC90120915805309177
:101900005905820F931FBC01640D751D91CF843062
:1019100009F00AC12091580530915905A7ECBFEF95
:101920000E94813B4B015C0122E730E014CF8091A3
:10193000520590915305F701EE0FFF1FEA0FFB1FB1
:101940006091580570915905E60FF71FF595E795D9
:101950005C01AA0CBB1CAA0CBB1CAA0CBB1CBC01C6
:10196000660F771F6A0D7B1D680F791F5801AA0C3F
:10197000BB1CC80182959295907F9827807F9827FD
:10198000A80EB91EA60EB71EB594A794B594A79439
:10199000B594A794B594A794EA19FB09F09351055F
:1019A000E09350055FCEF701EE0FFF1FEA0FFB1F1C
:1019B0008091580590915905E80FF91FF595E79525
:1019C000F595E7958091520590915305880F991FE1
:1019D000880F991F959587959595879595958795E6
:1019E00095958795E81BF90BD9CFF701EE0FFF1FEF
:1019F000EA0FFB1F8091580590915905E80FF91FD8
:101A0000F595E795F595E795A0905205B0905305AB
:101A1000AA0CBB1CAA0CBB1CAA0CBB1CC801880FBF
:101A2000991F880F991FA80EB91EAECFE0915805D7
:101A3000F0915905D601AA0FBB1FA20FB31F8091C9
:101A40005C0590915D05A80FB91FB595A795B701E5
:101A5000660F771F660F771FC701880F991F880FC2
:101A6000991F880F991F860F971F8E0D9F1DBF010D
:101A7000660F771F660F771F660F771F8F01000FA6
:101A8000111F600F711F6E0F7F1F860F971F959597
:101A90008795959587959595879595958795A81B95
:101AA000B90BB0935705A0935605C9CDD601AA0F1F
:101AB000BB1FA20FB31F80915C0590915D05A80F1D
:101AC000B91FB595A7958091580590915905880F34
:101AD000991F880F991FDBCFD601AA0FBB1FA20F3A
:101AE000B31F80915C0590915D05A80FB91FB59556
:101AF000A7958091580590915905880F991F880FD7
:101B0000991F880F991FB701660F771FBECF2091CD
:101B1000580530915905A4ECBFEF0E94813B4B0161
:101B20005C0121E730E017CE009156051091570572
:101B30002ECEC701880F991FB801681B790B8090C2
:101B4000580590905905860E971E97FE03C033E006
:101B5000830E911C959487949594879420915205B7
:101B600030915305A5ECBFEF0E94813B2B013C0156
:101B70002AE630E0D5010E94983B460E571E681EAB
:101B8000791E77FE4ACE5FE3450E511C611C711C25
:101B900044CE60915005709151054ECEC701880F1B
:101BA000991FB801681B790B8090580590905905D2
:101BB000860E971E97FE03C06FE0860E911C9594CB
:101BC000879495948794959487949594879420917D
:101BD000520530915305A2ECBFEF0E94813B2B01CF
:101BE0003C0121E730E0D5010E94983B460E571E8C
:101BF000681E791E77FE11CE7FE3470E511C611CD3
:101C0000711C0BCECF92DF92EF92FF926B017C01A1
:101C10000E949503C60ED71EE81EF91E0E9495036A
:101C20006C157D058E059F05C0F4A89581E10E9485
:101C30008A02892B29F48CE00E948A02892B39F4CC
:101C400081E10E948A02892B71F0A895F9CF8DE07D
:101C50000E948A02892B11F7F3CF80E0FF90EF906A
:101C6000DF90CF90089581E0F9CFCF93DF9300D03C
:101C700000D000D0CDB7DEB780917A008064809329
:101C80007A0080913C0480938A0080917800909142
:101C9000790020916B0192502450330B02C0880FC1
:101CA000991F2A95E2F780969E838D832FEF30E06F
:101CB0003C832B83FE018F3F9105B4F033961A824B
:101CC0001982808191811816190614F0FE0131964F
:101CD000808180933C0426960FB6F894DEBF0FBE39
:101CE000CDBFDF91CF9108953596E9CFCF92DF92A6
:101CF000EF92FF92CF93DF9390918A0080913C0501
:101D0000981798F4CFE1D0E02197FE01E959FE4FF2
:101D1000E491F0E0E35CFB4F808180938A008CE3E8
:101D200090E00E943503209779F780913C058093DD
:101D30008A00E091B30184E0E89FF0011124E35BA5
:101D4000FD4F2081318142815381A3E3B0E00E94A5
:101D50009F3B20EC32E140E050E00E945C3B690197
:101D6000A0916501B091660140913A0450913B0405
:101D700096010E94813B672F782F892F992787FD35
:101D80009A95640F751F70933B0460933A04A09179
:101D90003A04B0913B0440916501509166010E9464
:101DA000813B672F782F892F992787FD9A95461BAE
:101DB000570B509366014093650180913A049091CE
:101DC0003B044091B40128E130E0241B310947FD78
:101DD000339502C0959587952A95E2F780588093B0
:101DE0008800DF91CF91FF90EF90DF90CF90089522
:101DF00008950F931F93CF93DF93E8E1F4E026E378
:101E000034E042815381419351932E173F07C9F724
:101E10002091C905E0911604F0911704222309F4DA
:101E200050C147E04E9F90014F9F300D1124280F65
:101E3000391F37FF02C0295F3F4FD3E03595279503
:101E4000DA95E1F73093170420931604821B930B65
:101E500097FD019695958795909337048093360466
:101E60008091260490912704FC01EE0FFF1FA091A2
:101E70002004B091210440912C0450912D04A41B06
:101E8000B50B409124045091250460912804709171
:101E90002904461B570B20911804309119046091B6
:101EA000340470913504261B370B220F331F6091C9
:101EB0001C0470911D04C0913004D09131046C1B3E
:101EC0007D0B13E0660F771F1A95E1F7260F371F7A
:101ED000BD0104E0660F771F0A95E1F7ED01CC0F15
:101EE000DD1FCC0FDD1F6C0F7D1F6A0F7B1F260FC0
:101EF000371FBA0104E0660F771F0A95E1F7260F36
:101F0000371F66E0359527956A95E1F7240F351F51
:101F1000BC0197FF03C0719561957109A90137FF55
:101F200002C04F5F5F4F5595479557FF03C05195CE
:101F300041955109461757070CF0ECC0C90137FD10
:101F40000796A3E095958795AA95E1F797FF03C0BB
:101F5000919581959109860F971F40916C014817C3
:101F6000190608F0E9C040911206442309F4E2C0C2
:101F70004EEF4093120640916B0102C0880F991FEB
:101F80004A95E2F78F3F910509F020F440916B01EB
:101F9000483011F48FEF90E040911206442309F489
:101FA000D4C0835C9B4FDC018C9180933C04E9019D
:101FB00037FF04C0CC27DD27C21BD30B8F01F7FFEF
:101FC00004C0002711270E1B1F0B0C171D070CF058
:101FD000BEC045EE4003C001419F900D1124BE01DB
:101FE0000E94263B6A597F4F609FC001619F900D00
:101FF000709F900D1124BE010E94263B86E990E05F
:10200000AC01461B570BBA01F7FF06C08CE291E00A
:10201000DC01A61BB70BBD0137FF03C071956195AD
:10202000710980911204909113049B01281B390BB4
:10203000709313046093120437FF02C0285A3D4F77
:102040008091F805882309F49EC08091F8058330BB
:1020500009F09CC086E990E08217930714F58091FF
:10206000F805882309F495C08091F805833009F0BC
:1020700093C086E990E0281B390B621B730B7093A9
:102080001304609312048091F80528E532E0882358
:1020900041F08091F80526E930E0833011F02CE220
:1020A00031E08091CE01813009F079C0C90123E08F
:1020B000880F991F2A95E1F7DF91CF911F910F911A
:1020C00008959C01220F331F409114045091150470
:1020D000240F351F440F551F841B950BC3E0D0E020
:1020E000BE010E94263B7093150460931404CF0137
:1020F000880F991F820F931FBE010E94263B709389
:10210000170460931604261B370B30933704209373
:102110003604A6CECF01F7FD079663E09595879527
:102120006A95E1F797FF03C0919581959109840F16
:10213000951F13CF4FEF1DCF40911206442309F492
:102140001ACF40911206415014CF80E02ECF70E09C
:1021500060E0309709F460CF45EEBE014603C00150
:10216000479F900D1124B8010E94263B6A597F4F6A
:102170006C9FC0016D9F900D7C9F900D1124B80144
:102180000E94263B41CF88E592E066CF8CE291E049
:1021900063CF88E592E06FCF8CE291E06CCF48EF9F
:1021A0004203C001439F900D112486CF089590E013
:1021B00080E008950F931F938091140681111BC036
:1021C0008091C8058823B9F081E296E00E948B04D3
:1021D0000E94950300910E0410910F0420911004A9
:1021E00030911104601771078207930710F4A895C6
:1021F000EFCF429A3A9A8091C100877E8093C100C6
:10220000F8941F910F910895FF920F931F93CF930E
:10221000DF93C82FF62E072F142F0E94B70480ECEF
:102220000E94BB018C2F0E94BB01CF2DD02F1150DB
:1022300020F089910E94BB01FACFDF91CF911F91CD
:102240000F91FF900C94AB04CF93DF931F92CDB707
:10225000DEB7698341E0BE016F5F7F4F0E940411CA
:102260000F90DF91CF9108952F923F924F925F92FE
:102270006F927F928F929F92AF92BF92CF92DF9296
:10228000EF92FF920F931F93CF93DF93CDB7DEB7FB
:1022900064970FB6F894DEBF0FBECDBF898B48019F
:1022A0005901FB8AEA8ACC8ACB01BA01A9019801BB
:1022B0000E943A3B290119012430310509F497C0E5
:1022C0009B01AC0160E070E080E090E000E10E94E2
:1022D000523CF9017501640100E010E09801898623
:1022E000DA86AB86FC860D871E872F87388B5401D4
:1022F0006701E12CF12C00E010E09F010E94E53B1A
:10230000A32FF42FE52F422F5A2F6F2F7E2FC12C92
:10231000D12C7601E394CB01BA0127E0660F771F39
:10232000881F991F2A95D1F7A70196010E943A3B71
:1023300042019694982C882497948794B12CA12CD0
:1023400002E0901AA108B108280D391D4A1D5B1D35
:10235000BC89A0E1BA9FF0011124842E8E2AE4E00A
:102360002E16310409F04CC0ECE01982CA828E2A84
:102370008B823C832D8394E0CC0CDD1CEE1CFF1C77
:102380009A95D1F7E82AEE827F83688748E0BE01FC
:102390006F5F7F4F8989880F880F880F865D0E9445
:1023A0000411612F6295660F660F607CC988C7FEB5
:1023B00029C060688C2D885E0E94241164960FB637
:1023C000F894DEBF0FBECDBFDF91CF911F910F916B
:1023D000FF90EF90DF90CF90BF90AF909F908F9045
:1023E0007F906F905F904F903F902F90089540E0C6
:1023F00050E0BA0111E0C12CD12C7601C3948BCFEF
:10240000E0E0B3CF6F608989805F0E942411EA8881
:10241000FB88E49CA001E59C500DF49C500D112418
:1024200021E01227212F30E0429FC001439F900DF1
:10243000529F900D11246AE570E00E94123B898939
:102440008B55BACF2F923F924F925F926F927F92AD
:102450008F929F92AF92BF92CF92DF92EF92FF92B4
:102460000F931F93CF93DF93CDB7DEB760970FB66F
:10247000F894DEBF0FBECDBF4B015C0149875A8384
:1024800029833B8321E0821623EA920621EEA206ED
:1024900021E1B206DCF023E030E0CA01B9010E947C
:1024A000123B69877A8389819B81B9010E94123B23
:1024B00069837B83C501B40123E030E040E050E054
:1024C0000E945C3B49015A01188611C060E28616E1
:1024D00061EA960667E0A606B104B4F747E0880C07
:1024E000991CAA1CBB1C4A95D1F777E0788780E835
:1024F000881683EC980689ECA80681E0B806CCF42F
:102500006091EF067091F0068091F1069091F206CD
:10251000A0EE8A16A7E69A06A5E3AA06B1040CF473
:1025200045C124E0660F771F881F991F2A95D1F7B0
:1025300049C16091EF067091F0068091F10690918B
:10254000F20635E0660F771F881F991F3A95D1F77D
:10255000A50194010E943A3B1901B1E08B16BBE33F
:102560009B06B8E5AB06B8E0BB060CF031C120FE17
:1025700003C02FEF221A320AD101A5019401285875
:102580003341410951090E949F3B6B017C0120911D
:10259000EF063091F0064091F1065091F20640901E
:1025A000EF065090F0066090F1067090F2064C82B3
:1025B0005D826E827F820E943A3B29013A0191013D
:1025C000A0E1B7E20E94893B6C0D7D1D8E1D9F1D11
:1025D0002C813D814E815F810E943A3B4216530619
:1025E0006406750619F022E0220E311CD101A50106
:1025F00094010E949F3B2B013C010091EF0610913A
:10260000F0062091F1063091F206C12CF12CE12C5C
:10261000BC01A2018EEF0E943411C884E984FA80C3
:1026200095018401B301A20180E00E943411C884A5
:10263000E980FB809501B301A20181E00E94341181
:10264000C884F12CE12C9501B301A20182E00E9423
:1026500034116985062E000C770B8981681B71097E
:1026600087FD73957D836C83C301B201A50194013D
:102670000E943A3BAC81BD81A29FC001A39F900DF7
:10268000B29F900D11246AE570E00E94263B809174
:10269000F3069091F4068617970741F07093F406BD
:1026A0006093F30660EA81EB0E9424116CEF83E0F3
:1026B0000E9424118092DC069092DD06A092DE0634
:1026C000B092DF062092E0062091EF063091F006EE
:1026D0004091F1065091F206C301B2010E943A3BCB
:1026E0002450310941095E4F3695322F2227379504
:1026F00027953093E2062093E1062091EF06309172
:10270000F0064091F1065091F206C090EF06D0908D
:10271000F006E090F106F090F206C301B2010E94CB
:102720003A3B2B013C01812C912C540169875A863C
:102730008B877C868D869E86AF86B88A9B01AC018E
:1027400060E070E080E090E007E10E94523C2A8364
:10275000398356016701E12CF12C00E010E02A8159
:1027600039810E94E53BC901DA018093E306909329
:10277000E406A093E506B093E60660960FB6F894DB
:10278000DEBF0FBECDBFDF91CF911F910F91FF90A4
:10279000EF90DF90CF90BF90AF909F908F907F9001
:1027A0006F905F904F903F902F9008952091EF068B
:1027B0003091F0064091F1065091F206A7E0B0E0AA
:1027C0000E949F3BA50194010E943A3B1901CFCE84
:1027D00094E0292E312CCBCECF936FEF83E00E9473
:1027E000241160E188E10E94241160E089E10E94E7
:1027F0002411C0E160E88C2F0E942411CF5FC83102
:10280000C9F760E08BEB0E94241160E085E90E942B
:10281000241162ED87EBCF910C9424113D980000B8
:1028200000000000000021E63AEE359903C0215077
:102830003109D9F796B190713D9A0000000000006F
:102840000000911101C080E0089580916901882302
:1028500081F05B9A8091C10088618093C100809172
:102860001406811104C08091C805811142987894A2
:1028700008955B98EFCFCF93C82F0E94DA108BB1E9
:10288000807F80618C2B8BB984E090E00E943503BF
:102890005C980E9425148CE390E0CF910C94350352
:1028A000CF93C82F82958F700E943B148C2F8F700E
:1028B000CF910C943B148CE00C9450140F931F9305
:1028C000CF93DF9340910D04C0916401C41BDD0BD5
:1028D000EDE3F4E030E020E00FEF10E0C901B801D3
:1028E0000E94123B640F61932C0F3D1F85E0ED3376
:1028F000F807A1F7DF91CF911F910F910895809173
:10290000C8018F5B80680E9450148EE00C945014B4
:102910008F929F92AF92BF92CF92DF92EF92FF92EF
:10292000F090D20580914D05F81609F484C080918D
:102930000D06811115C00E9428058CE00E94280513
:102940008CE00E9428058FE00E94280562E5F110C6
:1029500001C060E287ED96E00E94A1030E947F140F
:1029600080903D0590903E05A0903F05B0904005B9
:102970008091D205882309F494C00E949503609346
:10298000490570934A0580934B0590934C050E942E
:102990009503C0904505D0904605E0904705F0901E
:1029A00048059B01AC012C193D094E095F096901DD
:1029B0007A01C0924105D0924205E0924305F0921F
:1029C000440580912006823030F1D501C401880F82
:1029D000991FAA1FBB1F8C159D05AE05BF05D8F416
:1029E0000E94430260EB74E080E090E0A501940156
:1029F0000E943A3BCA01B901A2E0660F771F881F07
:102A0000991FAA95D1F723E030E040E050E00E9402
:102A10003A3B20937101A5E0B0E0A50194010E942A
:102A20009F3BC616D706E806F90628F081E080939A
:102A300020060E9443020E949503C0904505D09055
:102A40004605E0904705F09048059B01AC012C1924
:102A50003D094E095F0969017A0120913D053091D8
:102A60003E0540913F0550914005A6E0B0E00E9430
:102A70009F3B6C157D058E059F0530F480912006E7
:102A8000823010F00E9443028091D20580934D0560
:102A9000FF90EF90DF90CF90BF90AF909F908F907E
:102AA00008950E94950360934505709346058093B1
:102AB0004705909348050E949503C0904905D09022
:102AC0004A05E0904B05F0904C059B01AC012C1998
:102AD0003D094E095F0969017A01D501C401880FDA
:102AE000991FAA1FBB1FC816D906EA06FB0620F0CD
:102AF00089288A288B28A1F4BC01CD016C0D7D1D8D
:102B00008E1D9F1D23E030E040E050E00E943A3BE4
:102B100020933D0530933E0540933F05509340057B
:102B200020913D0530913E0540913F055091400573
:102B3000A5E0B0E00E949F3B6C157D058E059F05CA
:102B400080F4C701B60123E030E040E050E00E948D
:102B50003A3B20933D0530933E0540933F0550930B
:102B6000400540913D0550913E0560913F057091B3
:102B70004005DB01CA01B695A795979587958C15F9
:102B80009D05AE05BF0508F056CF8091200690E068
:102B9000880F991F440F551F661F771F21E04C15A2
:102BA0005D056E057F0508F020E0822B80932006EE
:102BB00042CF9091C801980F9093C8019091C8019D
:102BC000911103C098E09093C8019091C801993089
:102BD00018F091E09093C8019091C801943021F0D1
:102BE0009091C801923029F49091C801890F809387
:102BF000C8010C947F14CF93DF93EC010E94B704BB
:102C000080EC0E94BB018EE10E94BB018F850E9477
:102C1000BB0188890E94BB0189890E94BB018A8906
:102C20000E94BB01DF91CF910C94AB042F923F9295
:102C30004F925F926F927F928F929F92AF92BF92CC
:102C4000CF92DF92EF92FF920F931F93CF93DF9378
:102C500000D000D000D0CDB7DEB79E838D83DC01DD
:102C600017968D919D910D90BC91A02D89839A838B
:102C7000AB83BC83ED81FE812481C388D488E58841
:102C8000F68830E0DB010E94983B4B015C01BB0CF5
:102C90008808982C54019B01AC01682D782D882D53
:102CA000982D07E10E94523C56016701E12CF12C5E
:102CB00000E010E00E94B43B49015A0149805A806B
:102CC0006B807C80480C591C6A1C7B1CAD81BE81CA
:102CD00015968D919C911697860D971D1F968C9336
:102CE0001F9780E150968C935097852D9927519688
:102CF0008C93519752964C9226960FB6F894DEBF5D
:102D00000FBECDBFDF91CF911F910F91FF90EF903C
:102D1000DF90CF90BF90AF909F908F907F906F90FB
:102D20005F904F903F902F900895EAE7F0E0808108
:102D30008064808380913C0580938A008EEB96E0CE
:102D40000E94FB15609178007091790080916B0171
:102D5000725002C0660F771F8A95E2F78EEB96E0FD
:102D60000C941616CF93DF93C0917800D091790020
:102D700080917A00806480937A008EEB96E00E94C6
:102D8000FB1580913C0480938A008091780090919B
:102D90007900C80FD91F80917A00806480937A00EF
:102DA00080913804909139040E94F90EBC01809101
:102DB000780090917900C80FD91F90917A009064A3
:102DC00090937A008EEB96E00E9416162091780080
:102DD0003091790090917A00906490937A00CE01BE
:102DE000820F931F97FD03969595879595958795E7
:102DF000805E91409093390480933804809112064C
:102E0000813031F410928A006FEF83E00E94241128
:102E1000809112068F3F31F46BEF83E0DF91CF9109
:102E20000C942411DF91CF910895CF93DF93C82F95
:102E3000809170008D7F8093700084E190E00E940B
:102E40003503F894C0931206CC2309F46AC080912C
:102E50000001909101019093E6038093E5031092A5
:102E60000E0610920F061092100610921106809115
:102E7000CE01823009F44CC008F443C0833009F419
:102E80004DC0843009F447C07894CC2309F493C032
:102E90008091F30580937C001092C7058091CD014D
:102EA000882361F08091CE01823041F481E0C1112C
:102EB00001C080E08093D2050E948814CC2309F4DD
:102EC000CAC08091E80360E0882309F478C088E0F4
:102ED0000E94B3028FEC0E94501460E587ED96E0EB
:102EE0000E94A1036FEF83E00E94241180E480938D
:102EF000B30080917000826080937000DF91CF9169
:102F0000089582EB96E19093C6058093C505BCCFEA
:102F100086E79EE0F8CF85E39EE0F5CF85E996E170
:102F2000F2CF8091CE01823091F580910E06909182
:102F30000F06A0911006B0911106892B8A2B8B2BBE
:102F400031F50E949503AB01BC018091030690917D
:102F50000406A0910506B091060623E0880F991F8C
:102F6000AA1FBB1F2A95D1F7840F951FA61FB71F55
:102F700080930E0690930F06A0931006B09311064F
:102F80008091E903811114C086E897E0BCCF80915D
:102F9000E5039091E6039093010180930001109264
:102FA0000E0610920F061092100610921106ECCF2A
:102FB00088EF9EE0A8CF81E08093F6056DCF88E092
:102FC0000E94B3028FEC0E94501464E587ED96E0F6
:102FD0000E94A1038091CE018230A1F58091ED0580
:102FE0009091EE05A091EF05B091F0056627772747
:102FF000681B790B8CED96E00E9416168CED96E01E
:103000000E94FB156BEF83E00E94241180E88093FF
:1030100088008091E403811109C08091CE01823043
:1030200029F0809180008F778093800080918000CC
:103030008062809380008091C805882309F456CF70
:103040003A9854CF8091F9059091FA05892BD1F2E5
:1030500070E060E0CFCF80918A008823A1F0C7E6BE
:10306000D1E0FE018491E82FF0E0E35CFB4F80812A
:1030700080938A008CE390E00E9435032196F1E072
:10308000C638DF0771F780918000806880938000E8
:10309000809180008F7D8093800060E08AE00E94B4
:1030A000B30210928A006CEF83E00E942411809199
:1030B0000E0690910F06A0911006B0911106892B73
:1030C0008A2B8B2B21F08091E903811109C080911B
:1030D000F40561E0823009F460E088E00E94B30208
:1030E0006091F9057091FA058CED96E00E94161634
:1030F0008CED96E00E94FB158FEC0E94501480919D
:10310000140662E5811166E587ED96E00E94A10351
:1031100080911406811104C08091C80581113A9AEA
:1031200084E0E5CE8DE00E948A02892B51F48091E3
:10313000FE0591E0811192E080910B06892B80932E
:103140000B068CE00E948A02892B51F48091FE05C7
:1031500092E0811191E080910B06892B80930B0600
:103160000895CF93C62F0E94DA108BB1807F8061C3
:103170009C2F92959F70892B8BB96BB1607F60619A
:10318000CF706C2B3C9800005C986BB93C9A3C98D3
:1031900000005C983C9A0E9425148CE390E00E9409
:1031A000350381E090E0CF9108950F931F93CF9363
:1031B000DF938C01D0E0C0E0F801EC0FFD1F6491BB
:1031C000662341F087ED96E00E94B118892B11F03B
:1031D0002196F2CFCE01DF91CF911F910F910895EB
:1031E00087E891E00C94D5180F931F93CF93C62FC7
:1031F0008A01813009F042C080E80E9450146C2F8F
:1032000062956F70CF706A3031F461E387ED96E0BC
:103210000E94A10360E0605D87ED96E00E94A1033B
:103220006EE287ED96E00E94A103CA3030F0CA50EA
:1032300061E387ED96E00E94A10360E36C0F87EDE8
:1032400096E00E94A10360E287ED96E00E94A10350
:10325000C8010E94D5180E94F0180E94F01880EC56
:103260000E94501480910D068230A8F06EE387ED25
:1032700096E0CF911F910F910C94A10380EC0E94D6
:103280005014C8010E94D5188FE690E0CF911F918D
:103290000F910C94D518CF911F910F91089580E84C
:1032A0000E94501488E690E00E94D51861E087EDF6
:1032B00096E00E94A1030E94F0180C94F0180F935E
:1032C0001F93CF93DF9390E080E00E94D104D0E081
:1032D000C0E001E010E0C8010C2E02C0880F991F69
:1032E0000A94E2F78095909581600E94D1046EE186
:1032F00070E080E090E00E94620390E080E00E9435
:10330000D1042196C031D10531F7DF91CF911F91C2
:103310000F910895FB0101900020E9F73197AF016B
:10332000461B570BDC01ED91FC910280F381E02DEF
:1033300009948F929F92AF92BF92EF92FF920F9358
:103340001F93CF93DF93CDB7DEB7A1970FB6F89455
:10335000DEBF0FBECDBF7C01FA01CB0119A2223026
:1033600008F42AE08E010F5D1F4F822E912CB12CA4
:10337000A12CBF01A50194010E943A3BF901CA01A9
:103380006A300CF5605DD8016E938D01232B242BE0
:10339000252B79F790E080E0109721F0BD01C7015F
:1033A0000E948A19A1960FB6F894DEBF0FBECDBF5A
:1033B000DF91CF911F910F91FF90EF90BF90AF9051
:1033C0009F908F900895695CDECFCF92DF92EF924D
:1033D000FF920F931F93CF93DF9377FF1DC06A0176
:1033E0007B01EC016DE20E94A1038C01442755276B
:1033F000BA014C195D096E097F092AE0CE010E94CD
:103400009919800F911FDF91CF911F910F91FF901C
:10341000EF90DF90CF9008952AE0DF91CF911F9138
:103420000F91FF90EF90DF90CF900C949919AB0122
:10343000770F660B770B0C94E519EF92FF920F93C1
:103440001F93CF937C018B01C42F80EC0E945014FA
:1034500061E287ED96E00E94A10361E287ED96E0CC
:103460000E94A103C7010E94D518CC2379F06DE317
:1034700087ED96E00E94A103B80187ED96E00E94D7
:10348000171A6C2F87ED96E00E94A1030E94F01896
:103490006CED75E080E090E00E946203A895CF910A
:1034A0001F910F91FF90EF9008956115710511F034
:1034B0000C948A1990E080E00895EF92FF920F93A8
:1034C0001F93CF93DF93CDB7DEB7A0970FB6F894D5
:1034D000DEBF0FBECDBF6091B6017091B701809184
:1034E000B8019091B90120E03AEC4AE95BE30E940F
:1034F0003A3B122F032F20E432E44FE050E00E94C9
:103500003A3BF22EE32E28EE33E040E050E00E94FA
:103510003A3B7F936F933F932F93EF92FF920F93DA
:103520001F9387E792E09F938F938E010F5F1F4F4A
:103530001F930F930E94813CB80181E296E00E94A4
:10354000551A6AE872E0C8010E946B3CB80181E23A
:1035500096E00E94551A62E972E0C8010E946B3C35
:10356000B80181E296E00E94551A6091CE0170E0A8
:103570006F5F7F4F81E296E00E94171A67E972E061
:10358000C8010E946B3CB80181E296E00E94551A86
:103590000FB6F894DEBF0FBECDBFA0960FB6F8945D
:1035A000DEBF0FBECDBFDF91CF911F910F91FF9076
:1035B000EF9008950C9473380C946138CF92DF9299
:1035C000EF92FF920F931F93CF93DF93CDB7DEB7A8
:1035D000A0970FB6F894DEBF0FBECDBF81E296E094
:1035E0000E940604892B09F494C00E949503665F2B
:1035F0007F4F8F4F9F4F60930E0470930F04809303
:1036000010049093110481E296E00E94E403E0919B
:103610000C0491E09E0F90930C04F0E0E451FC4FF9
:1036200080838B3309F0BFC1E0910C04F0E0E451DA
:10363000FC4F108210920C048091C805811105C0C6
:1036400081E08093C8051092CC018091EC03863410
:1036500009F08BC08091ED03813409F064C1809141
:10366000EE038B3309F064C08091C805882309F408
:103670004AC06091B6017091B7018091B8019091F4
:10368000B90120E03AEC4AE95BE30E943A3B122F91
:10369000032F20E432E44FE050E00E943A3B6B01FC
:1036A0007C013F932F930F931F9380EA92E09F93A7
:1036B0008F938E010F5F1F4F1F930F930E94813CCA
:1036C000B80181E296E00E94551AC701B60128EEC2
:1036D00033E040E050E00E943A3B7F936F933F938A
:1036E0002F938BEA92E09F938F931F930F930E94E7
:1036F000813CB80181E296E00E94551A0FB6F89419
:10370000DEBF0FBECDBF6AE070E080E090E00E94B7
:103710006203A0960FB6F894DEBF0FBECDBFDF9157
:10372000CF911F910F91FF90EF90DF90CF90089570
:103730008091F9038B3399F54BE050E06EEE73E026
:10374000CE0101960E94723C1C86CE0101960E9419
:103750008E356093B6017093B7018093B801909352
:10376000B90181E08093C701CECF8934D9F480912B
:10377000ED03863461F48091EE038B3381F4809104
:10378000C805882309F4BFCF0E945D1ABCCF8434DA
:1037900031F48091EE0365EB72E08B33F9F061EF69
:1037A00072E01CC0803569F48091ED038335B9F770
:1037B0008091EE036CEB72E08B3381F0813379F70B
:1037C000A2CF813499F48091ED03893409F079C056
:1037D0008091EE038B3339F461EC72E081E296E084
:1037E0000E94551A90CF8033D1F6F6CF8D34C1F5B3
:1037F0008091ED03843499F68091EE038B33A9F424
:1038000066EC72E081E296E00E94551A6091CE016A
:1038100070E06F5F7F4F81E296E00E94171A6BE3C2
:1038200081E296E00E94A1036ECF9091EF039B335B
:1038300009F0B5CF81538093CE018091CE01909154
:10384000F705092F017010E0F801EE53FE4F808359
:1038500081E08093C7011092F4061092F30653CFD3
:103860008235C1F48091ED03883509F044C0809120
:10387000EE038B3309F093CF80E00E94151710926E
:103880000E0610920F06109210061092110669ECA7
:1038900072E0A4CF843501F58091ED03883509F0FD
:1038A0007ECF8091EE038B3321F481E00E941517C7
:1038B0002ACF8033D1F38133C1F3823309F06FCF44
:1038C000F4CF873409F06BCF8091EE036EEC72E099
:1038D000803309F064CF82CF8835D9F58091ED032C
:1038E000843509F05CCF8091EE0363ED72E08133A3
:1038F00009F055CF73CF843541F48091EE0368ED24
:1039000072E0813309F04BCF69CF8334B9F48091F1
:10391000EE038B3309F043CF1092FA051092F905AC
:103920006DED72E05BCF8C3409F039CF8091EE03FE
:1039300061EE72E0803309F032CF50CF833509F069
:103940002ECF8091EE0366EE72E08B3309F027CF25
:1039500045CF863509F023CF8091ED03883509F0F6
:103960001ECF8091EE038B3309F419CF282F082E38
:10397000000C330B3F938F938BEE92E09F938F93CA
:103980008E010F5F1F4F1F930F930E94813CB80160
:1039900081E296E00E94551A0F900F900F900F90C1
:1039A0000F900F90B0CE80910C04803208F4B1CE0D
:1039B00064EF72E081E296E00E94551A10920C04C6
:1039C000A8CE0E94120481110C94DE1A0895CF93A0
:1039D000DF93282FCB016091EA037091EB03C42F92
:1039E000D0E0233079F0243089F04091EA035091FF
:1039F000EB03C40FD51FD093EB03C093EA03DF9111
:103A0000CF910895AE010E945138EFCFAE010E94D0
:103A10006938EBCF0F931F93CF93DF93EB01823085
:103A200008F058C0088119812A813B8190911E06B7
:103A3000492F990F550B660B770B400F511F621FD3
:103A4000731F77FF1FC0188219821A821B82182FDA
:103A500010921E060E945B1450E040E060E0812F4F
:103A60000E94F418488159816A817B8187ED96E034
:103A70000E94E5190E94F018DF91CF911F910F91DC
:103A80000C94F018088119812A813B8190911E06BF
:103A9000492F990F550B660B770B400F511F621F73
:103AA000731F14161506160617066CF20881198185
:103AB0002A813B8190911E06492F990F550B660B69
:103AC000770B400F511F621F731F488359836A830E
:103AD0007B83BDCF44E0DF91CF911F910F910C9478
:103AE000E71C4F925F926F927F928F929F92AF925C
:103AF000BF92CF92DF92EF92FF920F931F93CF93DB
:103B0000DF93CDB7DEB7FB01823008F067C090814C
:103B100040901E06042C000C550866087708490ED4
:103B2000511C611C711C4C145D046E047F047CF5F7
:103B3000C0826901F42E5F01E82E10921E060E94D9
:103B40005B14A6016F2D8E2D0E94F418F50101154E
:103B50001105B1F5408150E070E060E02AE087EDAA
:103B600096E00E9499190E94F018DF91CF911F9161
:103B70000F91FF90EF90DF90CF90BF90AF909F900C
:103B80008F907F906F905F904F900C94F018908181
:103B9000C0901E060C2C000CDD08EE08FF08C90EB4
:103BA000D11CE11CF11C8C149D04AE04BF0414F460
:103BB0008082BFCF508190911E06950F9083B9CF20
:103BC000808190E0880F991F080F191FF80160810C
:103BD000718187ED96E00E94551AC5CF41E0DF91D3
:103BE000CF911F910F91FF90EF90DF90CF90BF90FA
:103BF000AF909F908F907F906F905F904F900C94BC
:103C0000E71C5F926F927F928F929F92AF92BF92CA
:103C1000CF92DF92EF92FF920F931F93CF93DF9398
:103C200000D000D000D0CDB7DEB7782E662EBDEF25
:103C3000BB2EB80E00E511E0EE24E394F12C9CE2DB
:103C4000C92ED12C21E02B1570F01093EB030093BB
:103C5000EA03AA24A394A61430F46A2D85E00E94F6
:103C6000011EA394F8CF8FEF68121BC011E0612FE3
:103C7000872D0E94011E1F5F1233C9F7812C912CE2
:103C80005401C12CD12C760110E000E030E020E09E
:103C900040E06FEC75E0872D0E94711D82E3682E75
:103CA000AFC092E3961508F48BC4E62DF0E0E55A18
:103CB000F14E0C947B3BDB228E1EEE1E171F271F3E
:103CC000371F471F561FBD1FCC1FDC1FEC1FFC1FDB
:103CD000E0220C20E022E0221B202A2084209420D5
:103CE000A320B220C120D020E022E022E0204E21FB
:103CF0005E21E022E022E022E022E022FC211122EB
:103D000022229722E022E022E022E022E022E022AA
:103D1000A722B622BC22BF22CD223E1E21E02715BB
:103D200008F455C08091B40140911E06082E000C85
:103D3000990BAA0BBB0B042E000C550B660B770BD3
:103D4000840F951FA61FB71F8F3F9F4FAF4FBF4FC9
:103D500004F58FEF8093B40110921E060E945B144D
:103D600040E651E061E1872D0E94F4188091B40192
:103D700087FD05C06BE287ED96E00E94A10360918C
:103D8000B401062E000C770B87ED96E00E94171AFF
:103D9000C2C08091B40140911E06082E000C990B00
:103DA000AA0BBB0B042E000C550B660B770B840F74
:103DB000951FA61FB71F4197A105B10514F080E11B
:103DC000C9CF8091B40190911E06890FC3CF41E005
:103DD00064EB71E0872D0E94E71C12C0A4E08A2EDC
:103DE000912CA12CB12CC12CD12C760103E711E030
:103DF0002BE531E042E16EEC71E0872D0E94711DF0
:103E0000862D26960FB6F894DEBF0FBECDBFDF918C
:103E1000CF911F910F91FF90EF90DF90CF90BF90C7
:103E2000AF909F908F907F906F905F900895F7E094
:103E30008F2E912CA12CB12CC12CD12C760104E514
:103E400011E021E531E043E168EF75E0D6CFEAE02B
:103E50008E2E912CA12CB12CC12CD12C76010EE3ED
:103E600011E02CE431E044E165EB71E0C6CF79E08C
:103E7000872E912CA12CB12CC12CD12C76010AE2D9
:103E800011E022E431E045E168EC71E0B6CF812C2D
:103E9000912C54018394C12CD12C760106E211E0BF
:103EA00029E331E046E167EF75E0A7CF81E08715B0
:103EB00008F45FC08091F9059091FA0540911E06C3
:103EC000092E000CAA0BBB0B042E000C550B660B25
:103ED000770B840F951FA61FB71FB7FF21C0109245
:103EE000FA051092F90510921E060E945B1445E334
:103EF00051E067E1872D0E94F418E091F905F091F7
:103F0000FA05EE0FFF1FEE5DFE4F6081718187EDB8
:103F100096E00E94551A0E94F0180E94F01870CF87
:103F20008091F9059091FA0540911E06092E000C2A
:103F3000AA0BBB0B042E000C550B660B770B840FE2
:103F4000951FA61FB71F0297A105B1053CF081E0A0
:103F500090E09093FA058093F905C5CF8091F9051B
:103F60009091FA0520911E06820F911D27FD9A95CA
:103F7000F0CF42E069EF75E02DCF812C912C5401F8
:103F80008394C12CD12C760102E211E021E331E0CF
:103F900048E16AE671E031CF38E0832E912CA12C04
:103FA000B12CC12CD12C760110E000E02EE231E0E2
:103FB00049E166EC71E021CF27E0822E912CA12C03
:103FC000B12CC12CD12C760102E111E02AE231E0C2
:103FD0004AE164EF75E011CF90E1892E912CA12C7C
:103FE000B12CC12CD12C760110E000E025E231E0AB
:103FF0004BE162E771E001CF84E0882E912CA12C87
:10400000B12CC12CD12C760108E011E02DE131E07A
:104010004CE16CEC71E0F1CE812C912C5401839435
:10402000C12CD12C760102E211E022E131E041E223
:104030006DEC71E0E2CE812C912C54018394C12C63
:10404000D12C760102E211E029E031E044E269EE90
:1040500073E0D3CE91E0971508F452C08091B1017E
:104060009091B20140911E06092E000CAA0BBB0BC9
:10407000042E000C550B660B770B840F951FA61FA3
:10408000B71F181619061A061B06ACF081E090E05F
:104090009093B2018093B10110921E060E945B14AE
:1040A0004DEF50E065E2872D0E94F4186091B10158
:1040B0007091B20169CE8091B1019091B2014091AD
:1040C0001E06092E000CAA0BBB0B042E000C550B70
:1040D000660B770B840F951FA61FB71FCD97A10501
:1040E000B1051CF08CE390E0D3CF8091B1019091A9
:1040F000B20120911E06820F911D27FD9A95C8CF0F
:1041000042E061EB71E066CEB2E08B2E912CA12CE7
:10411000B12CC12CD12C760102E011E022EF30E06D
:1041200046E26BEC71E069CE812C912C54018394B2
:10413000C12CD12C760102E211E027EE30E047E2FB
:104140006EEF75E05ACE812C912C54018394C12CD2
:10415000D12C760102E211E02EED30E048E268EE6B
:1041600073E04BCE812C912C54018394C12CD12C23
:10417000760102E211E02AED30E041E364E176E00D
:104180003CCE812C912C54018A94C12CD12C7601E7
:1041900010E000E02FEC30E042E36CE671E02DCE61
:1041A00068E0862E912CA12CB12CC12CD12C76014B
:1041B00010E000E026EC30E043E36BE671E01DCE5A
:1041C0005090CE05812C912C54018394C12CD12C7C
:1041D000760102E211E02DEB30E046E36EEC75E093
:1041E000872D0E94711D21E072120ACE8091CE05AA
:1041F000851509F405CE6091CE0583E891E00E9413
:10420000DA1A8091CE058823B1F18091CE01809396
:10421000CD058091F8058093CC0580916A0180934B
:10422000CB058091C6018093CA056091CD0584E8D5
:1042300091E00E94DA1A6091CC0585E891E00E9435
:10424000DA1A6091CB0586E891E00E94DA1A609153
:10425000CA0587E891E00E94DA1A7092CE01709246
:10426000F80510926A011092C6017092C90581E0AA
:104270008093C701C5CD8091CD058093CE018091FB
:10428000CC058093F8058091CB0580936A018091DD
:10429000CA058093C6011092C905E9CF4CE3842E6C
:1042A000912CA12CB12CC12CD12C760110E000E076
:1042B00021EB30E041E46EE771E09FCD84E07816B9
:1042C00009F48EC0871538F091E0971580F440E22C
:1042D0006FE771E07FCD26E07212F9CF8091E7039E
:1042E000803218F48F5F8093E70377247394809172
:1042F0000D06833011F01092E70380910D06823095
:1043000019F483E080930D06E091E703F0E0E158B3
:10431000FE4F2081822F022E000C990B30911E0639
:10432000AC01430F511D37FD5A9540325105C4F081
:1043300030911E06AC01430F511D37FD5A95452B98
:1043400079F030911E06830F911D37FD9A958B35BC
:1043500091050CF043C080911E06280F208302C0F7
:1043600080E2808310921E0646EA50E062E4872DC8
:104370000E94F41810E000E0E091E703E695E6956E
:10438000E69588E0E89FF0011124E00FF11FE15865
:10439000FE4F6081662349F087ED96E00E94A103FD
:1043A0000F5F1F4F0D30110539F761E087ED96E083
:1043B0000E94A1030E94F01820910D068091E7034E
:1043C0008770805C91E0223008F490E0890F80686B
:1043D0000E9450148EE00E94501412CD8AE5C1CF85
:1043E000EFE9F1E082918F7D09F071CF108291E0C9
:1043F000EF37F907B9F76BCF80906401882D8150B2
:10440000990B4C01092C000CAA08BB08C12CD12C1B
:10441000760110E000E02AE930E041E86DE074E068
:10442000ECCCC0900D04D12CF12CE12C812C912CE2
:1044300054018A9410E000E02EE830E042E864E69F
:1044400071E0DBCC91E0971508F46DC08091EF0628
:104450009091F006A091F106B091F20640911E06EF
:10446000042E000C550B660B770B840F951FA61FAF
:10447000B71F80389F49A54DB10524F580E89FE915
:10448000A5EDB0E08093EF069093F006A093F106BF
:10449000B093F20610921E060E945B1445E850E0AD
:1044A00063E8872D0E94F4184091EF065091F006C2
:1044B0006091F1067091F2062AE087ED96E00E9485
:1044C000991929CD8091EF069091F006A091F106FF
:1044D000B091F20640911E06042E000C550B660B9F
:1044E000770B840F951FA61FB71F81309F43AB4AE0
:1044F000B1402CF080E09FE3ABEAB1E0C3CF809104
:10450000EF069091F006A091F106B091F20640916D
:104510001E06042E000C550B660B770B840F951F9F
:10452000A61FB71FAFCF44E06FEE76E053CC24EB6D
:10453000822E912CA12CB12CC12CD12C760110E013
:1045400000E02CE730E044E86FEA71E056CC812CC3
:10455000912C54018394C12CD12C760102E211E0FC
:1045600022E730E041EA69E671E047CC6AEB71E0AE
:10457000872D0E940A1D44CC6EEB71E0F9CF812C8F
:10458000912C5401C12CD12C760110E000E030E0D8
:1045900020E040E062EC71E030CC812C912C5401A1
:1045A000C12CD12C760110E000E030E020E040E0AA
:1045B00063EC71E022CC10920D060E944F1957CE89
:1045C00082E078121DCC9CE2691609F419CC809126
:1045D0001E061816B4F08FEF9FEF860D911D9E8377
:1045E0008D83DC82CB82FE018C9774F03396FA8245
:1045F000E98280819181029714F4FE0131966080F6
:1046000021CB81E090E0E9CF3596F1CF1F920F9258
:104610000FB60F9211242F933F938F939F93AF93D5
:10462000BF938091160690911706A0911806B0913D
:1046300019063091150623E0230F2D3768F126E87F
:10464000230F0296A11DB11D209315068093160617
:1046500090931706A0931806B093190680911A0636
:1046600090911B06A0911C06B0911D060196A11DFC
:10467000B11D80931A0690931B06A0931C06B0935D
:104680001D06BF91AF919F918F913F912F910F90F8
:104690000FBE0F901F9018950196A11DB11DD4CF8C
:1046A0001F920F920FB60F9211242F933F934F93A7
:1046B0005F936F937F938F939F93AF93BF93EF938A
:1046C000FF9381E296E00E941C04FF91EF91BF915D
:1046D000AF919F918F917F916F915F914F913F919A
:1046E0002F910F900FBE0F901F9018951F920F9251
:1046F0000FB60F9211242F938F939F93EF93FF93F5
:10470000E0913106F09132068081E0913706F09118
:10471000380682FD1BC0908180913A068F5F8F73AF
:1047200020913B06821741F0E0913A06F0E0EF5D00
:10473000F94F958F80933A06FF91EF919F918F915A
:104740002F910F900FBE0F901F9018958081F4CF7E
:104750001F920F920FB60F9211242F933F934F93F6
:104760005F936F937F938F939F93AF93BF93EF93D9
:10477000FF93E091C505F091C6050995FF91EF9172
:10478000BF91AF919F918F917F916F915F914F9169
:104790003F912F910F900FBE0F901F9018951F9271
:1047A0000F920FB60F9211240F931F932F933F93E5
:1047B0004F935F936F937F938F939F93AF93BF9329
:1047C000CF93DF93EF93FF93C091C40580E1C89F1F
:1047D000E001112487E00E948A028C0186E00E9499
:1047E0008A02000F111F8C2B802B8093C40583320B
:1047F000B9F08233D9F0FF91EF91DF91CF91BF9162
:10480000AF919F918F917F916F915F914F913F9168
:104810002F911F910F910F900FBE0F901F90189521
:1048200080911E068F5F80931E06E5CF80911E0645
:104830008150F9CFE1E2F6E01382128288EE93E034
:10484000A0E0B0E084839583A683B7838DE592E0F2
:104850009183808385EC90E09587848784EC90E059
:104860009787868780EC90E0918B808B81EC90E03D
:10487000938B828B82EC90E0958B848B86EC90E01E
:10488000978B868B118E128E138E148E40EC5CEFFC
:104890006BE971E04093D1065093D2066093D30642
:1048A0007093D406E7EDF6E0138212828FE692E071
:1048B0009183808388B18F7C88B93D980000000087
:1048C000000000003C983C9A4093EF065093F0069D
:1048D0006093F1067093F2060895CF93DF93CDB7FE
:1048E000DEB76E970FB6F894DEBF0FBECDBF7894DB
:1048F00084B5836084BD85B5836085BD80916E007D
:10490000816080936E0082E08093810080918100BD
:10491000816080938100809180008160809380001D
:104920008091B10084608093B1008091B00081607B
:104930008093B00087E880937A001092C10060E015
:104940008AE00E94B3020E94EC1314BE88E198E250
:104950000FB6F894A895809360000FBE9093600006
:1049600080E480937C001092680010926B0010929B
:104970006C0010926D0062E086E00E94E10262E04D
:1049800087E00E94E10280916D00806C80936D0051
:104990008091680084608093680087E00E948A02AA
:1049A0007C0186E00E948A02EE0CFF1CE82AE0925D
:1049B000C405789460E08BE00E94B30261E088E077
:1049C0000E94B30260E08AE00E94B30260E089E0E6
:1049D0000E94B30261E089E00E94E10261E08BE0A5
:1049E0000E94E10261E088E00E94E10261E08AE069
:1049F0000E94E10260E081E10E94E10262E08DE05C
:104A00000E94E10260E08CE00E94E10260E08EE042
:104A10000E94B30260E08FE00E94B30260E08EE08B
:104A20000E94E10260E08FE00E94E10264E670E033
:104A300080E090E00E9462038AB18F618AB93C9A5B
:104A400080E593EC0E9435033C9A5C9883E30E94D6
:104A5000501484E991E10E94350383E30E945014CD
:104A600084E991E10E94350383E30E94501486E9B2
:104A700090E00E94350382E30E94501488E20E9475
:104A800050148CE00E94501481E00E94501463E0A6
:104A900070E080E090E00E94620386E00E94501483
:104AA0001092D1051092D0055E0129E0A20EB11C32
:104AB0008091D0059091D1050897A9F16091D0051A
:104AC0007091D105E3E0660F771FEA95E1F76E512B
:104AD0007E4F48E050E0CE0101960E94B5358091AE
:104AE000D0059091D1058F5F38E0839FC0011124DC
:104AF000887380640E945014CE0101967C01D70116
:104B00006D917D0187ED96E00E94B118EA14FB04D7
:104B1000B1F78091D0059091D10501969093D10580
:104B20008093D005C5CF0E944F1987E80E9450148A
:104B30008FED91E00E94D51889ED91E00E94D51883
:104B40000E94F0186FEF83E00E94241160E08AE079
:104B50000E94B30260E088E00E94B30264E670E065
:104B600080E090E00E9462038FE00E941D03BC0180
:104B7000990F880B990B0E94D4399B01AC010E94BC
:104B8000B93820E030E040EA50E40E94893A20E061
:104B900030E040E85AE30E94893A4B015C0161E051
:104BA00088E00E94B3022AE939E949E950E4C501E5
:104BB000B4010E94843A181654F426E636E646EA12
:104BC00050E4C501B4010E94253987FD09C0C50123
:104BD000B4010E949C3946E584ED91E00E941D1AC3
:104BE00083E10E941D03BC01990F880B990B0E9461
:104BF000D43920E030E040EA50E40E94893A20E0D5
:104C000030E040E85AE30E94893A4B015C012DEC08
:104C10003CEC4CE450E40E94843A181654F423E32C
:104C200033E343E750E4C501B4010E94253987FD11
:104C300009C0C501B4010E949C3946E58FEC91E0A2
:104C40000E941D1A86E00E941D0380917C008860EE
:104C500080937C0061E070E080E090E00E9462035D
:104C600080917A00806480937A0080917A0086FD3A
:104C7000FCCF609178007091790090E080E00E9414
:104C8000D2399B01AC016AE979EA8CE894E40E948C
:104C90002A394B015C0123E333E343E950E40E94EA
:104CA000843A181654F426E636E646EA50E4C5017E
:104CB000B4010E94253987FD09C0C501B4010E94D5
:104CC0009C3946E589EC91E00E941D1A3A986AE009
:104CD00070E080E090E00E94620380E10E941D038A
:104CE000BC01990F880B990B0E94D43920E030E069
:104CF00040EA50E40E94893A20E030E040E85AE37C
:104D00000E94893A4B015C0126E636E646EE5FE3F7
:104D10000E94843A181654F42DEC3CEC4CE450E418
:104D2000C501B4010E94253987FD09C0C501B40140
:104D30000E949C3946E583EC91E00E941D1A8EE0AA
:104D40000E941D03BC01990F880B990B0E94D43956
:104D500020E030E040EA50E40E94893A20E030E070
:104D600040E85AE30E94893A4B015C0126E636E6A8
:104D700046EE5FE30E94843A181654F42DEC3CECA6
:104D80004CE450E4C501B4010E94253987FD09C0F7
:104D9000C501B4010E949C3946E58DEB91E00E946B
:104DA0001D1A8FE00E941D03BC01990F880B990BFF
:104DB0000E94D43920E030E040EA50E40E94893A71
:104DC00020E030E040E85AE30E94893A4B015C0160
:104DD00026E636E646EE5FE30E94843A181654F45F
:104DE0002DEC3CEC4CE450E4C501B4010E942539A3
:104DF00087FD09C0C501B4010E949C3946E587EBD7
:104E000091E00E941D1AA8950E943D031092D105C1
:104E10001092D0058091D0059091D105883E9340A5
:104E200071F08CED96E00E94FB158091D005909179
:104E3000D10501969093D1058093D005EBCF0E94C8
:104E40003D036091B6017091B7018091B8019091D6
:104E5000B9012AE530E050E040E00E942212A89516
:104E60001092D1051092D005B12CA12C8091D005C3
:104E70009091D105883E934009F46CC06091D005B3
:104E80007091D1058CED96E00E9416168CED96E09F
:104E90000E94FB1574E0E72EF12C0E94B70480EC11
:104EA0000E94BB018AE18E0D0E94BB010E94AB04EF
:104EB0000E94B70481EC0E94BB0180E80E940E149E
:104EC000982E80E40E940E14982A80E20E940E140C
:104ED000982A80E10E940E14982A88E00E940E14FD
:104EE000982A84E00E940E14982A82E00E940E14F0
:104EF000982A81E00E940E14982A3C980000000035
:104F0000000000003D9800000000000000003C98F8
:104F10003D9A00000000000000000E94AB04F70171
:104F2000E452F94F8385891519F0FFEFAF1ABF0AD4
:104F30002FEFE21AF20A38E0E316F10409F0ADCFE0
:104F40008091D0059091D10501969093D1058093E1
:104F5000D0058CCFA895A114B10431F040E2B50181
:104F60008FEA91E00E941D1A84E080936B01E0912A
:104F7000B30164E0E69FF0011124E35BFD4F808103
:104F80009181A281B3818093ED059093EE05A0936A
:104F9000EF05B093F00562E383E00E94011E80916B
:104FA000CF05883709F42AC188E78093CF056FEFD2
:104FB00084E00E94011E80EC0E9450148EE991E072
:104FC0000E94D51864EF71E080E090E00E946203D7
:104FD000A8951092F4061092F306FF24F394F09231
:104FE000C7018091B5018093B0011092140682E050
:104FF0008093C6018093CC011092FA051092F905B6
:105000008091F705082F017010E0000F111F000FAD
:10501000111FF801E654FE4F80819181A281B38176
:105020008093B6019093B701A093B801B093B901F2
:105030008091F70580FBCC24C0F8D12CF601EE530B
:10504000FE4F80818093CE010E945E140E944F1912
:10505000F092F6051092C70586E897E09093C60592
:105060008093C50524E63EED45E050E061E082E036
:105070000E94EF0480917C008093F3058091F405F9
:1050800061E0813009F460E029E937E741E050E070
:1050900080E00E94EF0480917C008093F105809174
:1050A000F40561E0813009F460E029E937E741E087
:1050B00050E081E00E94EF0480917C008093F20533
:1050C000109280001092810080918000826A80930B
:1050D0008000809181008961809381001092870017
:1050E0008CEC8093860010928900109288001092B8
:1050F0008B0010928A008091B6008F7D8093B6005D
:105100001092B0001092B1001092B2008091B000E5
:1051100082608093B0008091B10084608093B10080
:105120008091700082608093700083E08093B30070
:10513000809180008F7D8093800060E08AE00E94F3
:10514000B302E0913106F091320682E08083E09173
:105150002D06F0912E061082E0912F06F091300678
:1051600080E4808310923906E0913506F09136068E
:1051700086E08083E0913306F0913406808188696F
:105180008083E0913306F091340680818F7D8083A7
:105190008091C80581110E945D1A10920C0680E171
:1051A00080930B06B090B201A090B1011B2D110F9E
:1051B000110BC12ED12EE12EF12E012F2CED35E059
:1051C00040E050E060E070E080E090E00E94E53B6D
:1051D0002093030630930406409305065093060679
:1051E0008DE00E948A02892B09F047C040E070E000
:1051F00060E080E991E00E941D1AF2CF81E10E94F7
:105200008A02892B09F0D0CE6FEF83E00E94011E45
:1052100083E891E00E94DC1A8093CE058091CE0550
:10522000823010F01092CE0584E891E00E94DC1AE2
:105230008093CD0585E891E00E94DC1A8093CC052F
:1052400086E891E00E94DC1A8093CB0587E891E024
:105250000E94DC1A8093CA058091CE05882309F448
:10526000B8CE81E08093CE018093F80510926A0158
:105270001092C6018093C905ACCE8091CE018230D8
:1052800051F48091CB01823031F08CE00E948A028F
:10529000892B09F4ABCF5AE0452E512C612C712C8F
:1052A00080911406882309F448C08091CE01882398
:1052B00029F08091CE01813009F03FC08091130622
:1052C0008111F9C0F89483E880937A0080916C0191
:1052D000803220F060E088E00E94B30290917C0070
:1052E00080917A0084FFFCCF8091F30580937C004D
:1052F00080917A00806480937A0080917A0084FFA4
:10530000FCCF90937C0080916C01803220F061E0B2
:1053100088E00E94B302809178009091790078949F
:1053200092500E94F90E80911206882331F081E09C
:10533000809313068FEF0E9415178091CE01823063
:1053400009F07CC08091CD01882309F477C0809159
:105350001206811173C080910E0690910F06A091E4
:105360001006B0911106892B8A2B8B2B09F066C091
:105370008090D9059090DA05A090DB05B090DC050F
:10538000C0906D01D0906E01E0906F01F0907001BF
:10539000C501B4016C197D098E099F0920E031E037
:1053A00040E050E00E945C3BC20ED31EE41EF51E9E
:1053B000C0926D01D0926E01E0926F01F092700187
:1053C000C701B60122E030E040E050E00E945C3BC3
:1053D00011E0281539054A055B050CF010E0109323
:1053E000D8058091D705181751F00E949503609356
:1053F000D3057093D4058093D5059093D6050E946C
:1054000095038090D3059090D405A090D505B090D9
:10541000D605681979098A099B09613171058105E9
:10542000910508F457C08091D20518131093D20546
:105430000E9488148091D8058093D70580910D062D
:10544000811129C080911F06882309F458C087E084
:10545000E0EEF1E0DE01119601900D928A95E1F700
:10546000E091CC0181E090E08C0F9D1F8E0F911D8B
:10547000FC0110810E945B1410921F0680E80E94BC
:105480005014612F70E061537E4F87ED96E00E94CB
:10549000551A0E947F141091CE01123029F4809188
:1054A000CB01823009F08AC18091CE01823009F4AB
:1054B000E2C21DE0E6C28091120681113ECF0E9439
:1054C00015171092130660E270E080E090E00E94F1
:1054D000620333CFC701B60124E630E040E050E07C
:1054E0000E945C3BC20ED31EE41EF51EC0926D01ED
:1054F000D0926E01E0926F01F092700199CF80918D
:105500000E0690910F06A0911006B0911106892BFE
:105510008A2B8B2B09F0BFCF809113068111BBCF53
:105520008091E5059091E605A091E705B091E80529
:105530002091E1053091E2054091E3055091E405A9
:1055400082179307A407B50740F02091E505309135
:10555000E6054091E7055091E8052093E105309379
:10556000E2054093E3055093E4058091CC01882344
:1055700009F491CF8091DF059091E0050196909319
:10558000E0058093DF059770892B09F084CF211502
:1055900031054105510509F4F6C0C12CD12C760125
:1055A0002A3031054105510560F0CA01B901A30156
:1055B00092010E943A3B9FEFC91AD90AE90AF90AF7
:1055C000EFCF109172012150310941095109220F89
:1055D000331F29513E4FD901ED91FC91A8EEB3E064
:1055E000A70196010E949F3B6E0F7F1F811D911D99
:1055F00022E330E040E050E00E945C3BB6E01B9FBD
:10560000C0011124092E000CAA0BBB0B820F931FA3
:10561000A41FB51F9C01AD01295B31094109510946
:105620003093DE052093DD050E945B148091CC0150
:10563000813079F489E80E9450146091DD05709101
:10564000DE0587ED96E00E94171A82E292E00E9442
:10565000D5188091CC01823019F58091DD059091AB
:10566000DE05813CEFEF9E070CF094C081589F4F00
:1056700066E070E00E94263B162F8EE80E945014D0
:105680001A3028F463E587ED96E00E94A103412FCC
:1056900050E070E060E02AE087ED96E00E94991902
:1056A0008091CC018330E9F58091DD059091DE0594
:1056B000813CFFEF9F070CF076C081589F4F66E05A
:1056C00070E00E94263BFE01319674EF760F8F0149
:1056D00025E030E042E050E0862F062E000C990BCA
:1056E00001969E878D873C872B87DE0105970CF0FE
:1056F00063C01D965A8749878D919C911197039796
:1057000014F4DE0119968C91819363507613E4CFE3
:105710001D828CE80E945014B80187ED96E00E942B
:10572000551A8091CC018430B9F48EE80E9450144F
:105730008091CE01823051F44091710150E070E0CF
:1057400060E02AE087ED96E00E94991969EF72E027
:1057500087ED96E00E94551A0E947F148091E10522
:105760009091E205A091E305B091E405B695A79567
:10577000979587958093E1059093E205A093E305C3
:10578000B093E40588CE81E89FEF9093DE05809387
:10579000DD054ACF875B1AE0612F0E94063B819F9F
:1057A000102D11246ACF875B2AE0622F0E94063BEE
:1057B000829F602D112487CF1B969CCF80910C0671
:1057C000823009F4E4C008F088C0882309F4A9C035
:1057D000813009F4C3C0C0900E06D0900F06E0904F
:1057E0001006F0901106C114D104E104F10451F047
:1057F0000E949503C616D706E806F90618F480E05D
:105800000E94151781E10E948A02892B09F478C44D
:105810008091FD0582FD05C08091FD05857009F42C
:1058200063C18091FD05807F90911E06992309F444
:10583000DAC19CE0892B8093FD058091FD058232C1
:1058400009F464C308F0F7C1863108F0CEC1843191
:1058500008F09AC2813109F49DC280910D06811130
:1058600007C09091F50580910D06981709F487C53A
:1058700010911E0680910D06813009F047C4112356
:1058800009F446C490911E068091FC05890F80930F
:10589000FC058091FC058D320CF035C48091FC052F
:1058A000082E000C990B1816190614F081E090E0F0
:1058B0008093FC056091FC0582E00E94011E8093AC
:1058C000FC0510921E0680910D0660E0811160912A
:1058D000FC0581E00E94011E21C4843009F492C0BD
:1058E00008F46EC0853009F076CF0E9492180E94AD
:1058F0009503C090FF05D0900006E0900106F0905F
:105900000206C616D706E806F90608F064CF8091AD
:105910000B0682FFAAC08A7F80930B0610930C06A9
:105920005ACF8CE00E948A02892B71F410920706EC
:10593000109208061092090610920A060E94921808
:1059400081E080930C0647CF8DE00E948A02892B6C
:1059500069F380910B06837049F73DCF80910B0668
:1059600080FFDCCF846080930B06809103069091CA
:105970000406A0910506B09106068093FF0590935A
:105980000006A0930106B093020683E0DACF80916F
:105990000B0681FF6DC020910306309104064091F3
:1059A000050650910606A3E0B0E00E949F3B60937D
:1059B000FF05709300068093010690930206E5CFE1
:1059C00081E00E9415170E9495030091FF05109138
:1059D00000062091010630910206DC01CB01800F08
:1059E000911FA21FB31F8093FF0590930006A09301
:1059F0000106B093020680910B068C7F80930B0604
:105A000084E09FCF0E9495030091FF05109100064E
:105A1000209101063091020606171707280739075B
:105A2000E8F480E00E9415170E9495030091030698
:105A3000109104062091050630910606DC01CB0189
:105A4000800F911FA21FB31F8093FF059093000644
:105A5000A0930106B093020685E073CF80910B06F8
:105A600084FFB9CE0E949218B6CE8D7F80930B062C
:105A700010920C06B0CE8091FE051CE0882309F43C
:105A800018CD809113068111A6CE812F0E948A0223
:105A9000892B09F0A0CE10920706109208061092EA
:105AA000090610920A0681E00E941517A8958091B8
:105AB000CE018230A1F46AE070E080E090E00E94C4
:105AC000620381E10E948A02892B29F4812F0E94BE
:105AD0008A02892B59F380E00E9415177CCE64E678
