:100000000C947D010C94A5010C94A5010C94A50100
:100010000C94A5010C947C220C94A5010C945522FF
:100020000C94A5010C94A5010C94A5010C94A501B8
:100030000C94A5010C94A5010C94A5010C94A501A8
:100040000C94B3210C94A5010C9423220C94FD2153
:100050000C94A5010C94A5010C94A5010C94A50188
:100060000C94A5010C94A5014541374C4A59003A1E
:1000700020004261636B6C696768740049512050CD
:100080006861736500526566206672657100504153
:100090002042696173206D6178005041204269619E
:1000A00073206D696E004E6F6973652047617465DA
:1000B00000564F58005072616374696365004B6568
:1000C0007965722053776170004B65796572204DB8
:1000D0006F6465004B6579657220537065656400D7
:1000E00053656D692051534B004357204465636F3E
:1000F00064657200532D6D6574657200415454320D
:1001000000415454004E52004147430052495400AC
:1001100056464F204D6F64650054756E65205261E0
:1001200074650042616E640046696C7465722042B9
:1001300057004D6F646500566F6C756D6500FFFE6E
:10014000FCF9F5EFE9E2D9D0C6BBB0A4988B7F7378
:10015000665A4E43382E251C150F09050200202033
:1001600020202020202000436865636B20505454D9
:100170002F6B6579005265736574207365747469BB
:100180006E67732E2E004245525F693263005661DE
:100190006463310056616463300056616463320009
:1001A00056617663630056332E330056352E300089
:1001B000312E3033780020520008040A050A040862
:1001C00000000000000000000010101010101010BF
:1001D00010101014141414141410101515151515EE
:1001E000150C121E12120000001C121C121C000022
:1001F00000000000000000000064426D2000506F0D
:100200007765722D6F6666203733203A2D290052AC
:100210004954200000000000240027002A000000AC
:100220000000250028002B0000000000230026000D
:100230002900040404040404040402020202020269
:100240000303030303030202030102040810204016
:1002500080010204081020010204081020408040A0
:10026000000000090003020000040508000000006F
:10027000000000000000007E20455449414E4D53CF
:10028000555257444B474F4856462A4C2A504A42EB
:100290005843595A512A2A353453332A2A2A322AA2
:1002A0002A2B2A2A2A4A31363D2F2A2A2A482A3737
:1002B0002A472A382A39302A2A2A2A2A2A2A2A2A5E
:1002C0002A2A2A3F5F2A2A2A2A222A2A2E2A2A2A48
:1002D0002A402A2A2A272A2A2D2A2A2A2A2A2A2A68
:1002E0002A3B212A292A2A2A2A2A2C2A2A2A2A3A55
:1002F0002A2A2A2A0000C422053411241FBECFEF67
:10030000D8E0DEBFCDBF13E0A0E0B1E0EEE5F6E758
:1003100002C005900D92A43DB107D9F726E0A4EDE7
:10032000B3E001C01D92A53DB207E1F711E0CCE7B3
:10033000D1E004C02197FE010E94F939CB37D107E3
:10034000C9F70E940F230C94223B0C9400003C9AA6
:100350003D9800000000000000003C9887B18F7CB1
:1003600087B93C9A089587FF76C03C983D98000075
:100370000000000000003D9A0000000000000000A6
:1003800086FF6BC03C983D98000000000000000014
:100390003D9A000000000000000085FF60C03C980E
:1003A0003D9800000000000000003D9A00000000A1
:1003B0000000000084FF55C03C983D9800000000FC
:1003C000000000003D9A000000000000000083FFD4
:1003D0004AC03C983D9800000000000000003D9A93
:1003E000000000000000000082FF3FC03C983D98E4
:1003F00000000000000000003D9A00000000000026
:10040000000081FF34C03C983D98000000000000CF
:1004100000003D9A000000000000000080FF29C09D
:100420003C983D9800000000000000003D9A00004C
:100430000000000000003C980000000000000000E8
:100440003D9800000000000000003D9A0000000000
:100450000000000008953C9A89CF3C9A94CF3C9AC2
:100460009FCF3C9AAACF3C9AB5CF3C9AC0CF3C9A3A
:10047000CBCF3C9AD6CF3D9A000000000000000090
:100480003C9808953D98000000000000000021E61F
:100490003AEE359903C021503109D9F796B19071E0
:1004A0003D9A0000000000000000911101C080E0B2
:1004B00008952F923F924F925F926F927F928F9208
:1004C0009F92AF92BF92CF92DF92EF92FF920F93E3
:1004D0001F93CF93DF9300D000D0CDB7DEB720912C
:1004E000C3063091C4064091C5065091C6062983C3
:1004F0003A834B835C832091C006C090CF06D09096
:10050000D006E090D106F090D20630E0DC010E94E7
:10051000163A4B015C01BB0C8808982C54019B01D6
:10052000AC01682D782D882D982D07E10E94D03AD6
:1005300056016701E12CF12C00E010E00E94323AF4
:1005400049015A0149805A806B807C80480C591CB3
:100550006A1C7B1C8091C1069091C206860D971D76
:100560008093CB0680E18093CC06852D99278093DC
:10057000CD064092CE060F900F900F900F90DF9116
:10058000CF911F910F91FF90EF90DF90CF90BF9090
:10059000AF909F908F907F906F905F904F903F9023
:1005A0002F900895CF93DF930E943B0280EC0E942E
:1005B000B3018EE10E94B301CCEBD6E08F850E949F
:1005C000B30188890E94B30189890E94B3018A8995
:1005D0000E94B301DF91CF910C94A701E09118061E
:1005E000E7FD16C0F0E0E958FD4FE491EA3281F0F2
:1005F000E093DD0181E080931706EEECF1E081816C
:10060000819381E0ED3DF807D1F780E28093DD0131
:1006100081E0809318060895843081F028F48230B8
:10062000E9F08330F9F00895883071F0893091F065
:100630008530B9F4809180008F7D03C08091800067
:100640008F778093800008958091B0008F7780939A
:10065000B00008958091B0008F7DF9CF84B58F7779
:1006600084BD089584B58F7DFBCFCF93DF93282F72
:1006700030E0F901E05AFD4F8491F901E75BFD4F4D
:10068000D491F901EE5CFD4FC491CC23A1F081110E
:100690000E940C03EC2FF0E0EE0FFF1FE85DFD4F12
:1006A000A591B491EC91ED2381E090E009F480E014
:1006B000DF91CF91089580E090E0FACF1F93CF9320
:1006C000DF93282F30E0F901E05AFD4F8491F901C2
:1006D000E75BFD4FD491F901EE5CFD4FC491CC2353
:1006E000A9F0162F81110E940C03EC2FF0E0EE0F01
:1006F000FF1FE25EFD4FA591B4918FB7F894EC9186
:10070000111108C0D095DE23DC938FBFDF91CF910C
:100710001F910895DE2BF8CFCF93DF9390E0FC017B
:10072000E75BFD4F24918E5C9D4FFC0184918823F3
:10073000C9F090E0880F991FFC01EC5EFD4FA59178
:10074000B491FC01E25EFD4FC591D49161110DC0E1
:100750009FB7F8948C91209582238C9388812823CD
:1007600028839FBFDF91CF910895623051F49FB7E6
:10077000F8943C91822F809583238C93E8812E2BD3
:10078000EFCF8FB7F894EC912E2B2C938FBFEACF3D
:10079000883020F08D3008F48DE08E5087708064B2
:1007A00080937C0080917A00806480937A008091AD
:1007B0007A0086FDFCCF80917800909179000895B1
:1007C000880F991F880F991F05970197F1F70895D2
:1007D0003FB7F8948091130690911406A0911506E6
:1007E000B091160626B5A89B05C02F3F19F00196BB
:1007F000A11DB11D3FBFBA2FA92F982F8827BC017B
:10080000CD01620F711D811D911D42E0660F771FA2
:10081000881F991F4A95D1F708958F929F92AF92A2
:10082000BF92CF92DF92EF92FF926B017C010E9408
:10083000E8034B015C01C114D104E104F104B9F0F7
:100840000E94E803681979098A099B09683E734088
:100850008105910580F321E0C21AD108E108F10871
:1008600088EE880E83E0981EA11CB11CE4CFFF9097
:10087000EF90DF90CF90BF90AF909F908F900895B2
:100880002FB7F89460910F067091100680911106B1
:10089000909112062FBF0895DC01ED91FC9101901B
:1008A000F081E02D0994AF92BF92CF92DF92EF9248
:1008B000FF920F931F93CF93DF936C017B018B010A
:1008C000040F151FEB015E01AE18BF08C017D1075A
:1008D00059F06991D601ED91FC910190F081E02DE4
:1008E000C6010995892B79F7C501DF91CF911F9139
:1008F0000F91FF90EF90DF90CF90BF90AF90089551
:10090000FC01538D448D252F30E0842F90E0821B15
:10091000930B541710F0CF96089501970895FC019A
:10092000918D828D981761F0A28DAE0FBF2FB11DF2
:100930005D968C91928D9F5F9F73928F90E008954A
:100940008FEF9FEF0895FC01918D828D981731F004
:10095000828DE80FF11D858D90E008958FEF9FEF58
:100960000895FC01918D228D892F90E0805C9F4F2E
:10097000821B91098F73992708958AE196E00E945E
:10098000B10421E0892B09F420E0822F0895FC01B5
:10099000A48DA80FB92FB11DA35ABF4F2C91848DE0
:1009A00090E001968F739927848FA689B7892C933D
:1009B000A089B1898C91837080648C93938D848D90
:1009C000981306C00288F389E02D80818F7D808393
:1009D0000895EF92FF920F931F93CF93DF93EC0153
:1009E00081E0888F9B8D8C8D98131AC0E889F989D6
:1009F000808185FF15C09FB7F894EE89FF896083D9
:100A0000E889F98980818370806480839FBF81E059
:100A100090E0DF91CF911F910F91FF90EF9008959B
:100A2000F62E0B8D10E00F5F1F4F0F731127E02E76
:100A30008C8D8E110CC00FB607FCFACFE889F989AE
:100A4000808185FFF5CFCE010E94C704F1CFEB8DE9
:100A5000EC0FFD2FF11DE35AFF4FF0829FB7F89482
:100A60000B8FEA89FB8980818062CFCFCF93DF93A0
:100A7000EC01888D8823B9F0AA89BB89E889F989B6
:100A80008C9185FD03C0808186FD0DC00FB607FCEB
:100A9000F7CF8C9185FFF2CF808185FFEDCFCE011E
:100AA0000E94C704E9CFDF91CF910895CF93DF93E0
:100AB000D82FC62F0E943B0280E40E94B3018D2FE5
:100AC0000E94B3018C2F0E94B301DF91CF910C944F
:100AD000A701CF93DF93D82FC92F6FEF87E00E9434
:100AE00056056FEF86E00E9456056D2F82E00E944A
:100AF000560560E086E00E9456056C2F83E00E9458
:100B0000560560E087E0DF91CF910C9456059091F7
:100B10007E00E1E0F0E0082E01C0EE0F0A94EAF753
:100B20009E2B90937E0010927A0010927B00109280
:100B30007C0090917C00892B80937C0080917C00CC
:100B400090E4611190EC892B80937C0061EB77EC51
:100B500082E190E00E94B83980E036952795211512
:100B6000310511F08F5FF9CF90917A008770892B52
:100B700080937A0080917A00806880937A0008954B
:100B80008091EA0580937C00EAE7F0E08081806450
:100B9000808320917800309179002F5F314087E089
:100BA00098E09093BF058093BE0580919605909143
:100BB00097054091940550919505480F591FCA011A
:100BC000880F991F840F951F820F931F40919205E4
:100BD00050919305840F951F9595879530939705B0
:100BE00020939605209190053091910540918E05B6
:100BF00050918F05420F531F9A01220F331F240F6C
:100C0000351F280F391F40918C0550918D05240FF9
:100C1000351F30938B0520938A059093910580931F
:100C2000900508958091EA0580937C00EAE7F0E062
:100C3000808180648083809178009091790025E99B
:100C400036E03093BF052093BE0520919405309186
:100C5000950530939305209392058F5F9140909373
:100C600095058093940508958091EA0580937C0012
:100C7000EAE7F0E080818064808320917800309101
:100C800079002F5F314086E097E09093BF05809315
:100C9000BE0580918E0590918F0590938D05809370
:100CA0008C058091960590919705409194055091FF
:100CB0009505480F591FCA01880F991F840F951F6A
:100CC000820F931F4091920550919305840F951FB9
:100CD0009595879590938F0580938E053093970512
:100CE0002093960508958091EA0580937C00EAE7B9
:100CF000F0E0808180648083809178009091790019
:100D000026E937E03093BF052093BE052091940576
:100D10003091950530939305209392058F5F914014
:100D2000909395058093940508958091EB058093A9
:100D30007C0080917A00806480937A002091780012
:100D4000309179002F5F3140809184059091850525
:100D5000820F931F97FD0196959587953093850592
:100D6000209384052091EF05211140C0409180051A
:100D70005091810560917E0570917F05640F751F0C
:100D80009B0135952795359527953595279535956B
:100D900027953595279520583F4F2F3F310509F06E
:100DA0007CF537FD31C070937F0560937E056091BF
:100DB000820570918305460F571F5093810540931C
:100DC00080052093880020EC35E03093BF05209308
:100DD000BE052091880530918905309387052093C1
:100DE0008605909389058093880508951092830560
:100DF0001092820520E870E060E050E040E0D3CF40
:100E00002FEF30E037FFCFCF20E0CDCF8091EB0543
:100E100080937C0080917A00806480937A00409176
:100E20007800509179004F5F5140809184059091F6
:100E30008505840F951F97FD01969C013595279593
:100E400050938505409384058091EF0581115EC024
:100E5000409180055091810560917E0570917F05DC
:100E6000640F751FCB0195958795959587959595F9
:100E70008795959587959595879580589F4F8F3F36
:100E8000910511F00CF04CC097FD4EC070937F059A
:100E900060937E056091820570918305460F571F10
:100EA00050938105409380058093880082E196E00D
:100EB0009093BF058093BE0580917C0590917D0540
:100EC00090937B0580937A058091780590917905C0
:100ED0004091880550918905480F591FCA01880F14
:100EE000991F840F951F820F931F40918605509183
:100EF0008705840F951F9595879590937D05809321
:100F00007C05309379052093780508951092830528
:100F10001092820580E870E060E050E040E0B6CFDB
:100F20008FEF90E097FFB2CF80E0B0CF8091EB05DC
:100F300080937C0080917A00806480937A00209175
:100F40007800309179002F5F314080918405909135
:100F50008505820F931F97FD019695958795309390
:100F60008505209384052091EF05211140C0409113
:100F700080055091810560917E0570917F05640F19
:100F8000751F9B013595279535952795359527959F
:100F9000359527953595279520583F4F2F3F31059B
:100FA00009F07CF537FD31C070937F0560937E05B5
:100FB0006091820570918305460F571F50938105FC
:100FC000409380052093880024E336E03093BF05EA
:100FD0002093BE05209188053091890530938705BF
:100FE0002093860590938905809388050895109233
:100FF00083051092820520E870E060E050E040E058
:10100000D3CF2FEF30E037FFCFCF20E0CDCF4F92BF
:101010005F926F927F928F929F92AF92BF92CF9288
:10102000DF92EF92FF920F931F93CF93DF93809104
:10103000EB0580937C0080917A00806480937A0035
:1010400040917800509179004F5F51408091840524
:1010500090918505840F951F97FD01969C0135950C
:10106000279550938505409384058091EF05811164
:10107000DDC2E0918005F091810560917E0570915F
:101080007F056E0F7F1FCB01959587959595879569
:1010900095958795959587959595879580589F4FB8
:1010A0008F3F910511F00CF077C397FDB1C370939A
:1010B0007F0560937E0540918205509183054E0F18
:1010C0005F1F50938105409380058093880083E7DC
:1010D00096E09093BF058093BE058091780590912E
:1010E00079054091880550918905480F591FCA011B
:1010F000880F991F840F951F820F931F40918605BB
:1011000050918705840F951F9595879530937905A4
:1011100020937805609076057090770520917C0586
:1011200030917D05260D371D3901660C771C620E46
:10113000731E680E791E20917A0530917B05620E30
:10114000731E909377058093760560918A05709160
:101150008B058091EF05811154C2809174059091A7
:1011600075052091720530917305AC01421B530B3C
:101170009A014091700550917105D901A41BB50BDE
:10118000AD01509383054093820540916F05542F24
:101190004F5F40936F05511107C07894809174059B
:1011A0009091750540916F053093710520937005FE
:1011B00090937305809372058091720102C07595BA
:1011C00067958A95E2F7C0905705D0905805A09092
:1011D0006B05B0906C05E0905B05F0905C05A0910C
:1011E0006705B0916805F701EA1BFB0B00915F05ED
:1011F00010916005C0916305D091640598012C1B86
:101200003D0B8090530590905405861A970AC601AD
:101210008A199B09880F991F880F991F880E991E9C
:1012200097FE03C05FE3850E911C082C892C000CEF
:10123000881C9908000C881C991CCF01820F931FF1
:1012400097FD07969595879595958795959587959B
:10125000880E991ECF01880F991F880F991F8E0F36
:101260009F1F821B930B97FF02C081589F4F880FCF
:10127000892F881F990B880D991D37FF02C02F5F9A
:101280003F4F35952795280F391F8091550590912F
:1012900056059093540580935305D0925605C092FD
:1012A00055058091590590915A0590935805809362
:1012B0005705F0925A05E092590580915D0590918D
:1012C0005E0590935C0580935B0510935E0500932B
:1012D0005D05809161059091620590936005809312
:1012E0005F05D0936205C09361058091650590917B
:1012F00066059093640580936305B0936605A0939B
:1013000065058091690590916A05909368058093C1
:101310006705B0926A05A092690580916D0590916C
:101320006E0590936C0580936B0570936E056093CA
:101330006D058091720102C0759467948A95E2F7F9
:101340007092CA056092C905709352056093510569
:10135000E0914305F0914405809145059091460543
:1013600090934405809343058091470590914805EB
:1013700090934605809345058091490590914A05D3
:10138000909348058093470580914B0590914C05BB
:1013900090934A058093490580914D0590914E05A3
:1013A00090934C0580934B0580914F05909150058B
:1013B00090934E0580934D057092500560924F05B5
:1013C000F195E195F109E21BF30B90914205CFEF06
:1013D000C90FC0934205C0903E05D0903F05E090F4
:1013E0004005F0904105911173C0C092DE05D09286
:1013F000DF05E092E005F092E10510923E051092C3
:101400003F0510924005109241058091CD01843036
:1014100009F476C08091CD01833009F4C2C1809176
:101420006A01813009F4B4C08091B3018E300CF4AC
:1014300007C18091B3018D5002C0EE0FFF1F8A9546
:10144000E2F78091C50181110DC18091F1058111F3
:1014500029C1C0903605D0903705E0903805F0904E
:101460003905CF7309F0B7C1C092D205D092D30528
:10147000E092D405F092D50510923605109237050A
:101480001092380510923905E115B2E0FB0714F00F
:10149000EFEFF1E0E1152EEFF20714F4E0E0FEEFDC
:1014A000F0937505E0937405415040936F05DF910B
:1014B000CF911F910F91FF90EF90DF90CF90BF9051
:1014C000AF909F908F907F906F905F904F90089516
:1014D000CF01F7FD98C1092E000CAA0BBB0B8C0D98
:1014E0009D1DAE1DBF1D80933E0590933F05A093AB
:1014F0004005B09341058091CD01843009F08ACF39
:101500002091C9053091CA058091510590915205ED
:1015100037FF03C031952195310997FF03C091959D
:1015200081959109821793070CF474C1809151053C
:1015300090915205E091C905F091CA05F7FF03C0EB
:10154000F195E195F109F595E795F595E79597FF03
:1015500003C0919581959109E80FF91F80913C0591
:1015600090913D059F01281B390B37FF02C02F5F6B
:101570003F4F35952795280F391F30933D05209310
:101580003C05E21BF30B80916A01813009F04CCFDE
:101590008091680190916901811564E0960774F06B
:1015A0009C01232F330F330B25952595DF01A29F37
:1015B000F001A39FF00DB29FF00D11242F2F259560
:1015C00025953F2F330F330B37FDE2C161E070E00B
:1015D000DB01A21BB30B6FEF7FE7681B790BA6172C
:1015E000B70734F48A0F9B1F9093690180936801B9
:1015F000181619060CF0C5C12091B30180E190E0E6
:1016000023C0109275051092740510927305109204
:10161000720510927105109270051092EF0550E05E
:1016200040E030E020E090E080E0ABCD1092830518
:101630001092820580E870E060E0F0E0E0E037CDF5
:101640002091B3018DE090E0821B910927FD9395D5
:1016500002C0F595E7958A95E2F78091C501882348
:1016600009F4F3CE00912205109123052091C501C4
:10167000CF01801B910B2150330B61E070E002C061
:10168000660F771F2A95E2F70E94A439FB01E00F4D
:10169000F11FF0932305E09322058091F105882343
:1016A00009F4D7CE8091F105E0902E05F0902F053A
:1016B000C0903205D0903305843008F0B4C08091DA
:1016C000340590913505F0933505E0933405DF013D
:1016D000A81BB90B9F0122953295307F3227207FBE
:1016E0003227CF01880F991F880F991F880F991FE4
:1016F000280F391F2E0F3F1F8EE190E0A89FF001A9
:10170000A99FF00DB89FF00D11242E0F3F1F3595A6
:1017100027953595279535952795359527953595B1
:1017200027958091F105823009F457C2833009F47E
:101730003EC2813009F4FBC1A0912A05B0912B056E
:101740008091F1050091280510912905823009F456
:10175000CDC1833009F4A8C1813009F469C1E09199
:101760002405F09125051093270500932605F09395
:101770002905E0932805F0922D05E0922C05B09301
:101780002F05A0932E05D0923105C09230053093DD
:101790003305209332055DCE8FEF90E097FF87CC25
:1017A00037C08091C9059091CA058E0F9F1F209167
:1017B0003A0530913B05829FF001839FF00D929F87
:1017C000F00D11248091C9059091CA0590933B05B5
:1017D00080933A0524CECF01F7FF04C088279927CC
:1017E0008E1B9F0B092E000CAA0BBB0B8C0D9D1D95
:1017F000AE1DBF1D8093360590933705A093380525
:10180000B093390541CE882799278E1B9F0B63CE55
:1018100080E04DCC8091C9059091CA05E0915105B9
:10182000F09152058BCE8091F105853009F4F0C11D
:1018300008F4EEC0863009F4AFC020912C05309139
:101840002D05A3ECBFEF873009F0EFC10E94FF39EF
:101850004B015C012EE630E0D7010E94163A95015B
:101860008401060F171F281F391F37FF04C0015CB2
:101870001F4F2F4F3F4F56E03595279517950795EA
:101880005A95D1F70C0D1D1D10932B0500932A05B9
:101890008091F105A0902805B0902905853009F4C4
:1018A000C9C108F480C0863009F4F9C1873009F055
:1018B000F1C1C701880F991FB801681B790B80908F
:1018C0002C0590902D05860E971E97FE03C08FE184
:1018D000880E911C959487949594879495948794F9
:1018E00095948794959487942091260530912705A7
:1018F000A2ECBFEF0E94FF392B013C0120E730E052
:10190000D5010E94163A460E571E681E791E77FEB4
:1019100005C0AFE34A0E511C611C711CC301B2012A
:1019200026E095958795779567952A95D1F7680D67
:10193000791D7093250560932405B0922705A09228
:1019400026057093290560932805F0922D05E092F5
:101950002C0510932F0500932E05D0923105C092CF
:101960003005F0933305E093320577FF02C0695FDD
:101970007F4FFB01F595E795F595E795F595E7958B
:1019800068CD81E090E0909369018093680134CE46
:101990003195219531091ACE20912C0530912D05D4
:1019A000A2ECBFEF53CF843009F074C1209126051B
:1019B00030912705ACECBFEF0E94FF392B013C01B1
:1019C0002FE530E0D5010E94163A460E571E681EDC
:1019D000791E77FE05C0BFE34B0E511C611C711CC4
:1019E000D6E07594679457944794DA95D1F7C70178
:1019F000880F991F9801281B390BC90120912C05CC
:101A000030912D05820F931FBC01640D751D91CF80
:101A1000843009F00AC120912C0530912D05A7ECE6
:101A2000BFEF0E94FF394B015C0122E730E014CF89
:101A30008091260590912705F701EE0FFF1FEA0F11
:101A4000FB1F60912C0570912D05E60FF71FF59592
:101A5000E7955C01AA0CBB1CAA0CBB1CAA0CBB1C06
:101A6000BC01660F771F6A0D7B1D680F791F580137
:101A7000AA0CBB1CC80182959295907F9827807F05
:101A80009827A80EB91EA60EB71EB594A794B594B4
:101A9000A794B594A794B594A794EA19FB09F09379
:101AA0002505E09324055FCEF701EE0FFF1FEA0F37
:101AB000FB1F80912C0590912D05E80FF91FF595DE
:101AC000E795F595E7958091260590912705880F74
:101AD000991F880F991F9595879595958795959549
:101AE000879595958795E81BF90BD9CFF701EE0FF0
:101AF000FF1FEA0FFB1F80912C0590912D05E80F29
:101B0000F91FF595E795F595E795A0902605B09016
:101B10002705AA0CBB1CAA0CBB1CAA0CBB1CC80129
:101B2000880F991F880F991FA80EB91EAECFE0919C
:101B30002C05F0912D05D601AA0FBB1FA20FB31FD4
:101B40008091300590913105A80FB91FB595A795E3
:101B5000B701660F771F660F771FC701880F991FA0
:101B6000880F991F880F991F860F971F8E0D9F1D35
:101B7000BF01660F771F660F771F660F771F8F01F4
:101B8000000F111F600F711F6E0F7F1F860F971FB1
:101B9000959587959595879595958795959587952D
:101BA000A81BB90BB0932B05A0932A05C9CDD6016C
:101BB000AA0FBB1FA20FB31F809130059091310572
:101BC000A80FB91FB595A79580912C0590912D056B
:101BD000880F991F880F991FDBCFD601AA0FBB1F53
:101BE000A20FB31F8091300590913105A80FB91F46
:101BF000B595A79580912C0590912D05880F991F7B
:101C0000880F991F880F991FB701660F771FBECFE6
:101C100020912C0530912D05A4ECBFEF0E94FF39D7
:101C20004B015C0121E730E017CE00912A051091AD
:101C30002B052ECEC701880F991FB801681B790BA1
:101C400080902C0590902D05860E971E97FE03C060
:101C500033E0830E911C95948794959487942091FA
:101C6000260530912705A5ECBFEF0E94FF392B0117
:101C70003C012AE630E0D5010E94163A460E571E76
:101C8000681E791E77FE4ACE5FE3450E511C611C2B
:101C9000711C44CE60912405709125054ECEC7017C
:101CA000880F991FB801681B790B80902C059090C4
:101CB0002D05860E971E97FE03C06FE0860E911CC1
:101CC0009594879495948794959487949594879404
:101CD0002091260530912705A2ECBFEF0E94FF3925
:101CE0002B013C0121E730E0D5010E94163A460E57
:101CF000571E681E791E77FE11CE7FE3470E511CDA
:101D0000611C711C0BCECF92DF92EF92FF926B01A0
:101D10007C010E944004C60ED71EE81EF91E0E94D8
:101D200040046C157D058E059F05C0F4A89581E1E2
:101D30000E943503019729F48CE00E943503892B1A
:101D400039F481E10E943503019771F0A895F9CF2C
:101D50008DE00E943503892B11F7F3CF80E0FF90CF
:101D6000EF90DF90CF90089581E0F9CFEAE7F0E0BF
:101D70008081806480838091100580938A000E9416
:101D8000D202809178009091790020916B0192505D
:101D900002C0880F991F2A95E2F70C945902CF933D
:101DA000DF9300D000D000D0CDB7DEB780917A00AD
:101DB000806480937A008091100480938A008091DF
:101DC00078009091790020916B0192502450330B50
:101DD00002C0880F991F2A95E2F780969E838D8313
:101DE0002FEF30E03C832B83FE018F3F9105B4F051
:101DF00033961A821982808191811816190614F07F
:101E0000FE01319680818093100426960FB6F894D7
:101E1000DEBF0FBECDBFDF91CF9108953596E9CFDC
:101E2000CF92DF92EF92FF92CF93DF9390918A004F
:101E300080911005981798F4CFE1D0E02197FE012A
:101E4000E25CFE4FE491F0E0EF5EFB4F8081809317
:101E50008A008CE390E00E94E003209779F780915C
:101E6000100580938A00E091B20184E0E89FF001C0
:101E70001124E45BFD4F2081318142815381A3E332
:101E8000B0E00E941D3A20EC32E140E050E00E94B8
:101E9000DA396901A0916601B091670140910E04A1
:101EA00050910F0496010E94FF39672F782F892FD8
:101EB000992787FD9A95640F751F70930F0460939F
:101EC0000E04A0910E04B0910F0440916601509150
:101ED00067010E94FF39672F782F892F992787FD87
:101EE0009A95461B570B509367014093660180916A
:101EF0000E0490910F044091B30128E130E0241BBF
:101F0000310947FD339502C0959587952A95E2F7EB
:101F1000805880938800DF91CF91FF90EF90DF9001
:101F2000CF90089508950F931F93CF93DF93ECEE16
:101F3000F3E02AE034E042815381419351932E171C
:101F40003F07C9F72091C205E091EA03F091EB0346
:101F5000222309F450C147E04E9F90014F9F300D5E
:101F60001124280F391F37FF02C0295F3F4FD3E0EC
:101F700035952795DA95E1F73093EB032093EA0343
:101F8000821B930B97FD01969595879590930B0473
:101F900080930A048091FA039091FB03FC01EE0FF9
:101FA000FF1FA091F403B091F503409100045091FC
:101FB0000104A41BB50B4091F8035091F903609103
:101FC000FC037091FD03461B570B2091EC033091ED
:101FD000ED036091080470910904261B370B220F52
:101FE000331F6091F0037091F103C0910404D0910C
:101FF00005046C1B7D0B13E0660F771F1A95E1F744
:10200000260F371FBD0104E0660F771F0A95E1F721
:10201000ED01CC0FDD1FCC0FDD1F6C0F7D1F6A0F94
:102020007B1F260F371FBA0104E0660F771F0A9542
:10203000E1F7260F371F66E0359527956A95E1F79A
:10204000240F351FBC0197FF03C07195619571097D
:10205000A90137FF02C04F5F5F4F5595479557FF66
:1020600003C0519541955109461757070CF0ECC034
:10207000C90137FD0796A3E095958795AA95E1F7E5
:1020800097FF03C0919581959109860F971F409105
:102090006C014817190608F0E9C040910B0644236B
:1020A00009F4E2C04EEF40930B0640916B0102C071
:1020B000880F991F4A95E2F78F3F910509F020F4A8
:1020C00040916B01483011F48FEF90E040910B0686
:1020D000442309F4D4C08F5E9B4FDC018C91809324
:1020E0001004E90137FF04C0CC27DD27C21BD30B46
:1020F0008F01F7FF04C0002711270E1B1F0B0C17C1
:102100001D070CF0BEC045EE4003C001419F900D7D
:102110001124BE010E94A4396A597F4F609FC001FB
:10212000619F900D709F900D1124BE010E94A439F3
:1021300086E990E0AC01461B570BBA01F7FF06C0D9
:102140008CE291E0DC01A61BB70BBD0137FF03C099
:102150007195619571098091E6039091E7039B0168
:10216000281B390B7093E7036093E60337FF02C027
:10217000285A3D4F8091F105882309F49EC0809133
:10218000F105833009F09CC086E990E0821793073F
:1021900014F58091F105882309F495C08091F1052B
:1021A000833009F093C086E990E0281B390B621B4D
:1021B000730B7093E7036093E6038091F10528E5C4
:1021C00032E0882341F08091F10526E930E0833048
:1021D00011F02CE231E08091CD01813009F079C01D
:1021E000C90123E0880F991F2A95E1F7DF91CF916C
:1021F0001F910F9108959C01220F331F4091E80316
:102200005091E903240F351F440F551F841B950B74
:10221000C3E0D0E0BE010E94A4397093E90360934B
:10222000E803CF01880F991F820F931FBE010E9400
:10223000A4397093EB036093EA03261B370B3093AA
:102240000B0420930A04A6CECF01F7FD079663E0A6
:10225000959587956A95E1F797FF03C091958195CC
:102260009109840F951F13CF4FEF1DCF40910B069F
:10227000442309F41ACF40910B06415014CF80E05B
:102280002ECF70E060E0309709F460CF45EEBE01DC
:102290004603C001479F900D1124B8010E94A43944
:1022A0006A597F4F6C9FC0016D9F900D7C9F900D70
:1022B0001124B8010E94A43941CF88E592E066CF8D
:1022C0008CE291E063CF88E592E06FCF8CE291E001
:1022D0006CCF48EF4203C001439F900D112486CF7D
:1022E000089590E080E00895F8949BB1907F90610C
:1022F000892B8BB984E090E00E94E0035C98809188
:102300006501882331F05B9A78948CE390E00C941B
:10231000E0035B98F9CFCF93C82F82958F700E940E
:1023200074118C2F8F70CF910C9474118CE00C94DD
:102330008B110F931F93CF93DF934091E103C091D3
:102340000201C41BDD0BE1E1F4E030E020E00FEF1F
:1023500010E0C901B8010E949039640F61932C0FFD
:102360003D1F85E0E131F807A1F7DF91CF911F9183
:102370000F9108958091C7018F5B80680E948B1137
:102380008EE00C948B118F929F92AF92BF92CF925E
:10239000DF92EF92FF92F090CB0580912105F81625
:1023A00009F47EC08091060681110FC00E9496112B
:1023B0008FEC0E948B1162E5F11001C060E287EBA7
:1023C00096E00E944C040E94BA11809011059090F2
:1023D0001205A0901305B09014058091CB058823B9
:1023E00009F494C00E94400460931D0570931E057B
:1023F00080931F05909320050E944004C09019050A
:10240000D0901A05E0901B05F0901C059B01AC01D3
:102410002C193D094E095F0969017A01C092150521
:10242000D0921605E0921705F092180580911806D3
:10243000823030F1D501C401880F991FAA1FBB1F3C
:102440008C159D05AE05BF05D8F40E94EE0260EB29
:1024500074E080E090E0A50194010E94B839CA01BF
:10246000B901A2E0660F771F881F991FAA95D1F7BF
:1024700023E030E040E050E00E94B8392093710141
:10248000A5E0B0E0A50194010E941D3AC616D7064A
:10249000E806F90628F081E0809318060E94EE0213
:1024A0000E944004C0901905D0901A05E0901B05C9
:1024B000F0901C059B01AC012C193D094E095F09E8
:1024C00069017A012091110530911205409113059F
:1024D00050911405A6E0B0E00E941D3A6C157D05F0
:1024E0008E059F0530F480911806823010F00E940E
:1024F000EE028091CB0580932105FF90EF90DF9055
:10250000CF90BF90AF909F908F9008950E9440040D
:102510006093190570931A0580931B0590931C0511
:102520000E944004C0901D05D0901E05E0901F053C
:10253000F09020059B01AC012C193D094E095F0963
:1025400069017A01D501C401880F991FAA1FBB1F19
:10255000C816D906EA06FB0620F089288A288B28A7
:10256000A1F4BC01CD016C0D7D1D8E1D9F1D23E0CE
:1025700030E040E050E00E94B839209311053093DC
:1025800012054093130550931405209111053091C5
:1025900012054091130550911405A5E0B0E00E948A
:1025A0001D3A6C157D058E059F0580F4C701B601A7
:1025B00023E030E040E050E00E94B839209311055C
:1025C0003093120540931305509314054091110563
:1025D000509112056091130570911405DB01CA0139
:1025E000B695A795979587958C159D05AE05BF0562
:1025F00008F056CF8091180690E0880F991F440F7D
:10260000551F661F771F21E04C155D056E057F0580
:1026100008F020E0822B8093180642CF9091C701EA
:10262000980F9093C7019091C701911103C098E052
:102630009093C7019091C701993018F091E0909361
:10264000C7019091C701943021F09091C701923059
:1026500029F49091C701890F8093C7010C94BA1196
:102660008DE00E94350381110AC08091F70591E049
:10267000811192E080910406892B809304068CE0FE
:102680000E94350381110AC08091F70592E0811103
:1026900091E080910406892B8093040608950F939E
:1026A0001F9380910D0681111BC08091C105882365
:1026B000B9F08AE196E00E9436050E94400400913C
:1026C000B9051091BA052091BB053091BC05601782
:1026D00071078207930710F4A895EFCF429A3A9AB0
:1026E0008091C100877E8093C100F8941F910F9163
:1026F0000895FF920F931F93CF93DF93C82FF62E69
:10270000072F142F0E943B0280EC0E94B3018C2FF4
:102710000E94B301CF2DD02F115020F089910E943B
:10272000B301FACFDF91CF911F910F91FF900C94DD
:10273000A701CF93DF931F92CDB7DEB7698341E046
:10274000BE016F5F7F4F0E9479130F90DF91CF9191
:102750000895CF93DF93C0917800D0917900809154
:102760007A00806480937A000E94D20280911004E3
:1027700080938A008091780090917900C80FD91FCA
:1027800080917A00806480937A0080910C0490910B
:102790000D040E94930F2091780030917900C20FB0
:1027A000D31F20917A00206420937A000E9459025E
:1027B000209178003091790090917A009064909304
:1027C0007A00CE01820F931F97FD0396959587950A
:1027D00095958795805E914090930D0480930C04AD
:1027E00080910B06813031F410928A006FEF83E004
:1027F0000E94991380910B068F3F31F46BEF83E0B9
:10280000DF91CF910C949913DF91CF910895CF93DD
:10281000DF93C82F809170008D7F8093700084E1DA
:1028200090E00E94E003F894C0930B06CC2309F4D7
:102830006AC080910001909101019093E003809320
:10284000DF031092070610920806109209061092F4
:102850000A068091CD01823009F44CC008F443C0CF
:10286000833009F44DC0843009F447C07894CC23F8
:1028700009F493C08091EC0580937C001092C00510
:102880008091CC01882361F08091CD01823041F4A8
:1028900081E0C11101C080E08093CB050E94C3118B
:1028A000CC2309F4C5C08091E20360E0882309F4D9
:1028B00078C088E00E945E038FEC0E948B1160E577
:1028C00087EB96E00E944C046FEF83E00E9499131F
:1028D00083E38093B30080917000826080937000E6
:1028E000DF91CF91089589EA93E19093BF0580939A
:1028F000BE05BCCF80E19FE0F8CF8FEC9EE0F5CF26
:1029000086EB9EE0F2CF8091CD01823091F58091EF
:10291000070690910806A0910906B0910A06892B36
:102920008A2B8B2B31F50E944004AB01BC018091B6
:10293000FC059091FD05A091FE05B091FF0523E0F7
:10294000880F991FAA1FBB1F2A95D1F7840F951FC7
:10295000A61FB71F8093070690930806A093090649
:10296000B0930A068091E303811114C087E098E0D8
:10297000BCCF8091DF039091E0039093010180939D
:102980000001109207061092080610920906109294
:102990000A06ECCF82E99FE0A8CF81E08093EF05A3
:1029A0006DCF88E00E945E038FEC0E948B1164E57E
:1029B00087EB96E00E944C048091CD01823079F53E
:1029C0008091E6059091E705A091E805B091E905B1
:1029D0009195819591090E9459020E94D2026BEF54
:1029E00083E00E94991380E8809388008091DE0341
:1029F000811109C08091CD01823029F08091800041
:102A00008F77809380008091800080628093800027
:102A10008091C105882309F45BCF3A9859CF809102
:102A2000F2059091F305892BD1F290E080E0D3CFAD
:102A300080918A008823A1F0CEE3D1E0FE01849149
:102A4000E82FF0E0EF5EFB4F808180938A008CE3FB
:102A500090E00E94E0032196F1E0CD35DF0771F7A9
:102A600080918000806880938000809180008F7DBD
:102A70008093800060E08AE00E945E0310928A00EA
:102A80006CEF83E00E9499138091070690910806ED
:102A9000A0910906B0910A06892B8A2B8B2B21F075
:102AA0008091E303811109C08091ED0561E08230DE
:102AB00009F460E088E00E945E038091F205909145
:102AC000F3050E9459020E94D2028FEC0E948B11E2
:102AD00080910D0662E5811166E587EB96E00E9424
:102AE0004C0480910D06811104C08091C1058111B3
:102AF0003A9A83E0EECE2F923F924F925F926F927E
:102B00007F928F929F92AF92BF92CF92DF92EF927D
:102B1000FF920F931F93CF93DF93CDB7DEB76497E8
:102B20000FB6F894DEBF0FBECDBF898B48015901A7
:102B3000FB8AEA8ACC8ACB01BA01A90198010E94DA
:102B4000B839290119012430310509F497C09B01D6
:102B5000AC0160E070E080E090E000E10E94D03ADB
:102B6000F9017501640100E010E098018986DA86B8
:102B7000AB86FC860D871E872F87388B5401670133
:102B8000E12CF12C00E010E09F010E94633AA32F9A
:102B9000F42FE52F422F5A2F6F2F7E2FC12CD12CCF
:102BA0007601E394CB01BA0127E0660F771F881FF7
:102BB000991F2A95D1F7A70196010E94B8394201C1
:102BC0009694982C882497948794B12CA12C02E099
:102BD000901AA108B108280D391D4A1D5B1DBC893A
:102BE000A0E1BA9FF0011124842E8E2AE4E02E1673
:102BF000310409F04CC0ECE01982CA828E2A8B8223
:102C00003C832D8394E0CC0CDD1CEE1CFF1C9A95BC
:102C1000D1F7E82AEE827F83688748E0BE016F5FC4
:102C20007F4F8989880F880F880F865D0E947913EE
:102C3000612F6295660F660F607CC988C7FE29C048
:102C400060688C2D885E0E94991364960FB6F89484
:102C5000DEBF0FBECDBFDF91CF911F910F91FF90CF
:102C6000EF90DF90CF90BF90AF909F908F907F902C
:102C70006F905F904F903F902F90089540E050E00C
:102C8000BA0111E0C12CD12C7601C3948BCFE0E0C6
:102C9000B3CF6F608989805F0E949913EA88FB88AF
:102CA000E49CA001E59C500DF49C500D112421E002
:102CB0001227212F30E0429FC001439F900D529F69
:102CC000900D11246AE570E00E94903989898B5536
:102CD000BACF2F923F924F925F926F927F928F92D4
:102CE0009F92AF92BF92CF92DF92EF92FF920F939B
:102CF0001F93CF93DF93CDB7DEB760970FB6F894ED
:102D0000DEBF0FBECDBF4B015C0149875A832983CB
:102D10003B8321E0821623EA920621EEA20621E1FE
:102D2000B206DCF023E030E0CA01B9010E9490391C
:102D300069877A8389819B81B9010E94903969836F
:102D40007B83C501B40123E030E040E050E00E9405
:102D5000DA3949015A01188611C060E2861661EA23
:102D6000960667E0A606B104B4F747E0880C991C04
:102D7000AA1CBB1C4A95D1F777E0788780E88816B3
:102D800083EC980689ECA80681E0B806CCF4609143
:102D9000CF067091D0068091D1069091D206A0EE18
:102DA0008A16A7E69A06A5E3AA06B1040CF445C163
:102DB00024E0660F771F881F991F2A95D1F749C114
:102DC0006091CF067091D0068091D1069091D20685
:102DD00035E0660F771F881F991F3A95D1F7A50137
:102DE00094010E94B8391901B1E08B16BBE39B0630
:102DF000B8E5AB06B8E0BB060CF031C120FE03C05D
:102E00002FEF221A320AD101A5019401285833412B
:102E1000410951090E941D3A6B017C012091CF06A6
:102E20003091D0064091D1065091D2064090CF0605
:102E30005090D0066090D1067090D2064C825D8290
:102E40006E827F820E94B83929013A019101A0E186
:102E5000B7E20E94073A6C0D7D1D8E1D9F1D2C81CF
:102E60003D814E815F810E94B83942165306640647
:102E7000750619F022E0220E311CD101A501940142
:102E80000E941D3A2B013C010091CF061091D00603
:102E90002091D1063091D206C12CF12CE12CBC013D
:102EA000A2018EEF0E947B15C884E984FA80950107
:102EB0008401B301A20180E00E947B15C884E980EF
:102EC000FB809501B301A20181E00E947B15C884BB
:102ED000F12CE12C9501B301A20182E00E947B1547
:102EE0006985062E000C770B8981681B710987FDA7
:102EF00073957D836C83C301B201A50194010E9487
:102F0000B839AC81BD81A29FC001A39F900DB29F33
:102F1000900D11246AE570E00E94A4398091D306D7
:102F20009091D4068617970741F07093D40660936A
:102F3000D30660EA81EB0E9499136CEF83E00E9454
:102F400099138092BC069092BD06A092BE06B092E4
:102F5000BF062092C0062091CF063091D006409146
:102F6000D1065091D206C301B2010E94B839245053
:102F7000310941095E4F3695322F22273795279523
:102F80003093C2062093C1062091CF063091D0061F
:102F90004091D1065091D206C090CF06D090D00675
:102FA000E090D106F090D206C301B2010E94B83978
:102FB0002B013C01812C912C540169875A868B8707
:102FC0007C868D869E86AF86B88A9B01AC0160E0C8
:102FD00070E080E090E007E10E94D03A2A833983D4
:102FE00056016701E12CF12C00E010E02A813981C3
:102FF0000E94633AC901DA018093C3069093C40624
:10300000A093C506B093C60660960FB6F894DEBFCF
:103010000FBECDBFDF91CF911F910F91FF90EF9029
:10302000DF90CF90BF90AF909F908F907F906F90E8
:103030005F904F903F902F9008952091CF06309150
:10304000D0064091D1065091D206A7E0B0E00E9490
:103050001D3AA50194010E94B8391901CFCE94E020
:10306000292E312CCBCECF936FEF83E00E949913A2
:1030700060E188E10E94991360E089E10E94991360
:10308000C0E160E88C2F0E949913CF5FC831C9F767
:1030900060E08BEB0E94991360E085E90E94991330
:1030A00062ED87EBCF910C94991380916501882391
:1030B00081F05B9A8091C10088618093C10080910A
:1030C0000D06811104C08091C10581114298789448
:1030D00008955B98EFCFCF93C82F0E944F138BB109
:1030E000807F80618C2B8BB984E090E00E94E003AC
:1030F0005C980E9455188CE390E0CF910C94E0030B
:10310000CF93C82F82958F700E946B188C2F8F7071
:10311000CF910C946B18CF93C62F0E944F138BB195
:10312000807F80619C2F92959F70892B8BB96BB1AA
:10313000607F6061CF706C2B3C9800005C986BB92D
:103140003C9A3C9800005C983C9A0E9455188CE38D
:1031500090E00E94E00381E090E0CF9108950F930A
:103160001F93CF93DF938C01D0E0C0E0F801EC0F08
:10317000FD1F6491662341F087EB96E00E948B1857
:10318000892B11F02196F2CFCE01DF91CF911F91C3
:103190000F9108958EE591E00C94AF180F931F9353
:1031A000CF93C62F8A01813009F042C080E80E9487
:1031B0008B116C2F62956F70CF706A3031F461E3C0
:1031C00087EB96E00E944C0460E0605D87EB96E040
:1031D0000E944C046EE287EB96E00E944C04CA30D9
:1031E00030F0CA5061E387EB96E00E944C0460E344
:1031F0006C0F87EB96E00E944C0460E287EB96E050
:103200000E944C04C8010E94AF180E94CA180E9474
:10321000CA1880EC0E948B11809106068230A8F0BB
:103220006EE387EB96E0CF911F910F910C944C04C5
:1032300080EC0E948B11C8010E94AF188FE690E0CD
:10324000CF911F910F910C94AF18CF911F910F91B7
:10325000089580E80E948B1188E690E00E94AF18E4
:1032600061E087EB96E00E944C040E94CA180C941F
:10327000CA180F931F93CF93DF9390E080E00E94D2
:103280006905D0E0C0E001E010E0C8010C2E02C0EA
:10329000880F991F0A94E2F78095909581600E94AB
:1032A00069056EE170E080E090E00E940D0490E01E
:1032B00080E00E9469052196C031D10531F7DF9188
:1032C000CF911F910F910895FB0101900020E9F724
:1032D0003197AF01461B570BDC01ED91FC91028049
:1032E000F381E02D09948F929F92AF92BF92EF925B
:1032F000FF920F931F93CF93DF93CDB7DEB7A197C4
:103300000FB6F894DEBF0FBECDBF7C01FA01CB0132
:1033100019A2223008F42AE08E010F5D1F4F822E81
:10332000912CB12CA12CBF01A50194010E94B839A8
:10333000F901CA016A300CF5605DD8016E938D0108
:10334000232B242B252B79F790E080E0109721F098
:10335000BD01C7010E946419A1960FB6F894DEBFA3
:103360000FBECDBFDF91CF911F910F91FF90EF90D6
:10337000BF90AF909F908F900895695CDECFCF9201
:10338000DF92EF92FF920F931F93CF93DF9377FF1C
:103390001DC06A017B01EC016DE20E944C048C01AE
:1033A00044275527BA014C195D096E097F092AE0A7
:1033B000CE010E947319800F911FDF91CF911F9151
:1033C0000F91FF90EF90DF90CF9008952AE0DF916A
:1033D000CF911F910F91FF90EF90DF90CF900C94C1
:1033E0007319AB01770F660B770B0C94BF19EF9233
:1033F000FF920F931F93CF937C018B01C42F80EC1E
:103400000E948B1161E287EB96E00E944C0461E21E
:1034100087EB96E00E944C04C7010E94AF18CC23B2
:1034200079F06DE387EB96E00E944C04B80187EBDE
:1034300096E00E94F1196C2F87EB96E00E944C04F5
:103440000E94CA186CED75E080E090E00E940D04C7
:10345000A895CF911F910F91FF90EF90089561155E
:10346000710511F00C94641990E080E00895EF92DA
:10347000FF920F931F93CF93DF93CDB7DEB7A09743
:103480000FB6F894DEBF0FBECDBF6091B50170914D
:10349000B6018091B7019091B80120E03AEC4AE979
:1034A0005BE30E94B839122F032F20E432E44FE08F
:1034B00050E00E94B839F22EE32E28EE33E040E0CF
:1034C00050E00E94B8397F936F933F932F93EF9210
:1034D000FF920F931F9386E792E09F938F938E0145
:1034E0000F5F1F4F1F930F930E94FF3AB8018AE1AD
:1034F00096E00E942F1A69E872E0C8010E94E93A3A
:10350000B8018AE196E00E942F1A61E972E0C801D1
:103510000E94E93AB8018AE196E00E942F1A609170
:10352000CD0170E06F5F7F4F8AE196E00E94F11954
:1035300066E972E0C8010E94E93AB8018AE196E0C2
:103540000E942F1A0FB6F894DEBF0FBECDBFA09613
:103550000FB6F894DEBF0FBECDBFDF91CF911F91A4
:103560000F91FF90EF900895CF92DF92EF92FF922C
:103570000F931F93CF93DF93CDB7DEB7A0970FB60E
:10358000F894DEBF0FBECDBF8AE196E00E94B10481
:10359000892B09F494C00E944004665F7F4F8F4FCF
:1035A0009F4F6093B9057093BA058093BB059093C4
:1035B000BC058AE196E00E948F04E091B80591E095
:1035C0009E0F9093B805F0E0E856FA4F80838B3356
:1035D00009F0BFC1E091B805F0E0E856FA4F10825B
:1035E0001092B8058091C105811105C081E08093DA
:1035F000C1051092CB0180919805863409F08BC0EB
:1036000080919905813409F064C180919A058B33CA
:1036100009F064C08091C105882309F44AC0609113
:10362000B5017091B6018091B7019091B80120E089
:103630003AEC4AE95BE30E94B839122F032F20E4E9
:1036400032E44FE050E00E94B8396B017C013F93B7
:103650002F930F931F938FE992E09F938F938E0187
:103660000F5F1F4F1F930F930E94FF3AB8018AE12B
:1036700096E00E942F1AC701B60128EE33E040E021
:1036800050E00E94B8397F936F933F932F938AEA5B
:1036900092E09F938F931F930F930E94FF3AB8017C
:1036A0008AE196E00E942F1A0FB6F894DEBF0FBE93
:1036B000CDBF6AE070E080E090E00E940D04A0962B
:1036C0000FB6F894DEBF0FBECDBFDF91CF911F9133
:1036D0000F91FF90EF90DF90CF9008958091A50516
:1036E0008B3399F54BE050E06AE975E0CE01019625
:1036F0000E94F03A1C86CE0101960E940C34609321
:10370000B5017093B6018093B7019093B80181E041
:103710008093C601CECF8934D9F48091990586343F
:1037200061F480919A058B3381F48091C1058823DF
:1037300009F4BFCF0E94371ABCCF843431F4809192
:103740009A0564EB72E08B33F9F060EF72E01CC015
:10375000803569F4809199058335B9F780919A0590
:103760006BEB72E08B3381F0813379F7A2CF813438
:1037700099F480919905893409F079C080919A056E
:103780008B3339F460EC72E08AE196E00E942F1AE4
:1037900090CF8033D1F6F6CF8D34C1F58091990565
:1037A000843499F680919A058B33A9F465EC72E024
:1037B0008AE196E00E942F1A6091CD0170E06F5F60
:1037C0007F4F8AE196E00E94F1196BE38AE196E06F
:1037D0000E944C046ECF90919B059B3309F0B5CFAE
:1037E00081538093CD018091CD019091F005092FF7
:1037F000017010E0F801EF53FE4F808381E0809369
:10380000C6011092D4061092D30653CF8235C1F46C
:1038100080919905883509F044C080919A058B33D1
:1038200009F093CF80E00E940714109207061092CF
:1038300008061092090610920A0668EC72E0A4CFFE
:10384000843501F580919905883509F07ECF809106
:103850009A058B3321F481E00E9407142ACF80332C
:10386000D1F38133C1F3823309F06FCFF4CF8734C2
:1038700009F06BCF80919A056DEC72E0803309F00E
:1038800064CF82CF8835D9F580919905843509F0C8
:103890005CCF80919A0562ED72E0813309F055CFDB
:1038A00073CF843541F480919A0567ED72E08133DE
:1038B00009F04BCF69CF8334B9F480919A058B33EB
:1038C00009F043CF1092F3051092F2056CED72E00F
:1038D0005BCF8C3409F039CF80919A0560EE72E0AD
:1038E000803309F032CF50CF833509F02ECF80914D
:1038F0009A0565EE72E08B3309F027CF45CF863508
:1039000009F023CF80919905883509F01ECF809169
:103910009A058B3309F419CF282F082E000C330B8E
:103920003F938F938AEE92E09F938F938E010F5F68
:103930001F4F1F930F930E94FF3AB8018AE196E050
:103940000E942F1A0F900F900F900F900F900F90D2
:10395000B0CE8091B805803208F4B1CE63EF72E04A
:103960008AE196E00E942F1A1092B805A8CE0E9414
:10397000BD0481110C94B41A0895CF93DF93282FBE
:10398000CB016091E4037091E503C42FD0E02330B4
:1039900079F0243089F04091E4035091E503C40F9D
:1039A000D51FD093E503C093E403DF91CF91089531
:1039B000AE010E94CF36EFCFAE010E94E736EBCFCB
:1039C0004F925F926F927F928F929F92AF92BF922F
:1039D000CF92DF92EF92FF920F931F93CF93DF93DB
:1039E000CDB7DEB7FB01823008F067C09081409010
:1039F0001906042C000C550866087708490E511C5E
:103A0000611C711C4C145D046E047F047CF5C08243
:103A10006901F42E5F01E82E109219060E9496119A
:103A2000A6016F2D8E2D0E94CE18F50101151105EE
:103A3000B1F5408150E070E060E02AE087EB96E06D
:103A40000E9473190E94CA18DF91CF911F910F91A4
:103A5000FF90EF90DF90CF90BF90AF909F908F90AE
:103A60007F906F905F904F900C94CA189081C09097
:103A700019060C2C000CDD08EE08FF08C90ED11C3D
:103A8000E11CF11C8C149D04AE04BF0414F480826C
:103A9000BFCF508190911906950F9083B9CF808147
:103AA00090E0880F991F080F191FF801608171813C
:103AB00087EB96E00E942F1AC5CF41E0DF91CF91AE
:103AC0001F910F91FF90EF90DF90CF90BF90AF903C
:103AD0009F908F907F906F905F904F900C94BD1C43
:103AE0000F931F93CF93DF93EB01823008F058C000
:103AF000088119812A813B8190911906492F990FDC
:103B0000550B660B770B400F511F621F731F77FF1A
:103B10001FC0188219821A821B82182F1092190650
:103B20000E94961150E040E060E0812F0E94CE1884
:103B3000488159816A817B8187EB96E00E94BF1999
:103B40000E94CA18DF91CF911F910F910C94CA184F
:103B5000088119812A813B8190911906492F990F7B
:103B6000550B660B770B400F511F621F731F141606
:103B70001506160617066CF2088119812A813B8109
:103B800090911906492F990F550B660B770B400F33
:103B9000511F621F731F488359836A837B83BDCF84
:103BA00044E0DF91CF911F910F910C94BD1C6F9257
:103BB0007F928F929F92AF92BF92CF92DF92EF92BD
:103BC000FF920F931F93CF93DF9300D000D000D0CC
:103BD000CDB7DEB7782E662EEDEFBE2EB80E00E51F
:103BE00011E0EE24E394F12CACE2CA2ED12C21E0BA
:103BF0002B1570F01093E5030093E403AA24A3941B
:103C0000A61430F46A2D85E00E94D71DA394F8CF46
:103C10008FEF68121BC011E0612F872D0E94D71D06
:103C20001F5F1233C9F7812C912C5401C12CD12C68
:103C3000760110E000E030E020E040E068EC75E064
:103C4000872D0E94E01C82E3682EAFC092E3961598
:103C500008F461C3E62DF0E0E05DF14E0C94F93913
:103C60008321631EC31EEB1EFB1E0B1F1B1F2A1F7F
:103C7000911FA01FB01FC01FD01F8B21E01F8B21E1
:103C80008B21EF1FFE1F582068207720862095206B
:103C90008B218B218B218B218B218B218B218B21C4
:103CA0008B218B218B21A420B920CA203F218B217D
:103CB0008B218B218B218B218B214F215E21642134
:103CC00067217521131E21E0271508F455C0809146
:103CD000B30140911906082E000C990BAA0BBB0BDF
:103CE000042E000C550B660B770B840F951FA61F37
:103CF000B71F8F3F9F4FAF4FBF4F04F58FEF80939C
:103D0000B301109219060E94961147E351E061E158
:103D1000872D0E94CE188091B30187FD05C06BE20C
:103D200087EB96E00E944C046091B301062E000CD4
:103D3000770B87EB96E00E94F119C1C08091B30127
:103D400040911906082E000C990BAA0BBB0B042EF0
:103D5000000C550B660B770B840F951FA61FB71F22
:103D60004197A105B10514F080E1C9CF8091B3015D
:103D700090911906890FC3CF41E063EB71E0872D65
:103D80000E94BD1C12C074E0872E912CA12CB12C76
:103D9000C12CD12C760103E711E022E331E042E1AE
:103DA0006DEC71E0872D0E94E01C862D26960FB6E3
:103DB000F894DEBF0FBECDBFDF91CF911F910F9161
:103DC000FF90EF90DF90CF90BF90AF909F908F903B
:103DD0007F906F90089567E0862E912CA12CB12CD6
:103DE000C12CD12C760105E511E028E231E043E158
:103DF00061EF75E0D7CF5AE0852E912CA12CB12C24
:103E0000C12CD12C76010FE311E023E231E044E133
:103E100064EB71E0C7CF49E0842E912CA12CB12C2A
:103E2000C12CD12C76010BE211E029E131E045E112
:103E300067EC71E0B7CF812C912C54018394C12C95
:103E4000D12C760107E211E020E131E046E160EF9C
:103E500075E0A8CF81E0871508F45FC08091F20576
:103E60009091F30540911906092E000CAA0BBB0B8B
:103E7000042E000C550B660B770B840F951FA61FA5
:103E8000B71FB7FF21C01092F3051092F2051092F0
:103E900019060E9496114CE051E067E1872D0E94BF
:103EA000CE18E091F205F091F305EE0FFF1FED5DE6
:103EB000FE4F6081718187EB96E00E942F1A0E946D
:103EC000CA180E94CA1871CF8091F2059091F3052B
:103ED00040911906092E000CAA0BBB0B042E000CF6
:103EE000550B660B770B840F951FA61FB71F029704
:103EF000A105B1053CF081E090E09093F30580933B
:103F0000F205C5CF8091F2059091F3052091190635
:103F1000820F911D27FD9A95F0CF42E062EF75E088
:103F20002ECF812C912C54018394C12CD12C76015D
:103F300003E211E028E031E048E16AE671E032CFC7
:103F400088E0882E912CA12CB12CC12CD12C76018B
:103F500010E000E025E031E049E165EC71E022CFBE
:103F600007E0802E912CA12CB12CC12CD12C7601F4
:103F700003E111E021E031E04AE16DEE75E012CF9E
:103F800010E1812E912CA12CB12CC12CD12C7601C9
:103F900010E000E02CEF30E04BE162E771E002CF8F
:103FA000B4E08B2E912CA12CB12CC12CD12C7601FC
:103FB00009E011E024EF30E04CE16BEC71E0F2CE6F
:103FC000812C912C54018394C12CD12C760103E2D5
:103FD00011E029EE30E041E26CEC71E0E3CE812C9F
:103FE000912C54018394C12CD12C760103E211E071
:103FF00020EE30E044E263EE73E0D4CE91E097151A
:1040000008F452C08091B0019091B101409119061D
:10401000092E000CAA0BBB0B042E000C550B660BD3
:10402000770B840F951FA61FB71F181619061A06BF
:104030001B06ACF081E090E09093B1018093B00159
:10404000109219060E94961144ED50E065E2872D0A
:104050000E94CE186091B0017091B1016ACE80913A
:10406000B0019091B10140911906092E000CAA0BE4
:10407000BB0B042E000C550B660B770B840F951FA2
:10408000A61FB71FCD97A105B1051CF08CE390E0EA
:10409000D3CF8091B0019091B10120911906820F88
:1040A000911D27FD9A95C8CF42E060EB71E067CE85
:1040B000E2E08E2E912CA12CB12CC12CD12C7601BA
:1040C00003E011E029EC30E046E26AEC71E06ACEF0
:1040D000812C912C54018394C12CD12C760103E2C4
:1040E00011E02EEB30E047E267EF75E05BCE812C0C
:1040F000912C54018394C12CD12C760103E211E060
:1041000025EB30E048E262EE73E04CCE812C912C3E
:1041100054018394C12CD12C760103E211E021EBF0
:1041200030E041E36DE076E03DCE812C912C5401EE
:104130008A94C12CD12C760110E000E026EA30E010
:1041400042E36CE671E02ECE80900201882D815012
:10415000990B4C01092C000CAA08BB08C12CD12CCE
:10416000760110E000E02AE930E041E861EE73E01A
:1041700019CEC090E103D12CF12CE12C812C912C93
:1041800054018A9410E000E02EE830E042E862E05A
:1041900071E008CE91E0971508F46DC08091CF06CC
:1041A0009091D006A091D106B091D2064091190607
:1041B000042E000C550B660B770B840F951FA61F62
:1041C000B71F80389F49A54DB10524F580E89FE9C8
:1041D000A5EDB0E08093CF069093D006A093D106D2
:1041E000B093D206109219060E94961145E850E04D
:1041F00063E8872D0E94CE184091CF065091D006DB
:104200006091D1067091D2062AE087EB96E00E9479
:10421000731955CE8091CF069091D006A091D1060A
:10422000B091D20640911906042E000C550B660B76
:10423000770B840F951FA61FB71F81309F43AB4A92
:10424000B1402CF080E09FE3ABEAB1E0C3CF8091B6
:10425000CF069091D006A091D106B091D2064091A0
:104260001906042E000C550B660B770B840F951F57
:10427000A61FB71FAFCF44E06FEC76E080CD24EBF4
:10428000822E912CA12CB12CC12CD12C760110E0C6
:1042900000E02CE730E044E86EEA71E083CD812C49
:1042A000912C54018394C12CD12C760103E211E0AE
:1042B00022E730E041EA65E671E074CD69EB71E038
:1042C000872D0E94701D71CD6DEB71E0F9CF812CAF
:1042D000912C5401C12CD12C760110E000E030E08B
:1042E00020E040E061EC71E05DCD812C912C540127
:1042F000C12CD12C760110E000E030E020E040E05D
:1043000062EC71E04FCD109206060E94291981E0FF
:104310008093C6014ACD82E0781247CD9CE26916AF
:1043200009F443CD809119061816B4F08FEF9FEF72
:10433000860D911D9E838D83DC82CB82FE018C973E
:1043400074F03396FA82E98280819181029714F4A5
:10435000FE01319660804BCC81E090E0E9CF35964C
:10436000F1CF0C94DF361F920F920FB60F921124EB
:104370002F933F938F939F93AF93BF9380910F069B
:1043800090911006A0911106B091120630910E0680
:1043900023E0230F2D3768F126E8230F0296A11D95
:1043A000B11D20930E0680930F0690931006A093E4
:1043B0001106B09312068091130690911406A091F5
:1043C0001506B09116060196A11DB11D8093130626
:1043D00090931406A0931506B0931606BF91AF9163
:1043E0009F918F913F912F910F900FBE0F901F9033
:1043F00018950196A11DB11DD4CF1F920F920FB633
:104400000F9211242F933F934F935F936F937F935A
:104410008F939F93AF93BF93EF93FF938AE196E0BF
:104420000E94C704FF91EF91BF91AF919F918F912F
:104430007F916F915F914F913F912F910F900FBEA0
:104440000F901F9018951F920F920FB60F92112484
:104450002F938F939F93EF93FF93E0912A06F09110
:104460002B068081E0913006F091310682FD1BC061
:104470009081809133068F5F8F732091340682176D
:1044800041F0E0913306F0E0E65EF94F958F8093BE
:104490003306FF91EF919F918F912F910F900FBE57
:1044A0000F901F9018958081F4CF1F920F920FB636
:1044B0000F9211242F933F934F935F936F937F93AA
:1044C0008F939F93AF93BF93EF93FF93E091BE05BC
:1044D000F091BF050995FF91EF91BF91AF919F9129
:1044E0008F917F916F915F914F913F912F910F909D
:1044F0000FBE0F901F9018951F920F920FB60F923C
:1045000011240F931F932F933F934F935F936F93B8
:104510007F938F939F93AF93BF93CF93EF93FF932B
:104520000091BD0580E1089F8001112487E00E9471
:104530003503C82F86E00E943503CC0F802B8C2BCF
:104540008093BD058332B1F08233D1F0FF91EF91BA
:10455000CF91BF91AF919F918F917F916F915F911B
:104560004F913F912F911F910F910F900FBE0F9080
:104570001F901895809119068F5F80931906E6CFDA
:10458000809119068150F9CFEAE1F6E01382128298
:1045900088EE93E0A0E0B0E084839583A683B783A0
:1045A0008CE592E09183808385EC90E09587848709
:1045B00084EC90E09787868780EC90E0918B808BED
:1045C00081EC90E0938B828B82EC90E0958B848BD6
:1045D00086EC90E0978B868B118E128E138E148E44
:1045E00088B18F7C88B93D98000000000000000071
:1045F0003C983C9AE7EBF6E0138212828EE692E05A
:104600009183808380EC9CEFABE9B1E08093CF068F
:104610009093D006A093D106B093D2060895CF937D
:10462000DF93CDB7DEB76E970FB6F894DEBF0FBE3F
:10463000CDBF789484B5836084BD85B5836085BD26
:1046400080916E00816080936E0082E08093810093
:1046500080918100816080938100809180008160E1
:10466000809380008091B10084608093B10080913C
:10467000B00081608093B00087E880937A00109248
:10468000C10060E08AE00E945E030E94331814BEFD
:1046900088E198E20FB6F894A895809360000FBE69
:1046A0009093600080E480937C00109268001092E8
:1046B0006B0010926C0010926D0062E086E00E9428
:1046C0008C0362E087E00E948C0380916D00806C17
:1046D00080936D008091680084608093680087E01B
:1046E0000E943503F82E86E00E943503FF0CF82A5D
:1046F000F092BD05789460E08BE00E945E0361E07B
:1047000088E00E945E0360E08AE00E945E0360E051
:1047100089E00E945E0361E089E00E948C0361E011
:104720008BE00E948C0361E088E00E948C0361E0D2
:104730008AE00E948C0360E081E10E948C0362E0C9
:104740008DE00E948C0360E08CE00E948C0360E0AE
:104750008EE00E945E0360E08FE00E945E0360E0F6
:104760008EE00E948C0360E08FE00E948C0364E680
:1047700070E080E090E00E940D048AB18F618AB9F8
:104780003C9A80E593EC0E94E0033C9A5C9883E3BA
:104790000E94801884E991E10E94E00383E30E9473
:1047A000801884E991E10E94E00383E30E9480186D
:1047B00086E990E00E94E00382E30E94801888E28C
:1047C0000E9480188CE00E94801881E00E9480186E
:1047D00063E070E080E090E00E940D0486E00E94BB
:1047E00080181092CA051092C9055E0129E0A20E38
:1047F000B11C8091C9059091CA050897A9F16091F3
:10480000C9057091CA05E3E0660F771FEA95E1F7E5
:1048100067547E4F48E050E0CE0101960E94333449
:104820008091C9059091CA058F5F38E0839FC001D0
:104830001124887380640E948018CE0101967C0147
:10484000D7016D917D0187EB96E00E948B18EA14E9
:10485000FB04B1F78091C9059091CA050196909328
:10486000CA058093C905C5CF0E94291987E80E940F
:10487000801886EB91E00E94AF1880EB91E00E94D7
:10488000AF180E94CA186FEF83E00E94991360E08E
:104890008AE00E945E0360E088E00E945E0364E6B6
:1048A00070E080E090E00E940D048FE00E94C80359
:1048B000BC01990F880B990B0E9452389B01AC01E7
:1048C0000E94373720E030E040EA50E40E94073988
:1048D00020E030E040E85AE30E9407394B015C01D8
:1048E00061E088E00E945E032AE939E949E950E481
:1048F000C501B4010E940239181654F426E636E6C2
:1049000046EA50E4C501B4010E94A33787FD09C0FF
:10491000C501B4010E941A3846E58BEA91E00E9475
:10492000F71983E10E94C803BC01990F880B990B0A
:104930000E94523820E030E040EA50E40E940739FB
:1049400020E030E040E85AE30E9407394B015C0167
:104950002DEC3CEC4CE450E40E940239181654F45F
:1049600023E333E343E750E4C501B4010E94A337D6
:1049700087FD09C0C501B4010E941A3846E586EAE0
:1049800091E00E94F71986E00E94C80380917C00A4
:10499000886080937C0061E070E080E090E00E949D
:1049A0000D0480917A00806480937A0080917A006F
:1049B00086FDFCCF609178007091790090E080E0F6
:1049C0000E9450389B01AC016AE979EA8CE894E4D2
:1049D0000E94A8374B015C0123E333E343E950E431
:1049E0000E940239181654F426E636E646EA50E4E8
:1049F000C501B4010E94A33787FD09C0C501B401F8
:104A00000E941A3846E580EA91E00E94F7193A9828
:104A10006AE070E080E090E00E940D0480E10E9476
:104A2000C803BC01990F880B990B0E94523820E0F3
:104A300030E040EA50E40E94073920E030E040E8EE
:104A40005AE30E9407394B015C0126E636E646EE42
:104A50005FE30E940239181654F42DEC3CEC4CE450
:104A600050E4C501B4010E94A33787FD09C0C50108
:104A7000B4010E941A3846E58AE991E00E94F719CC
:104A80008EE00E94C803BC01990F880B990B0E940D
:104A9000523820E030E040EA50E40E94073920E03C
:104AA00030E040E85AE30E9407394B015C0126E6FA
:104AB00036E646EE5FE30E940239181654F42DECF8
:104AC0003CEC4CE450E4C501B4010E94A33787FDDF
:104AD00009C0C501B4010E941A3846E584E991E095
:104AE0000E94F7198FE00E94C803BC01990F880B40
:104AF000990B0E94523820E030E040EA50E40E94D6
:104B0000073920E030E040E85AE30E9407394B01C2
:104B10005C0126E636E646EE5FE30E94023918168F
:104B200054F42DEC3CEC4CE450E4C501B4010E947B
:104B3000A33787FD09C0C501B4010E941A3846E5B4
:104B40008EE891E00E94F719A8950E94E803109260
:104B5000CA051092C9058091C9059091CA05883E81
:104B6000934061F00E94D2028091C9059091CA05DC
:104B700001969093CA058093C905EDCF0E94E80382
:104B80006091B5017091B6018091B7019091B80123
:104B90002AE530E050E040E00E946916A8951092A6
:104BA000CA051092C905B12CA12C8091C90590911C
:104BB000CA05883E934009F468C08091C905909168
:104BC000CA050E9459020E94D20274E0E72EF12C1D
:104BD0000E943B0280EC0E94B3018AE18E0D0E948C
:104BE000B3010E94A7010E943B0281EC0E94B30125
:104BF00080E80E944202982E80E40E944202982A95
:104C000080E20E944202982A80E10E944202982A91
:104C100088E00E944202982A84E00E944202982A78
:104C200082E00E944202982A81E00E944202982A71
:104C30003C9800000000000000003D9800000000CB
:104C4000000000003C983D9A0000000000000000B9
:104C50000E94A701F701E454F94F8385891519F0E3
:104C6000FFEFAF1ABF0A2FEFE21AF20A38E0E3169D
:104C7000F10409F0ADCF8091C9059091CA05019664
:104C80009093CA058093C90590CFA895A114B1044B
:104C900031F040E2B50186E891E00E94F71984E026
:104CA00080936B01E091B20164E0E69FF001112472
:104CB000E45BFD4F80819181A281B3818093E60501
:104CC0009093E705A093E805B093E90562E383E0DC
:104CD0000E94D71D8091C805883709F429C188E74B
:104CE0008093C8056FEF84E00E94D71D80EC0E947E
:104CF000801885E791E00E94AF1864EF71E080E0D2
:104D000090E00E940D04A8951092D4061092D3064C
:104D1000FF24F394F092C6018091B4018093AF0117
:104D200010920D0682E08093C5018093CB01109212
:104D3000F3051092F2058091F005082F017010E044
:104D4000000F111F000F111FF801E754FE4F808163
:104D50009181A281B3818093B5019093B601A09314
:104D6000B701B093B8018091F00580FBCC24C0F866
:104D7000D12CF601EF53FE4F80818093CD010E942C
:104D800099110E942919F092EF051092C00587E051
:104D900098E09093BF058093BE0524E63EED45E084
:104DA00050E061E082E00E94870580917C00809362
:104DB000EC058091ED0561E0813009F460E029E9BE
:104DC00037E741E050E080E00E94870580917C0059
:104DD0008093EA058091ED0561E0813009F460E09F
:104DE00029E937E741E050E081E00E9487058091A2
:104DF0007C008093EB0510928000109281008091DE
:104E00008000826A80938000809181008961809314
:104E10008100109287008CEC8093860010928900AC
:104E20001092880010928B0010928A008091B60038
:104E30008F7D8093B6001092B0001092B100109256
:104E4000B2008091B00082608093B0008091B10088
:104E500084608093B10080917000826080937000C4
:104E600083E08093B300809180008F7D80938000E9
:104E700060E08AE00E945E03E0912A06F0912B0632
:104E800082E08083E0912606F09127061082E0916F
:104E90002806F091290680E4808310923206E09182
:104EA0002E06F0912F0686E08083E0912C06F0918B
:104EB0002D06808188698083E0912C06F0912D0673
:104EC00080818F7D80838091C10581110E94371A76
:104ED0001092050680E180930406B090B101A09085
:104EE000B0011B2D110F110BC12ED12EE12EF12E71
:104EF000012F20EB34E040E050E060E070E080E023
:104F000090E00E94633A2093FC053093FD054093A6
:104F1000FE055093FF058DE00E943503811146C0C8
:104F200040E070E060E087E691E00E94F719F3CF7F
:104F300081E10E9435038111D2CE6FEF83E00E94A0
:104F4000D71D83E891E00E94B1218093C70580912D
:104F5000C705823010F01092C70584E891E00E94E6
:104F6000B1218093C60585E891E00E94B12180932C
:104F7000C50586E891E00E94B1218093C40587E8C9
:104F800091E00E94B1218093C3058091C7058823D9
:104F900009F4BACE81E08093CD018093F10510929F
:104FA0006A011092C5018093C205AECE8091CD01F9
:104FB000823051F48091CA01823031F08CE00E943D
:104FC0003503882309F4ACCF5AE0452E512C612CCF
:104FD000712C80910D06882309F448C08091CD0181
:104FE000882329F08091CD01813009F03FC0809164
:104FF0000C068111FAC0F89482E880937A008091BF
:105000006C01803220F060E088E00E945E039091A5
:105010007C0080917A0084FFFCCF8091EC05809326
:105020007C0080917A00806480937A0080917A007D
:1050300084FFFCCF90937C0080916C01803220F043
:1050400061E088E00E945E03809178009091790091
:10505000789492500E94930F80910B06882331F030
:1050600081E080930C068FEF0E9407148091CD01A0
:10507000823009F07CC08091CC01882309F477C08C
:1050800080910B06811173C08091070690910806EC
:10509000A0910906B0910A06892B8A2B8B2B09F067
:1050A00066C08090D2059090D305A090D405B090B2
:1050B000D505C0906D01D0906E01E0906F01F09029
:1050C0007001C501B4016C197D098E099F0920E0AA
:1050D00031E040E050E00E94DA39C20ED31EE41EF7
:1050E000F51EC0926D01D0926E01E0926F01F092B8
:1050F0007001C701B60122E030E040E050E00E94BC
:10510000DA3911E0281539054A055B050CF010E085
:105110001093D1058091D005181751F00E944004DA
:105120006093CC057093CD058093CE059093CF0509
:105130000E9440048090CC059090CD05A090CE05B3
:10514000B090CF05681979098A099B096131710509
:105150008105910508F458C08091CB051813109370
:10516000CB050E94C3118091D1058093D005809119
:10517000060681112AC080911706882309F459C0B8
:1051800087E0EFEDF1E0DE01119601900D928A9536
:10519000E1F7E091CB0181E090E08C0F9D1F8E0F35
:1051A000911DFC0110818CE00E948018109217065E
:1051B00080E80E948018612F70E062537E4F87EB79
:1051C00096E00E942F1A0E94BA111091CD01123060
:1051D00029F48091CA01823009F08AC18091CD0101
:1051E000823009F4E2C21DE0E6C280910B06811113
:1051F0003DCF0E94071410920C0660E270E080E040
:1052000090E00E940D0432CFC701B60124E630E0E1
:1052100040E050E00E94DA39C20ED31EE41EF51EB3
:10522000C0926D01D0926E01E0926F01F092700118
:1052300098CF8091070690910806A0910906B09139
:105240000A06892B8A2B8B2B09F0BFCF80910C0685
:105250008111BBCF8091DE059091DF05A091E00523
:10526000B091E1052091DA053091DB054091DC0534
:105270005091DD0582179307A407B50740F02091F0
:10528000DE053091DF054091E0055091E105209366
:10529000DA053093DB054093DC055093DD05809102
:1052A000CB01882309F491CF8091D8059091D9053D
:1052B00001969093D9058093D8059770892B09F0B2
:1052C00084CF211531054105510509F4F6C0C12CE3
:1052D000D12C76012A3031054105510560F0CA0113
:1052E000B901A30192010E94B8399FEFC91AD90AE6
:1052F000E90AF90AEFCF10917201215031094109F1
:105300005109220F331F2A513E4FD901ED91FC91D3
:10531000A8EEB3E0A70196010E941D3A6E0F7F1F11
:10532000811D911D22E330E040E050E00E94DA3917
:10533000B6E01B9FC0011124092E000CAA0BBB0B69
:10534000820F931FA41FB51F9C01AD01295B31097A
:10535000410951093093D7052093D6050E94961133
:105360008091CB01813079F489E80E948B116091A2
:10537000D6057091D70587EB96E00E94F11989EF69
:1053800091E00E94AF188091CB01823019F5809195
:10539000D6059091D705813CEFEF9E070CF094C0A5
:1053A00081589F4F66E070E00E94A439162F8EE866
:1053B0000E948B111A3028F463E587EB96E00E9477
:1053C0004C04412F50E070E060E02AE087EB96E06B
:1053D0000E9473198091CB018330E9F58091D60545
:1053E0009091D705813CFFEF9F070CF076C0815864
:1053F0009F4F66E070E00E94A439FE01319674EF81
:10540000760F8F0125E030E042E050E0862F062E37
:10541000000C990B01969E878D873C872B87DE01B8
:1054200005970CF063C01D965A8749878D919C9112
:105430001197039714F4DE0119968C9181936350B0
:105440007613E4CF1D828CE80E948B11B80187EBA4
:1054500096E00E942F1A8091CB018430B9F48EE837
:105460000E948B118091CD01823051F440917101E5
:1054700050E070E060E02AE087EB96E00E9473194C
:1054800068EF72E087EB96E00E942F1A0E94BA1133
:105490008091DA059091DB05A091DC05B091DD05E6
:1054A000B695A795979587958093DA059093DB0538
:1054B000A093DC05B093DD0588CE81E89FEF909343
:1054C000D7058093D6054ACF875B1AE0612F0E94EB
:1054D0008439819F102D11246ACF875B2AE0622FC7
:1054E0000E948439829F602D112487CF1B969CCF08
:1054F00080910506823009F4E4C008F088C0882352
:1055000009F4A9C0813009F4C3C0C0900706D09047
:105510000806E0900906F0900A06C114D104E104DF
:10552000F10451F00E944004C616D706E806F906B9
:1055300018F480E00E94071481E10E943503813055
:1055400009F477C48091F60582FD05C08091F605C7
:10555000857009F462C18091F605807F90911906EB
:10556000992309F4D9C19CE0892B8093F605809199
:10557000F605823209F463C308F0F6C1863108F0FB
:10558000CDC1843108F099C2813109F49CC2809167
:105590000606811107C09091EE05809106069817C6
:1055A00009F486C51091190680910606813009F02C
:1055B00046C4112309F445C4909119068091F5055C
:1055C000890F8093F5058091F5058D320CF034C478
:1055D0008091F505082E000C990B1816190614F089
:1055E00081E090E08093F5056091F50582E00E94EE
:1055F000D71D8093F505109219068091060660E08C
:1056000081116091F50581E00E94D71D20C484308E
:1056100009F492C008F46EC0853009F076CF0E947C
:1056200030130E944004C090F805D090F905E09036
:10563000FA05F090FB05C616D706E806F90608F04D
:1056400064CF8091040682FFAAC08A7F80930406FB
:10565000109305065ACF8CE00E94350381110EC0CD
:105660001092000610920106109202061092030694
:105670000E94301381E08093050647CF8DE00E94A1
:105680003503882369F380910406837049F73DCF81
:105690008091040680FFDCCF8460809304068091B3
:1056A000FC059091FD05A091FE05B091FF0580934A
:1056B000F8059093F905A093FA05B093FB0583E0F4
:1056C000DACF8091040681FF6DC02091FC053091F6
:1056D000FD054091FE055091FF05A3E0B0E00E945A
:1056E0001D3A6093F8057093F9058093FA0590933D
:1056F000FB05E5CF81E00E9407140E944004009161
:10570000F8051091F9052091FA053091FB05DC01AF
:10571000CB01800F911FA21FB31F8093F8059093B8
:10572000F905A093FA05B093FB05809104068C7FE0
:105730008093040684E09FCF0E9440040091F80506
:105740001091F9052091FA053091FB05061717070E
:1057500028073907E8F480E00E9407140E944004FB
:105760000091FC051091FD052091FE053091FF058B
:10577000DC01CB01800F911FA21FB31F8093F8059E
:105780009093F905A093FA05B093FB0585E073CFDC
:105790008091040684FFB9CE0E943013B6CE8D7F6F
:1057A0008093040610920506B0CE8091F7051CE0A8
:1057B000882309F418CD80910C068111A6CE812F83
:1057C0000E9435038111A1CE1092000610920106AD
:1057D000109202061092030681E00E940714A89519
:1057E0008091CD018230A1F46AE070E080E090E029
:1057F0000E940D0481E10E943503813029F4812F3C
:105800000E943503882359F380E00E9407147DCE5F
:1058100064E670E080E090E0EBCFF89480917A004D
:1058200084FFFCCFE0907A00F0907C0080917A00B9
:10583000877F80937A0080917A00876080937A00D6
:1058400080E480937C0061E070E080E090E00E9462
:105850000D0481E10E94C8038C01E0927A00F0926D
:105860007C00789481E08093F6050E9440046B01EF
:105870007C0181E10E943503813071F00E94400477
:105880006C197D098E099F096D3271408105910562
:1058900078F184E08093F6056AE070E080E090E0C3
:1058A0000E940D048091F605843099F00E94400416
:1058B0006C197D098E099F09643F7140810591052E
:1058C00040F481E10E9435038130A1F082E08093B1
:1058D000F60581E10E943503813089F08091190637
:1058E000882321F08091F605843031F0A895F1CF1E
:1058F000A895BFCFA895D6CF8CE08093F60590E110
:105900000C3563E0160728F090E2073D134008F0DD
:1059100090E38091F60528CE95E026CE8C3109F4EF
:10592000D0C0813209F033CE80910606811171C159
:105930001091CD018091F2059091F305892B09F426
:10594000FEC01092F3051092F2052091CD0181E086
:1059500090E0223011F090E080E088539E4FDC010F
:105960008C918093C70151C1823309F450C270F405
:10597000843209F4C1C1813309F009CE8091060651
:10598000811128C281E00E940E1301CE843309F4F4
:1059900049C28C3309F0FBCD81E10E943503882395
:1059A00009F433C1A895809119068823A9F361E011
:1059B00080E00E94D71D8091B30187FF35C28AE045
:1059C0008093B30161E084E00E94D71D80EC0E94C7
:1059D0008B118EEF91E00E94AF180E94CA1887EFDA
:1059E00084BF0FB6F894A895809160008861809379
:1059F0006000109260000FBE809170008D7F8093D8
:105A0000700061E070E080E090E00E940D04109270
:105A1000880010928A0080917A00877F80937A00B4
:105A200080917A00876080937A0080E480937C0084
:105A30000E9433186CED75E080E090E00E940D0448
:105A40001092680010926B0010926C0010926D0022
:105A500010926E0010926F00109270001092600011
:105A600080916C00886080936C00809168008260F7
:105A7000809368008FEF8093640088E00E948B1110
:105A80005B9883B7817F846083BF83B7816083BF66
:105A9000789485B7806685BF8F7D85BF889583B7ED
:105AA0008E7F83BF88E198E00FB6F894A895809325
:105AB00060000FBE90936000FFCF82E080930606E7
:105AC00066CD81E0FBCF80910606813041F4809164
:105AD000F5058D3124F08091F5058332A4F0809195
