:100000000C9491010C94B9010C94B9010C94B901B0
:100010000C94B9010C94A4230C94B9010C947D2385
:100020000C94B9010C94B9010C94B9010C94B90168
:100030000C94B9010C94B9010C94B9010C94B90158
:100040000C94DB220C94B9010C944B230C942523C3
:100050000C94B9010C94B9010C94B9010C94B90138
:100060000C94B9010C94B901FFFEFCF9F5EFE9E23B
:10007000D9D0C6BBB0A4988B7F73665A4E43382E36
:10008000251C150F0905024541374C4A59003A20F5
:10009000004261636B6C6967687400495120506865
:1000A000617365005265662066726571005041207B
:1000B00042696173206D617800504120426961732B
:1000C000206D696E004351204D6573736167650053
:1000D000435120496E74657276616C004654382035
:1000E0004D6F6465005458204472697665004E6F08
:1000F000697365204761746500564F5800507261FE
:100100006374696365004B6579657220537761702C
:10011000004B65796572204D6F6465004B657965AC
:10012000722053706565640053656D692051534BAF
:10013000004357204465636F64657200532D6D65FD
:10014000746572004154543200415454004E5200C0
:10015000414743005249540056464F204D6F646555
:100160000054756E6520526174650042616E6400D2
:1001700046696C746572204257004D6F6465005685
:100180006F6C756D6500202020202020202000430A
:100190006865636B205054542F6B6579005265730A
:1001A00065742073657474696E67732E2E00424502
:1001B000525F693263005661646331005661646363
:1001C00030005661646332005661766363005633D3
:1001D0002E330056352E3000312E30337800205229
:1001E0000008040A050A04080000000000000000DE
:1001F00000101010101010101010101414141414FB
:100200001410101515151515150C121E12120000DC
:10021000001C121C121C0000000000000000000066
:100220000064426D2000506F7765722D6F66662006
:100230003733203A2D290052495420007E2045545E
:1002400049414E4D53555257444B474F4856462A05
:100250004C2A504A425843595A512A2A353453336A
:100260002A2A2A322A2A2B2A2A2A4A31363D2F2A9A
:100270002A2A482A372A472A382A39302A2A2A2A73
:100280002A2A2A2A2A2A2A2A3F5F2A2A2A2A222A8C
:100290002A2E2A2A2A2A402A2A2A272A2A2D2A2AA4
:1002A0002A2A2A2A2A2A3B212A292A2A2A2A2A2CA5
:1002B0002A2A2A2A3A2A2A2A2A0000000000240090
:1002C00027002A0000000000250028002B00000065
:1002D000000023002600290004040404040404048C
:1002E00002020202020203030303030302020301E8
:1002F00002040810204080010204081020010204BA
:1003000008102040804000000009000302000004A3
:100310000508000000000000000000000000EF23BE
:10032000593511241FBECFEFD8E0DEBFCDBF13E09B
:10033000A0E0B1E0E6E0F9E702C005900D92AA3D29
:10034000B107D9F726E0AAEDB3E001C01D92AF3D99
:10035000B207E1F711E0C0E9D1E004C02197FE0146
:100360000E944D3BCF38D107C9F70E943A240C9424
:10037000763C0C94000087FF76C03C983D980000C6
:100380000000000000003D9A000000000000000096
:1003900086FF6BC03C983D98000000000000000004
:1003A0003D9A000000000000000085FF60C03C98FE
:1003B0003D9800000000000000003D9A0000000091
:1003C0000000000084FF55C03C983D9800000000EC
:1003D000000000003D9A000000000000000083FFC4
:1003E0004AC03C983D9800000000000000003D9A83
:1003F000000000000000000082FF3FC03C983D98D4
:1004000000000000000000003D9A00000000000015
:10041000000081FF34C03C983D98000000000000BF
:1004200000003D9A000000000000000080FF29C08D
:100430003C983D9800000000000000003D9A00003C
:100440000000000000003C980000000000000000D8
:100450003D9800000000000000003D9A00000000F0
:100460000000000008953C9A89CF3C9A94CF3C9AB2
:100470009FCF3C9AAACF3C9AB5CF3C9AC0CF3C9A2A
:10048000CBCF3C9AD6CF2F923F924F925F926F92F2
:100490007F928F929F92AF92BF92CF92DF92EF9214
:1004A000FF920F931F93CF93DF9300D000D0CDB76F
:1004B000DEB72091CD063091CE064091CF06509107
:1004C000D00629833A834B835C832091CA06C0906F
:1004D000D906D090DA06E090DB06F090DC0630E03A
:1004E000DC010E946A3B4B015C01BB0C8808982C24
:1004F00054019B01AC01682D782D882D982D07E1C2
:100500000E94243C56016701E12CF12C00E010E030
:100510000E94863B49015A0149805A806B807C8049
:10052000480C591C6A1C7B1C8091CB069091CC0610
:10053000860D971D8093D50680E18093D606852D84
:1005400099278093D7064092D8060F900F900F906E
:100550000F90DF91CF911F910F91FF90EF90DF905F
:10056000CF90BF90AF909F908F907F906F905F9053
:100570004F903F902F900895843081F028F482307E
:10058000E9F08330F9F00895883071F0893091F006
:100590008530B9F4809180008F7D03C08091800008
:1005A0008F778093800008958091B0008F7780933B
:1005B000B00008958091B0008F7DF9CF84B58F771A
:1005C00084BD089584B58F7DFBCFCF93DF93282F13
:1005D00030E0F901EA5FFC4F8491F901E151FD4FF0
:1005E000D491F901E852FD4FC491CC23A1F08111BF
:1005F0000E94BC02EC2FF0E0EE0FFF1FE253FD4F14
:10060000A591B491EC91ED2381E090E009F480E0B4
:10061000DF91CF91089580E090E0FACF1F93CF93C0
:10062000DF93282F30E0F901EA5FFC4F8491F90154
:10063000E151FD4FD491F901E852FD4FC491CC2313
:10064000A9F0162F81110E94BC02EC2FF0E0EE0FF2
:10065000FF1FEC53FD4FA591B4918FB7F894EC9127
:10066000111108C0D095DE23DC938FBFDF91CF91AD
:100670001F910895DE2BF8CFCF93DF9390E0FC011C
:10068000E151FD4F249188529D4FFC0184918823B4
:10069000C9F090E0880F991FFC01E654FD4FA59129
:1006A000B491FC01EC53FD4FC591D49161110DC083
:1006B0009FB7F8948C91209582238C93888128236E
:1006C00028839FBFDF91CF910895623051F49FB787
:1006D000F8943C91822F809583238C93E8812E2B74
:1006E000EFCF8FB7F894EC912E2B2C938FBFEACFDE
:1006F000883020F08D3008F48DE08E508770806453
:1007000080937C0080917A00806480937A0080914D
:100710007A0086FDFCCF8091780090917900089551
:10072000880F991F880F991F05970197F1F7089572
:100730003FB7F89480911F0690912006A091210662
:10074000B091220626B5A89B05C02F3F19F001964F
:10075000A11DB11D3FBFBA2FA92F982F8827BC011B
:10076000CD01620F711D811D911D42E0660F771F43
:10077000881F991F4A95D1F708958F929F92AF9243
:10078000BF92CF92DF92EF92FF926B017C010E94A9
:1007900098034B015C01C114D104E104F104B9F0E8
:1007A0000E949803681979098A099B09683E734079
:1007B0008105910580F321E0C21AD108E108F10812
:1007C00088EE880E83E0981EA11CB11CE4CFFF9038
:1007D000EF90DF90CF90BF90AF909F908F90089553
:1007E0002FB7F89460911B0670911C0680911D062E
:1007F00090911E062FBF0895DC01ED91FC910190B0
:10080000F081E02D0994AF92BF92CF92DF92EF92E8
:10081000FF920F931F93CF93DF936C017B018B01AA
:10082000040F151FEB015E01AE18BF08C017D107FA
:1008300059F06991D601ED91FC910190F081E02D84
:10084000C6010995892B79F7C501DF91CF911F91D9
:100850000F91FF90EF90DF90CF90BF90AF900895F1
:10086000FC01538D448D252F30E0842F90E0821BB6
:10087000930B541710F0CF96089501970895FC013B
:10088000918D828D981761F0A28DAE0FBF2FB11D93
:100890005D968C91928D9F5F9F73928F90E00895EB
:1008A0008FEF9FEF0895FC01918D828D981731F0A5
:1008B000828DE80FF11D858D90E008958FEF9FEFF9
:1008C0000895FC01918D228D892F90E0805C9F4FCF
:1008D000821B91098F739927089584E296E00E9404
:1008E000610421E0892B09F420E0822F0895FC01A6
:1008F000A48DA80FB92FB11DA35ABF4F2C91848D81
:1009000090E001968F739927848FA689B7892C93DD
:10091000A089B1898C91837080648C93938D848D30
:10092000981306C00288F389E02D80818F7D808333
:100930000895EF92FF920F931F93CF93DF93EC01F3
:1009400081E0888F9B8D8C8D98131AC0E889F98976
:10095000808185FF15C09FB7F894EE89FF89608379
:10096000E889F98980818370806480839FBF81E0FA
:1009700090E0DF91CF911F910F91FF90EF9008953C
:10098000F62E0B8D10E00F5F1F4F0F731127E02E17
:100990008C8D8E110CC00FB607FCFACFE889F9894F
:1009A000808185FFF5CFCE010E947704F1CFEB8DDA
:1009B000EC0FFD2FF11DE35AFF4FF0829FB7F89423
:1009C0000B8FEA89FB8980818062CFCFCF93DF9341
:1009D000EC01888D8823B9F0AA89BB89E889F98957
:1009E0008C9185FD03C0808186FD0DC00FB607FC8C
:1009F000F7CF8C9185FFF2CF808185FFEDCFCE01BF
:100A00000E947704E9CFDF91CF9108953C9A3D98F9
:100A100000000000000000003C9887B18F7C87B97F
:100A20003C9A08953D9A00000000000000003C98A8
:100A30000895CF93DF930E94120580EC0E94BB01C2
:100A40008EE10E94BB01C6ECD6E08F850E94BB01FF
:100A500088890E94BB0189890E94BB018A890E9402
:100A6000BB01DF91CF910C940605CF93DF93D82F74
:100A7000C62F0E94120580E40E94BB018D2F0E94A8
:100A8000BB018C2F0E94BB01DF91CF910C94060516
:100A9000CF93DF93D82FC92F6FEF87E00E943505E2
:100AA0006FEF86E00E9435056D2F82E00E943505CC
:100AB00060E086E00E9435056C2F83E00E943505DA
:100AC00060E087E0DF91CF910C94350590917E0036
:100AD000E1E0F0E0082E01C0EE0F0A94EAF79E2B49
:100AE00090937E0010927A0010927B0010927C000E
:100AF00090917C00892B80937C0080917C0090E415
:100B0000611190EC892B80937C0061EB77EC82E1A2
:100B100090E00E940C3B80E0369527952115310529
:100B200011F08F5FF9CF90917A008770892B8093B5
:100B30007A0080917A00806880937A000895089501
:100B400090E080E008950F931F9380911906811122
:100B50001BC08091C9058823B9F084E296E00E9409
:100B6000E6040E94F0030091C1051091C205209196
:100B7000C3053091C405601771078207930710F40D
:100B8000A895EFCF429A3A9A8091C100877E8093D0
:100B9000C100F8941F910F910895FF920F931F9336
:100BA000CF93DF93C82FF62E072F142F0E94120524
:100BB00080EC0E94BB018C2F0E94BB01CF2DD02F57
:100BC000115020F089910E94BB01FACFDF91CF91A3
:100BD0001F910F91FF900C940605CF93DF931F9206
:100BE000CDB7DEB7698341E0BE016F5F7F4F0E94E2
:100BF000CD050F90DF91CF9108952F923F924F92A4
:100C00005F926F927F928F929F92AF92BF92CF929C
:100C1000DF92EF92FF920F931F93CF93DF93CDB7A5
:100C2000DEB764970FB6F894DEBF0FBECDBF898BD9
:100C300048015901FB8AEA8ACC8ACB01BA01A90191
:100C400098010E940C3B290119012430310509F457
:100C500097C09B01AC0160E070E080E090E000E1B3
:100C60000E94243CF9017501640100E010E0980144
:100C70008986DA86AB86FC860D871E872F87388BA0
:100C800054016701E12CF12C00E010E09F010E946B
:100C9000B73BA32FF42FE52F422F5A2F6F2F7E2F14
:100CA000C12CD12C7601E394CB01BA0127E0660F69
:100CB000771F881F991F2A95D1F7A70196010E94D7
:100CC0000C3B42019694982C882497948794B12CDD
:100CD000A12C02E0901AA108B108280D391D4A1D67
:100CE0005B1DBC89A0E1BA9FF0011124842E8E2ADD
:100CF000E4E02E16310409F04CC0ECE01982CA82FF
:100D00008E2A8B823C832D8394E0CC0CDD1CEE1C60
:100D1000FF1C9A95D1F7E82AEE827F83688748E026
:100D2000BE016F5F7F4F8989880F880F880F865DAE
:100D30000E94CD05612F6295660F660F607CC988A1
:100D4000C7FE29C060688C2D885E0E94ED05649600
:100D50000FB6F894DEBF0FBECDBFDF91CF911F91CC
:100D60000F91FF90EF90DF90CF90BF90AF909F904A
:100D70008F907F906F905F904F903F902F9008954D
:100D800040E050E0BA0111E0C12CD12C7601C394AF
:100D90008BCFE0E0B3CF6F608989805F0E94ED0563
:100DA000EA88FB88E49CA001E59C500DF49C500D62
:100DB000112421E01227212F30E0429FC001439FE0
:100DC000900D529F900D11246AE570E00E94E43A64
:100DD00089898B55BACF2F923F924F925F926F9233
:100DE0007F928F929F92AF92BF92CF92DF92EF92BB
:100DF000FF920F931F93CF93DF93CDB7DEB760972A
:100E00000FB6F894DEBF0FBECDBF4B015C01498722
:100E10005A8329833B8321E0821623EA920621EE3E
:100E2000A20621E1B206DCF023E030E0CA01B901FC
:100E30000E94E43A69877A8389819B81B9010E9483
:100E4000E43A69837B83C501B40123E030E040E0EC
:100E500050E00E942E3B49015A01188611C060E201
:100E6000861661EA960667E0A606B104B4F747E085
:100E7000880C991CAA1CBB1C4A95D1F777E078878F
:100E800080E8881683EC980689ECA80681E0B8060D
:100E9000CCF46091D9067091DA068091DB069091CE
:100EA000DC06A0EE8A16A7E69A06A5E3AA06B10418
:100EB0000CF445C124E0660F771F881F991F2A95FF
:100EC000D1F749C16091D9067091DA068091DB06AD
:100ED0009091DC0635E0660F771F881F991F3A95C1
:100EE000D1F7A50194010E940C3B1901B1E08B16CA
:100EF000BBE39B06B8E5AB06B8E0BB060CF031C11E
:100F000020FE03C02FEF221A320AD101A50194015D
:100F100028583341410951090E94713B6B017C0102
:100F20002091D9063091DA064091DB065091DC061B
:100F30004090D9065090DA066090DB067090DC068F
:100F40004C825D826E827F820E940C3B29013A01B5
:100F50009101A0E1B7E20E945B3B6C0D7D1D8E1DEF
:100F60009F1D2C813D814E815F810E940C3B42166A
:100F700053066406750619F022E0220E311CD101D9
:100F8000A50194010E94713B2B013C010091D906FF
:100F90001091DA062091DB063091DC06C12CF12C91
:100FA000E12CBC01A2018EEF0E94FD05C884E984FA
:100FB000FA8095018401B301A20180E00E94FD0541
:100FC000C884E980FB809501B301A20181E00E9401
:100FD000FD05C884F12CE12C9501B301A20182E04A
:100FE0000E94FD056985062E000C770B8981681B20
:100FF000710987FD73957D836C83C301B201A501DF
:1010000094010E940C3BAC81BD81A29FC001A39FB3
:10101000900DB29F900D11246AE570E00E94F83A9D
:101020008091DD069091DE068617970741F0709358
:10103000DE066093DD0660EA81EB0E94ED056CEF51
:1010400083E00E94ED058092C6069092C706A092AA
:10105000C806B092C9062092CA062091D9063091DE
:10106000DA064091DB065091DC06C301B2010E9412
:101070000C3B2450310941095E4F3695322F22270F
:10108000379527953093CC062093CB062091D9062F
:101090003091DA064091DB065091DC06C090D9060B
:1010A000D090DA06E090DB06F090DC06C301B201D6
:1010B0000E940C3B2B013C01812C912C540169872F
:1010C0005A868B877C868D869E86AF86B88A9B01E2
:1010D000AC0160E070E080E090E007E10E94243C19
:1010E0002A83398356016701E12CF12C00E010E0DE
:1010F0002A8139810E94B73BC901DA018093CD066C
:101100009093CE06A093CF06B093D00660960FB60C
:10111000F894DEBF0FBECDBFDF91CF911F910F912D
:10112000FF90EF90DF90CF90BF90AF909F908F9007
:101130007F906F905F904F903F902F9008952091F7
:10114000D9063091DA064091DB065091DC06A7E023
:10115000B0E00E94713BA50194010E940C3B190173
:10116000CFCE94E0292E312CCBCECF936FEF83E0FE
:101170000E94ED0560E188E10E94ED0560E089E1F3
:101180000E94ED05C0E160E88C2F0E94ED05CF5F65
:10119000C831C9F760E08BEB0E94ED0560E085E99E
:1011A0000E94ED0562ED87EBCF910C94ED053D9823
:1011B000000000000000000021E63AEE359903C06F
:1011C00021503109D9F796B190713D9A0000000085
:1011D00000000000911101C080E008958091690134
:1011E000882381F05B9A8091C10088618093C1005F
:1011F00080911906811104C08091C905811142981E
:10120000789408955B98EFCFCF93C82F0E94A305E1
:101210008BB1807F80618C2B8BB984E090E00E9441
:1012200090035C980E94EE088CE390E0CF910C94C0
:101230009003CF93C82F82958F700E9404098C2F42
:101240008F70CF910C9404098CE00C9419090F93C2
:101250001F93CF93DF934091C005C0916801C41BD9
:10126000DD0BE0ECF4E030E020E00FEF10E0C9012E
:10127000B8010E94E43A640F61932C0F3D1F85E092
:10128000E03CF807A1F7DF91CF911F910F910895EE
:101290008091C8018F5B80680E9419098EE00C94D0
:1012A00019099091C801980F9093C8019091C801B5
:1012B000911103C098E09093C8019091C8019930B2
:1012C00018F091E09093C8019091C801943021F0FA
:1012D0009091C801923029F49091C801890F8093B0
:1012E000C8010C944809CF93DF9300D000D000D000
:1012F000CDB7DEB780917A00806480937A008091C8
:101300000E0480938A00809178009091790020915A
:101310006B0192502450330B02C0880F991F2A95FD
:10132000E2F780969E838D832FEF30E03C832B8302
:10133000FE018F3F9105B4F033961A8219828081A5
:1013400091811816190614F0FE0131968081809360
:101350000E0426960FB6F894DEBF0FBECDBFDF9108
:10136000CF9108953596E9CFEAE7F0E08081806477
:1013700080838091BF0580938A000E941905809127
:1013800078009091790020916B01925002C0880FF3
:10139000991F2A95E2F70C94430208958091F20573
:1013A00080937C00EAE7F0E0808180648083209174
:1013B0007800309179002F5F314085E19CE0909377
:1013C000C7058093C605809195049091960440913D
:1013D000930450919404480F591FCA01880F991F14
:1013E000840F951F820F931F409191045091920496
:1013F000840F951F959587953093960420939504B7
:1014000020918F043091900440918D0450918E046E
:10141000420F531F9A01220F331F240F351F280F2D
:10142000391F40918B0450918C04240F351F309349
:101430008A04209389049093900480938F040895E4
:101440008091F20580937C00EAE7F0E0808180647F
:101450008083809178009091790023EA3AE030937C
:10146000C7052093C60520919304309194043093CE
:101470009204209391048F5F914090939404809301
:10148000930408958091F20580937C00EAE7F0E0F0
:1014900080818064808320917800309179002F5F73
:1014A000314084E19BE09093C7058093C60580910D
:1014B0008D0490918E0490938C0480938B04809182
:1014C0009504909196044091930450919404480F90
:1014D000591FCA01880F991F840F951F820F931FF0
:1014E0004091910450919204840F951F9595879592
:1014F00090938E0480938D043093960420939504EA
:1015000008958091F20580937C00EAE7F0E0808105
:1015100080648083809178009091790024EA3BE098
:101520003093C7052093C60520919304309194040D
:1015300030939204209391048F5F91409093940490
:101540008093930408958091F30580937C008091AB
:101550007A00806480937A0020917800309179003D
:101560002F5F31408091830490918404820F931FF8
:1015700097FD019695958795309384042093830475
:101580002091F705211140C040917F0450918004C3
:1015900060917D0470917E04640F751F9B013595E9
:1015A0002795359527953595279535952795359523
:1015B000279520583F4F2F3F310509F07CF537FD27
:1015C00031C070937E0460937D04609181047091BA
:1015D0008204460F571F5093800440937F0420934A
:1015E00088002EEC39E03093C7052093C605209182
:1015F0008704309188043093860420938504909367
:1016000088048093870408951092820410928104C4
:1016100020E870E060E050E040E0D3CF2FEF30E012
:1016200037FFCFCF20E0CDCF8091F30580937C00B2
:1016300080917A00806480937A0040917800509184
:1016400079004F5F51408091830490918404840F0E
:10165000951F97FD01969C0135952795509384041D
:10166000409383048091F70581115EC040917F040F
:101670005091800460917D0470917E04640F751F09
:10168000CB01959587959595879595958795959592
:1016900087959595879580589F4F8F3F910511F0BD
:1016A0000CF04CC097FD4EC070937E0460937D0497
:1016B0006091810470918204460F571F50938004FB
:1016C00040937F048093880080E29AE09093C7055E
:1016D0008093C60580917B0490917C0490937A045A
:1016E00080937904809177049091780440918704E5
:1016F00050918804480F591FCA01880F991F840F01
:10170000951F820F931F4091850450918604840F8A
:10171000951F9595879590937C0480937B043093D7
:101720007804209377040895109282041092810423
:1017300080E870E060E050E040E0B6CF8FEF90E0EE
:1017400097FFB2CF80E0B0CF8091F30580937C000B
:1017500080917A00806480937A00209178003091A3
:1017600079002F5F31408091830490918404820F2F
:10177000931F97FD01969595879530938404209348
:1017800083042091F705211140C040917F045091BE
:10179000800460917D0470917E04640F751F9B012D
:1017A0003595279535952795359527953595279521
:1017B0003595279520583F4F2F3F310509F07CF58F
:1017C00037FD31C070937E0460937D046091810485
:1017D00070918204460F571F5093800440937F04FA
:1017E0002093880022E43AE03093C7052093C60591
:1017F00020918704309188043093860420938504D7
:101800009093880480938704089510928204109224
:10181000810420E870E060E050E040E0D3CF2FEF9B
:1018200030E037FFCFCF20E0CDCF4F925F926F9265
:101830007F928F929F92AF92BF92CF92DF92EF9260
:10184000FF920F931F93CF93DF938091F3058093C3
:101850007C0080917A00806480937A0040917800C7
:10186000509179004F5F514080918304909184049E
:10187000840F951F97FD01969C01359527955093F0
:101880008404409383048091F7058111DDC2E091C7
:101890007F04F091800460917D0470917E046E0F4E
:1018A0007F1FCB01959587959595879595958795FC
:1018B000959587959595879580589F4F8F3F910572
:1018C00011F00CF077C397FDB1C370937E04609361
:1018D0007D0440918104509182044E0F5F1F50930C
:1018E000800440937F048093880081E89AE090937D
:1018F000C7058093C6058091770490917804409144
:10190000870450918804480F591FCA01880F991FF6
:10191000840F951F820F931F409185045091860478
:10192000840F951F959587953093780420937704BD
:10193000609075047090760420917B0430917C0453
:10194000260D371D3901660C771C620E731E680E5A
:10195000791E2091790430917A04620E731E90935F
:101960007604809375046091890470918A04809153
:10197000F705811154C280917304909174042091F1
:10198000710430917204AC01421B530B9A014091D7
:101990006F0450917004D901A41BB50BAD01509395
:1019A00082044093810440916E04542F4F5F409312
:1019B0006E04511107C0789480917304909174045F
:1019C00040916E043093700420936F0490937204DE
:1019D000809371048091720102C0759567958A9514
:1019E000E2F7C0905604D0905704A0906A04B090DB
:1019F0006B04E0905A04F0905B04A0916604B091EF
:101A00006704F701EA1BFB0B00915E0410915F0471
:101A1000C0916204D091630498012C1B3D0B80900F
:101A2000520490905304861A970AC6018A199B099A
:101A3000880F991F880F991F880E991E97FE03C063
:101A40005FE3850E911C082C892C000C881C9908DA
:101A5000000C881C991CCF01820F931F97FD0796DD
:101A6000959587959595879595958795880E991E57
:101A7000CF01880F991F880F991F8E0F9F1F821B00
:101A8000930B97FF02C081589F4F880F892F881FA3
:101A9000990B880D991D37FF02C02F5F3F4F359579
:101AA0002795280F391F80915404909155049093E5
:101AB000530480935204D0925504C09254048091F0
:101AC0005804909159049093570480935604F092CF
:101AD0005904E092580480915C0490915D049093C5
:101AE0005B0480935A0410935D0400935C0480911E
:101AF00060049091610490935F0480935E04D0939E
:101B00006104C09360048091640490916504909393
:101B1000630480936204B0936504A093640480918D
:101B20006804909169049093670480936604B0926E
:101B30006904A092680480916C0490916D04909364
:101B40006B0480936A0470936D0460936C048091BD
:101B5000720102C0759467948A95E2F77092D2057B
:101B60006092D1057093510460935004E091420457
:101B7000F091430480914404909145049093430470
:101B800080934204809146049091470490934504C9
:101B900080934404809148049091490490934704B1
:101BA0008093460480914A0490914B049093490499
:101BB0008093480480914C0490914D0490934B0481
:101BC00080934A0480914E0490914F0490934D0469
:101BD00080934C0470924F0460924E04F195E1950D
:101BE000F109E21BF30B90914104CFEFC90FC093B1
:101BF0004104C0903D04D0903E04E0903F04F0903A
:101C00004004911173C0C092E605D092E705E092BE
:101C1000E805F092E90510923D0410923E041092FE
:101C20003F04109240048091DF01843009F476C0B3
:101C30008091DF01833009F4C2C180916A01813053
:101C400009F4B4C08091B4018E300CF407C18091C6
:101C5000B4018D5002C0EE0FFF1F8A95E2F780910C
:101C6000C60181110DC18091F905811129C1C09072
:101C70003504D0903604E0903704F0903804CF73E8
:101C800009F0B7C1C092DA05D092DB05E092DC051D
:101C9000F092DD051092350410923604109237044C
:101CA00010923804E115B2E0FB0714F0EFEFF1E019
:101CB000E1152EEFF20714F4E0E0FEEFF093740468
:101CC000E0937304415040936E04DF91CF911F91D4
:101CD0000F91FF90EF90DF90CF90BF90AF909F90CB
:101CE0008F907F906F905F904F900895CF01F7FD98
:101CF00098C1092E000CAA0BBB0B8C0D9D1DAE1DAF
:101D0000BF1D80933D0490933E04A0933F04B09385
:101D100040048091DF01843009F08ACF2091D10501
:101D20003091D205809150049091510437FF03C047
:101D300031952195310997FF03C0919581959109BE
:101D4000821793070CF474C1809150049091510450
:101D5000E091D105F091D205F7FF03C0F195E1952F
:101D6000F109F595E795F595E79597FF03C09195EE
:101D700081959109E80FF91F80913B0490913C04F3
:101D80009F01281B390B37FF02C02F5F3F4F35954E
:101D90002795280F391F30933C0420933B04E21B06
:101DA000F30B80916A01813009F04CCF80910201E0
:101DB00090910301811564E0960774F09C01232F34
:101DC000330F330B25952595DF01A29FF001A39FCB
:101DD000F00DB29FF00D11242F2F259525953F2F43
:101DE000330F330B37FDE2C161E070E0DB01A21B72
:101DF000B30B6FEF7FE7681B790BA617B70734F4B7
:101E00008A0F9B1F909303018093020118161906F5
:101E10000CF0C5C12091B40180E190E023C0109284
:101E20007404109273041092720410927104109250
:101E3000700410926F041092F70550E040E030E01B
:101E400020E090E080E0ABCD1092820410928104FB
:101E500080E870E060E0F0E0E0E037CD2091B40190
:101E60008DE090E0821B910927FD939502C0F595C6
:101E7000E7958A95E2F78091C601882309F4F3CEAD
:101E800000912104109122042091C601CF01801BF2
:101E9000910B2150330B61E070E002C0660F771F99
:101EA0002A95E2F70E94F83AFB01E00FF11FF09348
:101EB0002204E09321048091F905882309F4D7CE08
:101EC0008091F905E0902D04F0902E04C09031042B
:101ED000D0903204843008F0B4C0809133049091E3
:101EE0003404F0933404E0933304DF01A81BB90BEE
:101EF0009F0122953295307F3227207F3227CF01F4
:101F0000880F991F880F991F880F991F280F391F55
:101F10002E0F3F1F8EE190E0A89FF001A99FF00DCA
:101F2000B89FF00D11242E0F3F1F3595279535953D
:101F30002795359527953595279535952795809142
:101F4000F905823009F457C2833009F43EC281306A
:101F500009F4FBC1A0912904B0912A048091F905EC
:101F60000091270410912804823009F4CDC18330F8
:101F700009F4A8C1813009F469C1E0912304F0910A
:101F800024041093260400932504F0932804E0937E
:101F90002704F0922C04E0922B04B0932E04A0931B
:101FA0002D04D0923004C0922F0430933204209339
:101FB00031045DCE8FEF90E097FF87CC37C08091E2
:101FC000D1059091D2058E0F9F1F20913904309139
:101FD0003A04829FF001839FF00D929FF00D11242F
:101FE0008091D1059091D20590933A048093390461
:101FF00024CECF01F7FF04C0882799278E1B9F0BA3
:10200000092E000CAA0BBB0B8C0D9D1DAE1DBF1D18
:102010008093350490933604A0933704B09338042A
:1020200041CE882799278E1B9F0B63CE80E04DCC35
:102030008091D1059091D205E0915004F091510426
:102040008BCE8091F905853009F4F0C108F4EEC01B
:10205000863009F4AFC020912B0430912C04A3ECFE
:10206000BFEF873009F0EFC10E94533B4B015C0189
:102070002EE630E0D7010E946A3B95018401060FED
:10208000171F281F391F37FF04C0015C1F4F2F4F38
:102090003F4F56E035952795179507955A95D1F7F7
:1020A0000C0D1D1D10932A04009329048091F9053D
:1020B000A0902704B0902804853009F4C9C108F421
:1020C00080C0863009F4F9C1873009F0F1C1C70139
:1020D000880F991FB801681B790B80902B04909092
:1020E0002C04860E971E97FE03C08FE1880E911C6C
:1020F00095948794959487949594879495948794D0
:10210000959487942091250430912604A2ECBFEF8A
:102110000E94533B2B013C0120E730E0D5010E9497
:102120006A3B460E571E681E791E77FE05C0AFE358
:102130004A0E511C611C711CC301B20126E0959529
:102140008795779567952A95D1F7680D791D7093D6
:10215000240460932304B0922604A0922504709373
:10216000280460932704F0922C04E0922B0410932F
:102170002E0400932D04D0923004C0922F04F093CB
:102180003204E093310477FF02C0695F7F4FFB01A7
:10219000F595E795F595E795F595E79568CD81E097
:1021A00090E0909303018093020134CE3195219504
:1021B00031091ACE20912B0430912C04A2ECBFEFF0
:1021C00053CF843009F074C1209125043091260446
:1021D000ACECBFEF0E94533B2B013C012FE530E0FC
:1021E000D5010E946A3B460E571E681E791E77FE77
:1021F00005C0BFE34B0E511C611C711CD6E07594E9
:10220000679457944794DA95D1F7C701880F991FBF
:102210009801281B390BC90120912B0430912C0403
:10222000820F931FBC01640D751D91CF843009F09E
:102230000AC120912B0430912C04A7ECBFEF0E941F
:10224000533B4B015C0122E730E014CF8091250421
:1022500090912604F701EE0FFF1FEA0FFB1F60911C
:102260002B0470912C04E60FF71FF595E7955C01A0
:10227000AA0CBB1CAA0CBB1CAA0CBB1CBC01660F85
:10228000771F6A0D7B1D680F791F5801AA0CBB1CB4
:10229000C80182959295907F9827807F9827A80EF5
:1022A000B91EA60EB71EB594A794B594A794B5947D
:1022B000A794B594A794EA19FB09F0932404E0933A
:1022C00023045FCEF701EE0FFF1FEA0FFB1F809183
:1022D0002B0490912C04E80FF91FF595E795F595DF
:1022E000E7958091250490912604880F991F880F07
:1022F000991F95958795959587959595879595952A
:102300008795E81BF90BD9CFF701EE0FFF1FEA0FF6
:10231000FB1F80912B0490912C04E80FF91FF59579
:10232000E795F595E795A0902504B0902604AA0CB2
:10233000BB1CAA0CBB1CAA0CBB1CC801880F991F94
:10234000880F991FA80EB91EAECFE0912B04F09113
:102350002C04D601AA0FBB1FA20FB31F80912F041C
:1023600090913004A80FB91FB595A795B701660FD6
:10237000771F660F771FC701880F991F880F991F56
:10238000880F991F860F971F8E0D9F1DBF01660F27
:10239000771F660F771F660F771F8F01000F111FC2
:1023A000600F711F6E0F7F1F860F971F9595879582
:1023B000959587959595879595958795A81BB90BC4
:1023C000B0932A04A0932904C9CDD601AA0FBB1F3C
:1023D000A20FB31F80912F0490913004A80FB91F52
:1023E000B595A79580912B0490912C04880F991F87
:1023F000880F991FDBCFD601AA0FBB1FA20FB31FF7
:1024000080912F0490913004A80FB91FB595A7951E
:1024100080912B0490912C04880F991F880F991F8D
:10242000880F991FB701660F771FBECF20912B042D
:1024300030912C04A4ECBFEF0E94533B4B015C0194
:1024400021E730E017CE0091290410912A042ECE06
:10245000C701880F991FB801681B790B80902B0466
:1024600090902C04860E971E97FE03C033E0830ED7
:10247000911C95948794959487942091250430918C
:102480002604A5ECBFEF0E94533B2B013C012AE63A
:1024900030E0D5010E946A3B460E571E681E791E29
:1024A00077FE4ACE5FE3450E511C611C711C44CE81
:1024B00060912304709124044ECEC701880F991FA8
:1024C000B801681B790B80902B0490902C04860E29
:1024D000971E97FE03C06FE0860E911C959487941B
:1024E0009594879495948794959487942091250446
:1024F00030912604A2ECBFEF0E94533B2B013C011C
:1025000021E730E0D5010E946A3B460E571E681E47
:10251000791E77FE11CE7FE3470E511C611C711CA2
:102520000BCEE0911304E7FD1DC0F0E0E45CFD4F2D
:10253000E491EA32B9F0E093DB0191E090930E066A
:10254000882391F0ECECF1E08BED91E02181219377
:102550008E179F07D9F780E28093DB0181E080939B
:10256000130402C08111FACF08958F929F92AF9207
:10257000BF92CF92DF92EF92FF92F090D3058091BD
:102580002004F81609F47FC080910F0681110FC056
:102590000E9424098FEC0E94190962E5F11001C024
:1025A00060E281EC96E00E94FC030E944809809062
:1025B0000F0490901004A0901104B0901204809128
:1025C000D305882309F496C00E94F00360931C048D
:1025D00070931D0480931E0490931F040E94F003C7
:1025E000C0901804D0901904E0901A04F0901B04D5
:1025F0009B01AC012C193D094E095F0969017A0163
:10260000C0921404D0921504E0921604F0921704BC
:1026100080911304823038F1D501C401880F991FCD
:10262000AA1FBB1F8C159D05AE05BF05E0F481E018
:102630000E94911260EB74E080E090E0A5019401AB
:102640000E940C3BCA01B901A2E0660F771F881FE8
:10265000991FAA95D1F723E030E040E050E00E94B6
:102660000C3B20937101A5E0B0E0A50194010E940C
:10267000713BC616D706E806F90628F081E080937C
:1026800013040E9491120E94F003C0901804D0908D
:102690001904E0901A04F0901B049B01AC012C1962
:1026A0003D094E095F0969017A0120910F043091BB
:1026B00010044091110450911204A6E0B0E00E9471
:1026C000713B6C157D058E059F0538F480911304D0
:1026D000823018F081E00E9491128091D30580939E
:1026E0002004FF90EF90DF90CF90BF90AF909F902D
:1026F0008F9008950E94F00360931804709319045A
:1027000080931A0490931B040E94F003C0901C0451
:10271000D0901D04E0901E04F0901F049B01AC01BA
:102720002C193D094E095F0969017A01D501C401DF
:10273000880F991FAA1FBB1FC816D906EA06FB06F9
:1027400020F089288A288B28A1F4BC01CD016C0DCA
:102750007D1D8E1D9F1D23E030E040E050E00E9473
:102760000C3B20930F0430931004409311045093BA
:10277000120420910F0430911004409111045091E3
:102780001204A5E0B0E00E94713B6C157D058E053A
:102790009F0580F4C701B60123E030E040E050E03F
:1027A0000E940C3B20930F043093100440931104BB
:1027B0005093120440910F04509110046091110441
:1027C00070911204DB01CA01B695A795979587957C
:1027D0008C159D05AE05BF0508F055CF80911304FB
:1027E00090E0880F991F440F551F661F771F21E047
:1027F0004C155D056E057F0508F020E0822B809367
:10280000130480E03ECFCF93DF93C82F80917000F8
:102810008D7F8093700084E190E00E949003F89493
:10282000C0931406CC2309F46AC0809104019091EE
:1028300005019093990480939804109210061092C9
:10284000110610921206109213068091DF01823059
:1028500009F44CC008F443C0833009F44DC08430FF
:1028600009F447C07894CC2309F493C08091F4050F
:1028700080937C001092C8058091DE01882361F06E
:102880008091DF01823041F481E0C11101C080E01C
:102890008093D3050E94B512CC2309F4C5C0809162
:1028A0009B0460E0882309F478C088E00E940E034E
:1028B0008FEC0E94190960E581EC96E00E94FC0310
:1028C0006FEF83E00E94ED0580E48093B300809178
:1028D0007000826080937000DF91CF91089589E04D
:1028E00098E19093C7058093C605BCCF8AEA95E12D
:1028F000F8CF83E799E0F5CF84EB99E0F2CF8091B0
:10290000DF01823091F58091100690911106A0911F
:102910001206B0911306892B8A2B8B2B31F50E945E
:10292000F003AB01BC018091040690910506A091D3
:102930000606B091070623E0880F991FAA1FBB1F48
:102940002A95D1F7840F951FA61FB71F80931006F5
:1029500090931106A0931206B093130680919C04E5
:10296000811114C085E19CE0BCCF809198049091C6
:10297000990490930501809304011092100610921F
:1029800011061092120610921306ECCF8DEC99E00E
:10299000A8CF81E08093F7056DCF88E00E940E03F9
:1029A0008FEC0E94190964E581EC96E00E94FC031B
:1029B0008091DF01823079F58091EE059091EF05ED
:1029C000A091F005B091F1059195819591090E9432
:1029D00043020E9419056BEF83E00E94ED0580E839
:1029E0008093880080919704811109C08091DF0154
:1029F000823029F0809180008F77809380008091D1
:102A000080008062809380008091C905882309F44A
:102A10005BCF3A9859CF8091FA059091FB05892BAD
:102A2000D1F290E080E0D3CF80918A008823A1F09A
:102A3000C8E6D0E0FE018491E82FF0E0E054FB4FBF
:102A4000808180938A008CE390E00E94900321961D
:102A5000F0E0C738DF0771F78091800080688093CD
:102A60008000809180008F7D8093800060E08AE00C
:102A70000E940E0310928A006CEF83E00E94ED0525
:102A80008091100690911106A0911206B091130644
:102A9000892B8A2B8B2B21F080919C04811109C0FA
:102AA0008091F50561E0823009F460E088E00E94E1
:102AB0000E038091FA059091FB050E9443020E944B
:102AC00019058FEC0E9419098091190662E58111A0
:102AD00066E581EC96E00E94FC0380911906811165
:102AE00004C08091C90581113A9A84E0EECECF925C
:102AF000DF92EF92FF926B017C010E94F003C60E01
:102B0000D71EE81EF91E0E94F0036C157D058E0588
:102B10009F05C0F4A89581E10E94E502892B29F464
:102B20008CE00E94E502892B39F481E10E94E502E4
:102B3000892B71F0A895F9CF8DE00E94E502892BD1
:102B400011F7F3CF80E0FF90EF90DF90CF900895E2
:102B500081E0F9CFCF92DF92EF92FF92CF93DF9394
:102B600090918A008091BF05981798F4CFE1D0E04A
:102B70002197FE01E859FF4FE491F0E0E054FB4F4C
:102B8000808180938A008CE390E00E9490032097DC
:102B900079F78091BF0580938A00E091B30184E0CA
:102BA000E89FF0011124E951FE4F208131814281DB
:102BB0005381A3E3B0E00E94713B20EC32E140E09E
:102BC00050E00E942E3B6901A0910001B0910101EB
:102BD00040910C0450910D0496010E94533B672FC5
:102BE000782F892F992787FD9A95640F751F709309
:102BF0000D0460930C04A0910C04B0910D0440915D
:102C00000001509101010E94533B672F782F892FBB
:102C1000992787FD9A95461B570B509301014093C6
:102C2000000180910C0490910D044091B40128E1C1
:102C300030E0241B310947FD339502C095958795F7
:102C40002A95E2F7805880938800DF91CF91FF901A
:102C5000EF90DF90CF9008950F931F93CF93DF9362
:102C6000EAEEF3E028E034E042815381419351934E
:102C70002E173F07C9F72091CA05E091E803F091AC
:102C8000E903222309F450C147E04E9F90014F9F72
:102C9000300D1124280F391F37FF02C0295F3F4F25
:102CA000D3E035952795DA95E1F73093E903209342
:102CB000E803821B930B97FD01969595879590935A
:102CC0000904809308048091F8039091F903FC01B2
:102CD000EE0FFF1FA091F203B091F3034091FE03AA
:102CE0005091FF03A41BB50B4091F6035091F703DD
:102CF0006091FA037091FB03461B570B2091EA0386
:102D00003091EB036091060470910704261B370B8A
:102D1000220F331F6091EE037091EF03C091020404
:102D2000D09103046C1B7D0B13E0660F771F1A957F
:102D3000E1F7260F371FBD0104E0660F771F0A95E4
:102D4000E1F7ED01CC0FDD1FCC0FDD1F6C0F7D1FF8
:102D50006A0F7B1F260F371FBA0104E0660F771F2B
:102D60000A95E1F7260F371F66E0359527956A9596
:102D7000E1F7240F351FBC0197FF03C071956195E2
:102D80007109A90137FF02C04F5F5F4F5595479505
:102D900057FF03C0519541955109461757070CF04D
:102DA000ECC0C90137FD0796A3E095958795AA95D4
:102DB000E1F797FF03C0919581959109860F971FC1
:102DC00040916C014817190608F0E9C040911406BB
:102DD000442309F4E2C04EEF4093140640916B0186
:102DE00002C0880F991F4A95E2F78F3F910509F0BD
:102DF00020F440916B01483011F48FEF90E0409146
:102E00001406442309F4D4C080549B4FDC018C91F8
:102E100080930E04E90137FF04C0CC27DD27C21BD5
:102E2000D30B8F01F7FF04C0002711270E1B1F0BC8
:102E30000C171D070CF0BEC045EE4003C001419FBA
:102E4000900D1124BE010E94F83A6A597F4F609F8D
:102E5000C001619F900D709F900D1124BE010E94D2
:102E6000F83A86E990E0AC01461B570BBA01F7FF30
:102E700006C08CE291E0DC01A61BB70BBD0137FF59
:102E800003C07195619571098091E4039091E50308
:102E90009B01281B390B7093E5036093E40337FF14
:102EA00002C0285A3D4F8091F905882309F49EC03D
:102EB0008091F905833009F09CC086E990E0821783
:102EC000930714F58091F905882309F495C0809142
:102ED000F905833009F093C086E990E0281B390B8F
:102EE000621B730B7093E5036093E4038091F90513
:102EF00028E532E0882341F08091F90526E930E0A9
:102F0000833011F02CE231E08091DF01813009F053
:102F100079C0C90123E0880F991F2A95E1F7DF9155
:102F2000CF911F910F9108959C01220F331F409163
:102F3000E6035091E703240F351F440F551F841BF0
:102F4000950BC3E0D0E0BE010E94F83A7093E7030E
:102F50006093E603CF01880F991F820F931FBE0174
:102F60000E94F83A7093E9036093E803261B370B3D
:102F70003093090420930804A6CECF01F7FD0796ED
:102F800063E0959587956A95E1F797FF03C0919562
:102F900081959109840F951F13CF4FEF1DCF40915D
:102FA0001406442309F41ACF40911406415014CF5B
:102FB00080E02ECF70E060E0309709F460CF45EEFE
:102FC000BE014603C001479F900D1124B8010E9425
:102FD000F83A6A597F4F6C9FC0016D9F900D7C9F9E
:102FE000900D1124B8010E94F83A41CF88E592E093
:102FF00066CF8CE291E063CF88E592E06FCF8CE200
:1030000091E06CCF48EF4203C001439F900D112423
:1030100086CFCF93DF93C0917800D09179008091D3
:103020007A00806480937A000E94190580910E04D2
:1030300080938A008091780090917900C80FD91F01
:1030400080917A00806480937A0080910A04909144
:103050000B040E942C162091780030917900C20F49
:10306000D31F20917A00206420937A000E944302AB
:10307000209178003091790090917A00906490933B
:103080007A00CE01820F931F97FD03969595879541
:1030900095958795805E914090930B0480930A04E8
:1030A00080911406813031F410928A006FEF83E032
:1030B0000E94ED05809114068F3F31F46BEF83E0A1
:1030C000DF91CF910C94ED05DF91CF910895CF93CF
:1030D000C62F0E94A3058BB1807F80619C2F9295A3
:1030E0009F70892B8BB96BB1607F6061CF706C2B47
:1030F0003C9800005C986BB93C9A3C9800005C9846
:103100003C9A0E94EE088CE390E00E94900381E0DC
:1031100090E0CF9108950F931F93CF93DF938C018D
:10312000D0E0C0E0F801EC0FFD1F6491662341F090
:1031300081EC96E00E946718892B11F02196F2CF5E
:10314000CE01DF91CF911F910F91089586E891E014
:103150000C948B180F931F93CF93C62F8A01813045
:1031600009F042C080E80E9419096C2F62956F70C7
:10317000CF706A3031F461E381EC96E00E94FC0389
:1031800060E0605D81EC96E00E94FC036EE281EC01
:1031900096E00E94FC03CA3030F0CA5061E381EC33
:1031A00096E00E94FC0360E36C0F81EC96E00E94C5
:1031B000FC0360E281EC96E00E94FC03C8010E94DF
:1031C0008B180E94A6180E94A61880EC0E9419096C
:1031D00080910F068230A8F06EE381EC96E0CF91EB
:1031E0001F910F910C94FC0380EC0E941909C801F7
:1031F0000E948B188EE890E0CF911F910F910C9454
:103200008B18CF911F910F91089580E80E941909A2
:1032100087E890E00E948B1861E081EC96E00E94C4
:10322000FC030E94A6180C94A6188DE00E94E502EB
:10323000892B51F48091FF0591E0811192E08091FA
:103240000C06892B80930C068CE00E94E502892BEA
:1032500051F48091FF0592E0811191E080910C067C
:10326000892B80930C0608950F931F93CF93DF93C0
:1032700090E080E00E944805D0E0C0E001E010E06E
:10328000C8010C2E02C0880F991F0A94E2F780959E
:10329000909581600E9448056EE170E080E090E0CA
:1032A0000E94BD0390E080E00E9448052196C03155
:1032B000D10531F7DF91CF911F910F910895FB0157
:1032C00001900020E9F73197AF01461B570BDC0155
:1032D000ED91FC910280F381E02D09948F929F92F1
:1032E000AF92BF92EF92FF920F931F93CF93DF9312
:1032F000CDB7DEB7A1970FB6F894DEBF0FBECDBF36
:103300007C01FA01CB0119A2223008F42AE08E01D7
:103310000F5D1F4F822E912CB12CA12CBF01A50156
:1033200094010E940C3BF901CA016A300CF5605D02
:10333000D8016E938D01232B242B252B79F790E058
:1033400080E0109721F0BD01C7010E945F19A1968E
:103350000FB6F894DEBF0FBECDBFDF91CF911F91A6
:103360000F91FF90EF90BF90AF909F908F90089536
:10337000695CDECFCF92DF92EF92FF920F931F93A3
:10338000CF93DF9377FF1DC06A017B01EC016DE2F3
:103390000E94FC038C0144275527BA014C195D0992
:1033A0006E097F092AE0CE010E946E19800F911FDD
:1033B000DF91CF911F910F91FF90EF90DF90CF9011
:1033C00008952AE0DF91CF911F910F91FF90EF9028
:1033D000DF90CF900C946E19AB01770F660B770BD3
:1033E0000C94BA19EF92FF920F931F93CF937C0125
:1033F0008B01C42F80EC0E94190961E281EC96E0F8
:103400000E94FC0361E281EC96E00E94FC03C7018C
:103410000E948B18CC2379F06DE381EC96E00E943A
:10342000FC03B80181EC96E00E94EC196C2F81EC52
:1034300096E00E94FC030E94A6186CED75E080E007
:1034400090E00E94BD03A895CF911F910F91FF902E
:10345000EF9008956115710511F00C945F1990E0DB
:1034600080E00895EF92FF920F931F93CF93DF9325
:10347000CDB7DEB7A0970FB6F894DEBF0FBECDBFB5
:103480006091B6017091B7018091B8019091B90136
:1034900020E03AEC4AE95BE30E940C3B122F032F39
:1034A00020E432E44FE050E00E940C3BF22EE32E89
:1034B00028EE33E040E050E00E940C3B7F936F9396
:1034C0003F932F93EF92FF920F931F9387E792E022
:1034D0009F938F938E010F5F1F4F1F930F930E9437
:1034E000533CB80184E296E00E942A1A6AE872E02E
:1034F000C8010E943D3CB80184E296E00E942A1A6D
:1035000062E972E0C8010E943D3CB80184E296E0A5
:103510000E942A1A6091DF0170E06F5F7F4F84E2A2
:1035200096E00E94EC1967E972E0C8010E943D3CF8
:10353000B80184E296E00E942A1A0FB6F894DEBF22
:103540000FBECDBFA0960FB6F894DEBF0FBECDBFA5
:10355000DF91CF911F910F91FF90EF9008950C9400
:1035600045380C943338CF92DF92EF92FF920F934D
:103570001F93CF93DF93CDB7DEB7A0970FB6F89424
:10358000DEBF0FBECDBF84E296E00E946104892BAE
:1035900009F494C00E94F003665F7F4F8F4F9F4FE6
:1035A0006093C1057093C2058093C3059093C405D1
:1035B00084E296E00E943F04E091BF0491E09E0FF8
:1035C0009093BF04F0E0E156FB4F80838B3309F00A
:1035D000BFC1E091BF04F0E0E156FB4F10821092B2
:1035E000BF048091C905811105C081E08093C905A0
:1035F0001092DD0180919F04863409F08BC0809188
:10360000A004813409F064C18091A1048B3309F0D6
:1036100064C08091C905882309F44AC06091B6014D
:103620007091B7018091B8019091B90120E03AEC16
:103630004AE95BE30E940C3B122F032F20E432E4A3
:103640004FE050E00E940C3B6B017C013F932F93B5
:103650000F931F9380EA92E09F938F938E010F5FE9
:103660001F4F1F930F930E94533CB80184E296E0D2
:103670000E942A1AC701B60128EE33E040E050E06C
:103680000E940C3B7F936F933F932F938BEA92E0C2
:103690009F938F931F930F930E94533CB80184E232
:1036A00096E00E942A1A0FB6F894DEBF0FBECDBF77
:1036B0006AE070E080E090E00E94BD03A0960FB643
:1036C000F894DEBF0FBECDBFDF91CF911F910F9158
:1036D000FF90EF90DF90CF9008958091AC048B33F2
:1036E00099F54BE050E061EA74E0CE0101960E944A
:1036F000443C1C86CE0101960E9460356093B60161
:103700007093B7018093B8019093B90181E08093E1
:10371000C701CECF8934D9F48091A004863461F4F6
:103720008091A1048B3381F48091C905882309F429
:10373000BFCF0E94321ABCCF843431F48091A104EF
:1037400065EB72E08B33F9F061EF72E01CC08035FD
:1037500069F48091A0048335B9F78091A1046CEBE2
:1037600072E08B3381F0813379F7A2CF813499F401
:103770008091A004893409F079C08091A1048B3331
:1037800039F461EC72E084E296E00E942A1A90CF4C
:103790008033D1F6F6CF8D34C1F58091A004843406
:1037A00099F68091A1048B33A9F466EC72E084E26F
:1037B00096E00E942A1A6091DF0170E06F5F7F4FF0
:1037C00084E296E00E94EC196BE384E296E00E94AA
:1037D000FC036ECF9091A2049B3309F0B5CF8153C7
:1037E0008093DF018091DF019091F805092F01702E
:1037F00010E0F801EE53FE4F808381E08093C70113
:103800001092DE061092DD0653CF8235C1F480910E
:10381000A004883509F044C08091A1048B3309F0DD
:1038200093CF80E00E9403141092100610921106AC
:10383000109212061092130669EC72E0A4CF843540
:1038400001F58091A004883509F07ECF8091A10414
:103850008B3321F481E00E9403142ACF8033D1F30B
:103860008133C1F3823309F06FCFF4CF873409F08D
:103870006BCF8091A1046EEC72E0803309F064CFCD
:1038800082CF8835D9F58091A004843509F05CCFCA
:103890008091A10463ED72E0813309F055CF73CFBD
:1038A000843541F48091A10468ED72E0813309F020
:1038B0004BCF69CF8334B9F48091A1048B3309F0E5
:1038C00043CF1092FB051092FA056DED72E05BCFCD
:1038D0008C3409F039CF8091A10461EE72E080331D
:1038E00009F032CF50CF833509F02ECF8091A1045B
:1038F00066EE72E08B3309F027CF45CF863509F0AD
:1039000023CF8091A004883509F01ECF8091A104B7
:103910008B3309F419CF282F082E000C330B3F935B
:103920008F938BEE92E09F938F938E010F5F1F4FCB
:103930001F930F930E94533CB80184E296E00E94CB
:103940002A1A0F900F900F900F900F900F90B0CEFB
:103950008091BF04803208F4B1CE64EF72E084E25B
:1039600096E00E942A1A1092BF04A8CE0E946D040D
:1039700081110C94B31A0895CF93DF93282FCB01B4
:1039800060919D0470919E04C42FD0E0233079F0A3
:10399000243089F040919D0450919E04C40FD51F9E
:1039A000D0939E04C0939D04DF91CF910895AE0102
:1039B0000E942338EFCFAE010E943B38EBCF0F932C
:1039C0001F93CF93DF93EB01823008F058C008813A
:1039D00019812A813B8190912306492F990F550B1C
:1039E000660B770B400F511F621F731F77FF1FC0BD
:1039F000188219821A821B82182F109223060E94A5
:103A0000240950E040E060E0812F0E94AA1848811C
:103A100059816A817B8181EC96E00E94BA190E94EB
:103A2000A618DF91CF911F910F910C94A6180881D1
:103A300019812A813B8190912306492F990F550BBB
:103A4000660B770B400F511F621F731F141615066C
:103A5000160617066CF2088119812A813B81909124
:103A60002306492F990F550B660B770B400F511FFB
:103A7000621F731F488359836A837B83BDCF44E0F1
:103A8000DF91CF911F910F910C94BC1C4F925F92CC
:103A90006F927F928F929F92AF92BF92CF92DF925E
:103AA000EF92FF920F931F93CF93DF93CDB7DEB7C3
:103AB000FB01823008F067C0908140902306042CFF
:103AC000000C550866087708490E511C611C711CD2
:103AD0004C145D046E047F047CF5C0826901F42EF1
:103AE0005F01E82E109223060E942409A6016F2D83
:103AF0008E2D0E94AA18F50101151105B1F540811E
:103B000050E070E060E02AE081EC96E00E946E19DF
:103B10000E94A618DF91CF911F910F91FF90EF9017
:103B2000DF90CF90BF90AF909F908F907F906F90DD
:103B30005F904F900C94A6189081C09023060C2C97
:103B4000000CDD08EE08FF08C90ED11CE11CF11CB9
:103B50008C149D04AE04BF0414F48082BFCF508146
:103B600090912306950F9083B9CF808190E0880FC4
:103B7000991F080F191FF8016081718181EC96E08F
:103B80000E942A1AC5CF41E0DF91CF911F910F917A
:103B9000FF90EF90DF90CF90BF90AF909F908F906D
:103BA0007F906F905F904F900C94BC1C5F926F92CF
:103BB0007F928F929F92AF92BF92CF92DF92EF92BD
:103BC000FF920F931F93CF93DF9300D000D000D0CC
:103BD000CDB7DEB7782E662EBDEFBB2EB80E00E552
:103BE00011E0EE24E394F12C9CE2C92ED12C21E0CB
:103BF0002B1570F010939E0400939D04AA24A394A7
:103C0000A61430F46A2D85E00E94D61DA394F8CF47
:103C10008FEF68121BC011E0612F872D0E94D61D07
:103C20001F5F1233C9F7812C912C5401C12CD12C68
:103C3000760110E000E030E020E040E060ED75E06B
:103C4000872D0E94461D82E3682EAFC092E3961531
:103C500008F48BC4E62DF0E0E05DF14E0C944D3B92
:103C6000B022631EC31EEC1EFC1E0C1F1C1F2B1F4C
:103C7000921FA11FB11FC11FD11FB522E11FB52285
:103C8000B522F01FFF1F5920692078208720962039
:103C9000A520B522B522B52023213321B522B52296
:103CA000B522B522B522D121E621F7216C22B52219
:103CB000B522B522B522B522B5227C228B229122D3
:103CC0009422A222131E21E0271508F455C08091EA
:103CD000B40140912306082E000C990BAA0BBB0BD4
:103CE000042E000C550B660B770B840F951FA61F37
:103CF000B71F8F3F9F4FAF4FBF4F04F58FEF80939C
:103D0000B401109223060E9424094FE751E061E1BB
:103D1000872D0E94AA188091B40187FD05C06BE22F
:103D200081EC96E00E94FC036091B401062E000C29
:103D3000770B81EC96E00E94EC19C2C08091B4012F
:103D400040912306082E000C990BAA0BBB0B042EE6
:103D5000000C550B660B770B840F951FA61FB71F22
:103D60004197A105B10514F080E1C9CF8091B4015C
:103D700090912306890FC3CF41E064EB71E0872D5A
:103D80000E94BC1C12C0A4E08A2E912CA12CB12C44
:103D9000C12CD12C760103E711E02AE731E042E1A2
:103DA0006FED71E0872D0E94461D862D26960FB679
:103DB000F894DEBF0FBECDBFDF91CF911F910F9161
:103DC000FF90EF90DF90CF90BF90AF909F908F903B
:103DD0007F906F905F900895F7E08F2E912CA12C2B
:103DE000B12CC12CD12C760108E511E020E731E09F
:103DF00043E169EF75E0D6CFEAE08E2E912CA12C3D
:103E0000B12CC12CD12C760102E411E02BE631E07B
:103E100044E165EB71E0C6CF79E0872E912CA12CAF
:103E2000B12CC12CD12C76010EE211E021E631E05B
:103E300045E168EC71E0B6CF812C912C540183945C
:103E4000C12CD12C76010AE211E028E531E046E1EF
:103E500068EF75E0A7CF81E0871508F45FC0809117
:103E6000FA059091FB0540912306092E000CAA0B40
:103E7000BB0B042E000C550B660B770B840F951FA4
:103E8000A61FB71FB7FF21C01092FB051092FA05BD
:103E9000109223060E94240944E551E067E1872D32
:103EA0000E94AA18E091FA05F091FB05EE0FFF1FA2
:103EB000EA5DFE4F6081718181EC96E00E942A1AD2
:103EC0000E94A6180E94A61870CF8091FA059091C2
:103ED000FB0540912306092E000CAA0BBB0B042EF8
:103EE000000C550B660B770B840F951FA61FB71F91
:103EF0000297A105B1053CF081E090E09093FB05AD
:103F00008093FA05C5CF8091FA059091FB05209129
:103F10002306820F911D27FD9A95F0CF42E06AEFAC
:103F200075E02DCF812C912C54018394C12CD12C80
:103F3000760106E211E020E531E048E16AE671E051
:103F400031CF38E0832E912CA12CB12CC12CD12C57
:103F5000760110E000E02DE431E049E166EC71E02B
:103F600021CF27E0822E912CA12CB12CC12CD12C59
:103F7000760106E111E029E431E04AE165EF75E000
:103F800011CF90E1892E912CA12CB12CC12CD12CD8
:103F9000760110E000E024E431E04BE162E771E0FB
:103FA00001CF84E0882E912CA12CB12CC12CD12CD6
:103FB00076010CE011E02CE331E04CE16DED71E0B5
:103FC000F1CE812C912C54018394C12CD12C7601FB
:103FD00006E211E021E331E041E26EED71E0E2CE74
:103FE000812C912C54018394C12CD12C760106E2B2
:103FF00011E028E231E044E26CE974E0D3CE91E0D4
:10400000971508F452C08091B1019091B20140918E
:104010002306092E000CAA0BBB0B042E000C550B1B
:10402000660B770B840F951FA61FB71F181619066E
:104030001A061B06ACF081E090E09093B2018093E9
:10404000B101109223060E9424094CE151E065E27F
:10405000872D0E94AA186091B1017091B20169CEBA
:104060008091B1019091B20140912306092E000C7C
:10407000AA0BBB0B042E000C550B660B770B840FA1
:10408000951FA61FB71FCD97A105B1051CF08CE3A6
:1040900090E0D3CF8091B1019091B201209123069D
:1040A000820F911D27FD9A95C8CF42E061EB71E028
:1040B00066CEB2E08B2E912CA12CB12CC12CD12C30
:1040C000760106E011E021E131E046E26BEC71E0BF
:1040D00069CE812C912C54018394C12CD12C760172
:1040E00006E211E026E031E047E26FEF75E05ACEDC
:1040F000812C912C54018394C12CD12C760106E2A1
:1041000011E02DEF30E048E26BE974E04BCE812CFA
:10411000912C54018394C12CD12C760106E211E03C
:1041200029EF30E041E369E176E03CCE812C912C2F
:1041300054018A94C12CD12C760110E000E02EEEBF
:1041400030E042E36CE671E02DCE68E0862E912CE3
:10415000A12CB12CC12CD12C760110E000E025EE71
:1041600030E043E36BE671E01DCE5090CF05812C2B
:10417000912C54018394C12CD12C760106E211E0DC
:104180002CED30E046E36FEC75E0872D0E94461D74
:1041900021E072120ACE8091CF05851509F405CE73
:1041A0006091CF0583E891E00E94AF1A8091CF051E
:1041B0008823B1F18091DF018093CE058091F905CC
:1041C0008093CD0580916A018093CC058091C601D2
:1041D0008093CB056091CE0584E891E00E94AF1AF0
:1041E0006091CD0585E891E00E94AF1A6091CC0501
:1041F00086E891E00E94AF1A6091CB0587E891E0D4
:104200000E94AF1A7092DF017092F90510926A0154
:104210001092C6017092CA0581E08093C701C5CD96
:104220008091CE058093DF018091CD058093F905C3
:104230008091CC0580936A018091CB058093C60163
:104240001092CA05E9CF4CE3842E912CA12CB12CFD
:10425000C12CD12C760110E000E020ED30E041E4EB
:104260006EE771E09FCD84E0781609F48EC0871563
:1042700038F091E0971580F440E36FE771E07FCD6F
:1042800026E07212F9CF80919A04803318F48F5F80
:1042900080939A047724739480910F06833011F0F1
:1042A00010929A0480910F06823019F483E0809373
:1042B0000F06E0919A04F0E0E158FE4F2081822F32
:1042C000022E000C990B30912306AC01430F511DB7
:1042D00037FD5A9540325105C4F030912306AC01A8
:1042E000430F511D37FD5A95452B79F03091230628
:1042F000830F911D37FD9A958B3591050CF043C0C6
:1043000080912306280F208302C080E280831092D0
:10431000230645EC50E062E4872D0E94AA1810E0C5
:1043200000E0E0919A04E695E695E69588E0E89F3E
:10433000F0011124E00FF11FE158FE4F6081662368
:1043400049F081EC96E00E94FC030F5F1F4F0D3097
:10435000110539F761E081EC96E00E94FC030E94B0
:10436000A61820910F0680919A048770805C91E0D6
:10437000223008F490E0890F80680E9419098EE0CD
:104380000E94190912CD8AE5C1CFEFEAF1E08291CE
:104390008F7D09F071CF108291E0EF37F907B9F7FF
:1043A0006BCF80906801882D8150990B4C01092CAE
:1043B000000CAA08BB08C12CD12C760110E000E04B
:1043C00029EB30E041E860EC75E0ECCCC090C00532
:1043D000D12CF12CE12C812C912C54018A9410E0E9
:1043E00000E02DEA30E042E868E671E0DBCC91E0E5
:1043F000971508F46DC08091D9069091DA06A091C6
:10440000DB06B091DC0640912306042E000C550B10
:10441000660B770B840F951FA61FB71F80389F4927
:10442000A54DB10524F580E89FE9A5EDB0E08093A6
:10443000D9069093DA06A093DB06B093DC061092BF
:1044400023060E94240944EA50E063E8872D0E9475
:10445000AA184091D9065091DA066091DB06709156
:10446000DC062AE081EC96E00E946E1929CD80914D
:10447000D9069091DA06A091DB06B091DC06409156
:104480002306042E000C550B660B770B840F951F2B
:10449000A61FB71F81309F43AB4AB1402CF080E08C
:1044A0009FE3ABEAB1E0C3CF8091D9069091DA06E1
:1044B000A091DB06B091DC0640912306042E000C8F
:1044C000550B660B770B840F951FA61FB71FAFCF39
:1044D00044E069ED76E053CC24EB822E912CA12CA4
:1044E000B12CC12CD12C760110E000E02BE930E09A
:1044F00044E86FEA71E056CC812C912C54018394EE
:10450000C12CD12C760106E211E021E930E041EA2C
:1045100069E671E047CC6AEB71E0872D0E94DF1CF1
:1045200044CC6EEB71E0F9CF812C912C5401C12C5D
:10453000D12C760110E000E030E020E040E062ECB9
:1045400071E030CC812C912C5401C12CD12C7601FE
:1045500010E000E030E020E040E063EC71E022CCCD
:1045600010920F060E94051957CE82E078121DCCDA
:104570009CE2691609F419CC809123061816B4F050
:104580008FEF9FEF860D911D9E838D83DC82CB8202
:10459000FE018C9774F03396FA82E98280819181D2
:1045A000029714F4FE013196608021CB81E090E007
:1045B000E9CF3596F1CF1F920F920FB60F921124CB
:1045C0002F933F938F939F93AF93BF9380911B063D
:1045D00090911C06A0911D06B0911E0630911A06FE
:1045E00023E0230F2D3768F126E8230F0296A11D43
:1045F000B11D20931A0680931B0690931C06A0936E
:104600001D06B0931E0680911F0690912006A09172
:104610002106B09122060196A11DB11D80931F06AF
:1046200090932006A0932106B0932206BF91AF91EC
:104630009F918F913F912F910F900FBE0F901F90E0
:1046400018950196A11DB11DD4CF1F920F920FB6E0
:104650000F9211242F933F934F935F936F937F9308
:104660008F939F93AF93BF93EF93FF9384E296E072
:104670000E947704FF91EF91BF91AF919F918F912D
:104680007F916F915F914F913F912F910F900FBE4E
:104690000F901F9018951F920F920FB60F92112432
:1046A0002F938F939F93EF93FF93E0913406F091B4
:1046B00035068081E0913A06F0913B0682FD1BC0F1
:1046C000908180913D068F5F8F7320913E06821707
:1046D00041F0E0913D06F0E0EC5DF94F958F80935D
:1046E0003D06FF91EF919F918F912F910F900FBEFB
:1046F0000F901F9018958081F4CF1F920F920FB6E4
:104700000F9211242F933F934F935F936F937F9357
:104710008F939F93AF93BF93EF93FF93E091C60561
:10472000F091C7050995FF91EF91BF91AF919F91CE
:104730008F917F916F915F914F913F912F910F904A
:104740000FBE0F901F9018951F920F920FB60F92E9
:1047500011240F931F932F933F934F935F936F9366
:104760007F938F939F93AF93BF93CF93DF93EF93F9
:10477000FF93C091C50580E1C89FE001112487E047
:104780000E94E5028C0186E00E94E502000F111FE5
:104790008C2B802B8093C5058332B9F08233D9F0FE
:1047A000FF91EF91DF91CF91BF91AF919F918F9149
:1047B0007F916F915F914F913F912F911F910F9139
:1047C0000F900FBE0F901F901895809123068F5F5A
:1047D00080932306E5CF809123068150F9CFE4E250
:1047E000F6E01382128288EE93E0A0E0B0E08483CA
:1047F0009583A683B7838DE592E09183808385ECD2
:1048000090E09587848784EC90E09787868780EC9A
:1048100090E0918B808B81EC90E0938B828B82EC8B
:1048200090E0958B848B86EC90E0978B868B118E35
:10483000128E138E148EE1ECF6E0138212828FE654
:1048400092E09183808388B18F7C88B93D98000085
:104850000000000000003C983C9A80EC9CEFABE923
:10486000B1E08093D9069093DA06A093DB06B0936B
:10487000DC060895CF93DF93CDB7DEB76E970FB602
:10488000F894DEBF0FBECDBF789484B5836084BD3D
:1048900085B5836085BD80916E00816080936E00D8
:1048A00082E080938100809181008160809381000B
:1048B000809180008160809380008091B10084604D
:1048C0008093B1008091B00081608093B00087E850
:1048D00080937A001092C10060E08AE00E940E038B
:1048E0000E94B50814BE88E198E20FB6F894A89526
:1048F000809360000FBE9093600080E480937C0002
:104900001092680010926B0010926C0010926D0073
:1049100062E086E00E943C0362E087E00E943C0384
:1049200080916D00806C80936D0080916800846040
:104930008093680087E00E94E5027C0186E00E9487
:10494000E502EE0CFF1CE82AE092C505789460E0D1
:104950008BE00E940E0361E088E00E940E0360E09D
:104960008AE00E940E0360E089E00E940E0361E08D
:1049700089E00E943C0361E08BE00E943C0361E01F
:1049800088E00E943C0361E08AE00E943C0360E012
:1049900081E10E943C0362E08DE00E943C0360E004
:1049A0008CE00E943C0360E08EE00E940E0360E019
:1049B0008FE00E940E0360E08EE00E943C0360E006
:1049C0008FE00E943C0364E670E080E090E00E948B
:1049D000BD038AB18F618AB93C9A80E593EC0E944D
:1049E00090033C9A5C9883E30E94190984E991E161
:1049F0000E94900383E30E94190984E991E10E94D7
:104A0000900383E30E94190986E990E00E949003D5
:104A100082E30E94190988E20E9419098CE00E9431
:104A2000190981E00E94190963E070E080E090E0DC
:104A30000E94BD0386E00E9419091092D2051092CF
:104A4000D1055E0129E0A20EB11C8091D1059091A3
:104A5000D2050897A9F16091D1057091D205F3E0D4
:104A6000660F771FFA95E1F76F517E4F48E050E0EF
:104A7000CE0101960E9487358091D1059091D20593
:104A80008F5F38E0839FC0011124887380640E9487
:104A90001909CE0101967C01D7016D917D0181EC50
:104AA00096E00E946718EA14FB04B1F78091D105E3
:104AB0009091D20501969093D2058093D105C5CFF0
:104AC0000E94051987E80E9419098EED91E00E9465
:104AD0008B1888ED91E00E948B180E94A6186FEF4A
:104AE00083E00E94ED0560E08AE00E940E0360E032
:104AF00088E00E940E0364E670E080E090E00E948F
:104B0000BD038FE00E947803BC01990F880B990BBD
:104B10000E94A6399B01AC010E948B3820E030E056
:104B200040EA50E40E945B3A20E030E040E85AE37B
:104B30000E945B3A4B015C0161E088E00E940E0339
:104B40002AE939E949E950E4C501B4010E94563A1D
:104B5000181654F426E636E646EA50E4C501B401D8
:104B60000E94F73887FD09C0C501B4010E946E3963
:104B700046E583ED91E00E94F21983E10E947803FB
:104B8000BC01990F880B990B0E94A63920E030E0F8
:104B900040EA50E40E945B3A20E030E040E85AE30B
:104BA0000E945B3A4B015C012DEC3CEC4CE450E480
:104BB0000E94563A181654F423E333E343E750E4D3
:104BC000C501B4010E94F73887FD09C0C501B401D1
:104BD0000E946E3946E58EEC91E00E94F21986E063
:104BE0000E94780380917C00886080937C0061E063
:104BF00070E080E090E00E94BD0380917A008064C4
:104C000080937A0080917A0086FDFCCF60917800D5
:104C10007091790090E080E00E94A4399B01AC0182
:104C20006AE979EA8CE894E40E94FC384B015C0163
:104C300023E333E343E950E40E94563A181654F450
:104C400026E636E646EA50E4C501B4010E94F7388C
:104C500087FD09C0C501B4010E946E3946E588ECA4
:104C600091E00E94F2193A986AE070E080E090E0EA
:104C70000E94BD0380E10E947803BC01990F880B5C
:104C8000990B0E94A63920E030E040EA50E40E94EF
:104C90005B3A20E030E040E85AE30E945B3A4B0187
:104CA0005C0126E636E646EE5FE30E94563A1816A9
:104CB00054F42DEC3CEC4CE450E4C501B4010E94EA
:104CC000F73887FD09C0C501B4010E946E3946E579
:104CD00082EC91E00E94F2198EE00E947803BC0100
:104CE000990F880B990B0E94A63920E030E040EA2A
:104CF00050E40E945B3A20E030E040E85AE30E9432
:104D00005B3A4B015C0126E636E646EE5FE30E9425
:104D1000563A181654F42DEC3CEC4CE450E4C50122
:104D2000B4010E94F73887FD09C0C501B4010E9493
:104D30006E3946E58CEB91E00E94F2198FE00E94FB
:104D40007803BC01990F880B990B0E94A63920E0CB
:104D500030E040EA50E40E945B3A20E030E040E876
:104D60005AE30E945B3A4B015C0126E636E646EECA
:104D70005FE30E94563A181654F42DEC3CEC4CE4D8
:104D800050E4C501B4010E94F73887FD09C0C50190
:104D9000B4010E946E3946E586EB91E00E94F2195B
:104DA000A8950E9498031092D2051092D105809187
:104DB000D1059091D205883E934061F00E9419057B
:104DC0008091D1059091D20501969093D205809360
:104DD000D105EDCF0E9498036091B6017091B701A3
:104DE0008091B8019091B9012AE530E050E040E0AF
:104DF0000E94EB06A8951092D2051092D105B12C15
:104E0000A12C8091D1059091D205883E934009F460
:104E100068C08091D1059091D2050E9443020E9402
:104E20001905E4E0EE2EF12C0E94120580EC0E94A0
:104E3000BB018AE18E0D0E94BB010E9406050E9403
:104E4000120581EC0E94BB0180E80E94D708982ED1
:104E500080E40E94D708982A80E20E94D708982A06
:104E600080E10E94D708982A88E00E94D708982AF3
:104E700084E00E94D708982A82E00E94D708982AE6
:104E800081E00E94D708982A3C98000000000000AA
:104E900000003D9800000000000000003C983D9A92
:104EA00000000000000000000E940605F701EA5320
:104EB000F94F8385891519F0FFEFAF1ABF0A2FEF5D
:104EC000E21AF20A38E0E316F10409F0ADCF80915E
:104ED000D1059091D20501969093D2058093D1058A
:104EE00090CFA895A114B10431F040E2B5018EEA4B
:104EF00091E00E94F21984E080936B01E091B3018C
:104F000064E0E69FF0011124E951FE4F8081918118
:104F1000A281B3818093EE059093EF05A093F005F5
:104F2000B093F10562E383E00E94D61D8091D00525
:104F3000883709F420C188E78093D0056FEF84E0BB
:104F40000E94D61D80EC0E9419098DE991E00E9413
:104F50008B1864EF71E080E090E00E94BD03A8959B
:104F60001092DE061092DD06FF24F394F092C70142
:104F70008091B5018093B0011092190682E0809370
:104F8000C6018093DD011092FB051092FA05809115
:104F9000F805082F017010E0000F111F000F111FFE
:104FA000F801E654FE4F80819181A281B381809304
:104FB000B6019093B701A093B801B093B901809165
:104FC000F80580FBCC24C0F8D12CF601EE53FE4F3F
:104FD00080818093DF010E9427090E940519F092C9
:104FE000F7051092C80585E19CE09093C705809372
:104FF000C60524E63EED45E050E061E082E00E9417
:10500000660580917C008093F4058091F50561E050
:10501000813009F460E029E937E741E050E080E0C1
:105020000E94660580917C008093F2058091F505D1
:1050300061E0813009F460E029E937E741E050E0C0
:1050400081E00E94660580917C008093F3051092B8
:1050500080001092810080918000826A809380009D
:1050600080918100896180938100109287008CEC8F
:1050700080938600109289001092880010928B0015
:1050800010928A008091B6008F7D8093B6001092B6
:10509000B0001092B1001092B2008091B000826016
:1050A0008093B0008091B10084608093B1008091C2
:1050B000700082608093700083E08093B3008091E1
:1050C00080008F7D8093800060E08AE00E940E0364
:1050D000E0913406F091350682E08083E09130065D
:1050E000F09131061082E0913206F091330680E4AF
:1050F000808310923C06E0913806F091390686E0F4
:105100008083E0913606F09137068081886980833C
:10511000E0913606F091370680818F7D8083809103
:10512000C90581110E94321A10920D0680E1809308
:105130000C066091B1017091B2018CED95E00E9476
:10514000F83ACB01770FAA0BBB0B80930406909320
:105150000506A0930606B09307068DE00E94E502BF
:10516000892B09F047C040E070E060E08FE891E0F3
:105170000E94F219F2CF81E10E94E502892B09F029
:10518000DACE6FEF83E00E94D61D83E891E00E94A3
:10519000B11A8093CF058091CF05823010F0109224
:1051A000CF0584E891E00E94B11A8093CE0585E88E
:1051B00091E00E94B11A8093CD0586E891E00E94AB
:1051C000B11A8093CC0587E891E00E94B11A8093D0
:1051D000CB058091CF05882309F4C2CE81E080936E
:1051E000DF018093F90510926A011092C601809345
:1051F000CA05B6CE8091DF01823051F48091CB0197
:10520000823031F08CE00E94E502892B09F4ABCFAB
:105210006AE0462E512C612C712C8091190688234E
:1052200091F18091DF01882321F08091DF018130AD
:1052300051F58091180681111DC18091170691E0EA
:10524000980F90931706803109F0DBC08091150606
:105250009091160654E0969587955A95E1F7805EF1
:1052600091400E942C16109217061092160610926A
:10527000150680911406882331F081E0809318068A
:105280008FEF0E9403148091DF01823009F07CC00F
:105290008091DE01882309F477C080911406811182
:1052A00073C08091100690911106A0911206B091E2
:1052B0001306892B8A2B8B2B09F066C08090DA05A8
:1052C0009090DB05A090DC05B090DD05C0906D01ED
:1052D000D0906E01E0906F01F0907001C501B401B3
:1052E0006C197D098E099F0920E031E040E050E013
:1052F0000E942E3BC20ED31EE41EF51EC0926D010D
:10530000D0926E01E0926F01F0927001C701B60178
:1053100022E030E040E050E00E942E3B11E02815F2
:1053200039054A055B050CF010E01093D905809112
:10533000D805181751F00E94F0036093D4057093BC
:10534000D5058093D6059093D7050E94F0038090F1
:10535000D4059090D505A090D605B090D7056819D2
:1053600079098A099B09613171058105910508F464
:1053700090C08091D30518131093D3050E94B512E5
:105380008091D9058093D80580910F06811129C09D
:1053900080910E06882309F491C087E0E0EEF1E0E9
:1053A000DE01119601900D928A95E1F7E091DD0101
:1053B00081E090E08C0F9D1F8E0F911DFC011081EC
:1053C0000E94240910920E0680E80E941909612F9C
:1053D00070E064537E4F81EC96E00E942A1A0E948E
:1053E00048091091DF01123029F48091CB018230FD
:1053F00009F0C7C18091DF01823009F41FC31DE0AD
:1054000023C3F89483E880937A0080916C01803202
:1054100020F060E088E00E940E0390917C00809173
:105420007A0084FFFCCF8091F40580937C0080910A
:105430007A00806480937A0080917A0084FFFCCFA8
:1054400090937C0080916C01803220F061E088E0D4
:105450000E940E0320917800309179007894809119
:10546000150690911606820F931F9093160680934F
:105470001506FFCE80911406811105CF0E940314FA
:105480001092180660E270E080E090E00E94BD0398
:10549000FACEC701B60124E630E040E050E00E94B9
:1054A0002E3BC20ED31EE41EF51EC0926D01D0929B
:1054B0006E01E0926F01F092700160CF8091100652
:1054C00090911106A0911206B0911306892B8A2B98
:1054D0008B2B09F086CF80911806811182CF8091A5
:1054E000E6059091E705A091E805B091E9052091C6
:1054F000E2053091E3054091E4055091E5058217FE
:105500009307A407B50740F02091E6053091E70521
:105510004091E8055091E9052093E2053093E305B9
:105520004093E4055093E5058091DD01882309F45B
:1055300058CF8091E0059091E10501969093E105A7
:105540008093E0059770892B09F04BCF2115310529
:105550004105510509F4F9C0C12CD12C76012A303E
:1055600031054105510560F0CA01B901A30192015D
:105570000E940C3B9FEFC91AD90AE90AF90AEFCF3A
:10558000109172012150310941095109220F331F35
:105590002D503E4FD901ED91FC91A8EEB3E0A7014B
:1055A00096010E94713B6E0F7F1F811D911D22E3AA
:1055B00030E040E050E00E942E3BB6E01B9FC0016F
:1055C0001124092E000CAA0BBB0B820F931FA41FE2
:1055D000B51F9C01AD01295B310941095109309387
:1055E000DF052093DE050E9424098091DD018130D2
:1055F00079F489E80E9419096091DE057091DF0550
:1056000081EC96E00E94EC1981E292E00E948B18F6
:105610008091DD01823019F58091DE059091DF05E2
:10562000813CEFEF9E070CF097C081589F4F66E0DA
:1056300070E00E94F83A162F8EE80E9419091A307D
:1056400028F463E581EC96E00E94FC03412F50E0D2
:1056500070E060E02AE081EC96E00E946E19809193
:10566000DD01833009F03FC08091DE059091DF05B8
:10567000813CFFEF9F070CF078C081589F4F66E098
:1056800070E00E94F83AFE01319684EF860F8F0198
:1056900025E030E042E050E0A62F062E000CBB0BC8
:1056A0001196BE87AD873C872B8715970CF066C097
:1056B000DE011D965A874987ED90FC90119793E083
:1056C000E916F10414F4DE0119969C91919363504C
:1056D0008613E2CF1D828CE80E941909B80181EC83
:1056E00096E00E942A1A8091DD018430B9F48EE898
:1056F0000E9419098091DF01823051F440917101BB
:1057000050E070E060E02AE081EC96E00E946E19C3
:1057100069EF72E081EC96E00E942A1A0E94480923
:105720008091E2059091E305A091E405B091E50533
:10573000B695A795979587958093E2059093E30595
:10574000A093E405B093E5054CCE81E89FEF9093DC
:10575000DF058093DE0547CF875B1AE0612F0E944B
:10576000D83A819F102D112467CF875B2AE0622FE2
:105770000E94D83A829F602D112485CFDE011B96AE
:1057800099CF80910D06823009F4E4C008F088C0FA
:10579000882309F4A9C0813009F4C3C0C090100661
:1057A000D0901106E0901206F0901306C114D104B7
:1057B000E104F10451F00E94F003C616D706E80692
:1057C000F90618F480E00E94031481E10E94E502CA
:1057D000892B09F478C48091FE0582FD05C0809173
:1057E000FE05857009F463C18091FE05807F90916C
:1057F0002306992309F4DAC19CE0892B8093FE05E6
:105800008091FE05823209F464C308F0F7C1863145
:1058100008F0CEC1843108F09AC2813109F49DC2EA
:1058200080910F06811107C09091F60580910F06B7
:10583000981709F47DC51091230680910F068130D9
:1058400009F047C4112309F446C4909123068091BE
:10585000FD05890F8093FD058091FD058D320CF0CB
:1058600035C48091FD05082E000C990B18161906F9
:1058700014F081E090E08093FD056091FD0582E0E9
:105880000E94D61D8093FD051092230680910F067D
:1058900060E081116091FD0581E00E94D61D21C468
:1058A000843009F492C008F46EC0853009F076CFD8
:1058B0000E9415190E94F003C0900006D0900106C6
:1058C000E0900206F0900306C616D706E806F90631
:1058D00008F064CF80910C0682FFAAC08A7F809373
:1058E0000C0610930D065ACF8CE00E94E502892B1E
:1058F00071F4109208061092090610920A0610928E
:105900000B060E94151981E080930D0647CF8DE0AC
:105910000E94E502892B69F380910C06837049F798
:105920003DCF80910C0680FFDCCF846080930C0615
:105930008091040690910506A0910606B091070695
:105940008093000690930106A0930206B09303068D
:1059500083E0DACF80910C0681FF6DC020910406B0
:10596000309105064091060650910706A3E0B0E08D
:105970000E94713B609300067093010680930206BB
:1059800090930306E5CF81E00E9403140E94F00388
:105990000091000610910106209102063091030645
:1059A000DC01CB01800F911FA21FB31F8093000663
:1059B00090930106A0930206B093030680910C0613
:1059C0008C7F80930C0684E09FCF0E94F0030091AF
:1059D0000006109101062091020630910306061779
:1059E000170728073907E8F480E00E9403140E9493
:1059F000F0030091040610910506209106063091EF
:105A00000706DC01CB01800F911FA21FB31F8093FB
:105A1000000690930106A0930206B093030685E06A
:105A200073CF80910C0684FFB9CE0E941519B6CEB3
:105A30008D7F80930C0610920D06B0CE8091FF05ED
:105A40001CE0882309F4DBCC809118068111A6CED6
:105A5000812F0E94E502892B09F0A0CE1092080642
:105A60001092090610920A0610920B0681E00E941D
:105A70000314A8958091DF018230A1F46AE070E000
:105A800080E090E00E94BD0381E10E94E502892B45
:105A900029F4812F0E94E502892B59F380E00E94AE
:105AA00003147CCE64E670E080E090E0EBCFF894E5
:105AB00080917A0084FFFCCFE0907A00F0907C0027
:105AC00080917A00877F80937A0080917A00876046
:105AD00080937A0080E480937C0061E070E080E055
