:100000000C947D010C94A5010C94A5010C94A50100
:100010000C94A5010C945A220C94A5010C94332243
:100020000C94A5010C94A5010C94A5010C94A501B8
:100030000C94A5010C94A5010C94A5010C94A501A8
:100040000C9491210C94A5010C9401220C94DB21B9
:100050000C94A5010C94A5010C94A5010C94A50188
:100060000C94A5010C94A5014541374C4A59003A1E
:1000700020004261636B6C696768740049512050CD
:100080006861736500526566206672657100504153
:100090002042696173206D6178005041204269619E
:1000A00073206D696E004E6F6973652047617465DA
:1000B00000564F58005072616374696365004B6568
:1000C0007965722053776170004B65796572204DB8
:1000D0006F6465004B6579657220537065656400D7
:1000E00053656D692051534B004357204465636F3E
:1000F00064657200532D6D6574657200415454320D
:1001000000415454004E52004147430052495400AC
:1001100056464F204D6F64650054756E65205261E0
:1001200074650042616E640046696C7465722042B9
:1001300057004D6F646500566F6C756D6500FFFE6E
:10014000FCF9F5EFE9E2D9D0C6BBB0A4988B7F7378
:10015000665A4E43382E251C150F09050200202033
:1001600020202020202000436865636B20505454D9
:100170002F6B6579005265736574207365747469BB
:100180006E67732E2E004245525F693263005661DE
:100190006463310056616463300056616463320009
:1001A00056617663630056332E330056352E300089
:1001B000312E3033780020520008040A050A040862
:1001C00000000000000000000010101010101010BF
:1001D00010101014141414141410101515151515EE
:1001E000150C121E12120000001C121C121C000022
:1001F00000000000000000000064426D2000506F0D
:100200007765722D6F6666203733203A2D290052AC
:100210004954200000000000240027002A000000AC
:100220000000250028002B0000000000230026000D
:100230002900040404040404040402020202020269
:100240000303030303030202030102040810204016
:1002500080010204081020010204081020408040A0
:10026000000000090003020000040508000000006F
:10027000000000000000007E20455449414E4D53CF
:10028000555257444B474F4856462A4C2A504A42EB
:100290005843595A512A2A353453332A2A2A322AA2
:1002A0002A2B2A2A2A4A31363D2F2A2A2A482A3737
:1002B0002A472A382A39302A2A2A2A2A2A2A2A2A5E
:1002C0002A2A2A3F5F2A2A2A2A222A2A2E2A2A2A48
:1002D0002A402A2A2A272A2A2D2A2A2A2A2A2A2A68
:1002E0002A3B212A292A2A2A2A2A2C2A2A2A2A3A55
:1002F0002A2A2A2A0000A222E23311241FBECFEFAD
:10030000D8E0DEBFCDBF13E0A0E0B1E0E8E1F6E762
:1003100002C005900D92A43DB107D9F726E0A4EDE7
:10032000B3E001C01D92A53DB207E1F711E0CCE7B3
:10033000D1E004C02197FE010E94D639CB37D10706
:10034000C9F70E94ED220C94FF3A0C9400008091B2
:10035000DE01882381F05B9A8091C10088618093DF
:10036000C10080911906811104C080911806811185
:100370004298789408955B98EFCF3C9A3D9800009E
:100380000000000000003C9887B18F7C87B93C9A40
:1003900008953D98000000000000000021E63AEEBC
:1003A000359903C021503109D9F796B190713D9A22
:1003B0000000000000000000911101C080E00895DD
:1003C00087FF76C03C983D980000000000000000C8
:1003D0003D9A000000000000000086FF6BC03C98C2
:1003E0003D9800000000000000003D9A0000000061
:1003F0000000000085FF60C03C983D9800000000B0
:10040000000000003D9A000000000000000084FF92
:1004100055C03C983D9800000000000000003D9A47
:10042000000000000000000083FF4AC03C983D9897
:1004300000000000000000003D9A000000000000E5
:10044000000082FF3FC03C983D9800000000000083
:1004500000003D9A000000000000000081FF34C051
:100460003C983D9800000000000000003D9A00000C
:1004700000000000000080FF29C03C983D9800006B
:100480000000000000003D9A000000000000000095
:100490003C9800000000000000003D9800000000B3
:1004A000000000003D9A00000000000000000895D8
:1004B0003C9A89CF3C9A94CF3C9A9FCF3C9AAACF42
:1004C0003C9AB5CF3C9AC0CF3C9ACBCF3C9AD6CF82
:1004D0003D9A00000000000000003C980895CF9372
:1004E000DF930E94680280EC0E94E0018EE10E948E
:1004F000E001C7EBD6E08F850E94E00188890E9469
:10050000E00189890E94E0018A890E94E001DF916F
:10051000CF910C94BD012F923F924F925F926F92B8
:100520007F928F929F92AF92BF92CF92DF92EF9283
:10053000FF920F931F93CF93DF9300D000D0CDB7DE
:10054000DEB72091BE063091BF064091C0065091A3
:10055000C10629833A834B835C832091BB06C090FC
:10056000CA06D090CB06E090CC06F090CD0630E0E5
:10057000DC010E94F3394B015C01BB0C8808982C0C
:1005800054019B01AC01682D782D882D982D07E131
:100590000E94AD3A56016701E12CF12C00E010E019
:1005A0000E940F3A49015A0149805A806B807C8031
:1005B000480C591C6A1C7B1C8091BC069091BD069E
:1005C000860D971D8093C60680E18093C706852D12
:1005D00099278093C8064092C9060F900F900F90FC
:1005E0000F90DF91CF911F910F91FF90EF90DF90CF
:1005F000CF90BF90AF909F908F907F906F905F90C3
:100600004F903F902F900895FF920F931F93CF9399
:10061000DF93C82FF62E072F142F0E94680280EC5C
:100620000E94E0018C2F0E94E001CF2DD02F1150AD
:1006300020F089910E94E001FACFDF91CF911F91C4
:100640000F91FF900C94BD01CF93DF931F92CDB714
:10065000DEB7698341E0BE016F5F7F4F0E940403F4
:100660000F90DF91CF9108952F923F924F925F921A
:100670006F927F928F929F92AF92BF92CF92DF92B2
:10068000EF92FF920F931F93CF93DF93CDB7DEB717
:1006900064970FB6F894DEBF0FBECDBF898B4801BB
:1006A0005901FB8AEA8ACC8ACB01BA01A9019801D7
:1006B0000E949539290119012430310509F497C0A8
:1006C0009B01AC0160E070E080E090E000E10E94FE
:1006D000AD3AF9017501640100E010E098018986E6
:1006E000DA86AB86FC860D871E872F87388B5401F0
:1006F0006701E12CF12C00E010E09F010E94403ADC
:10070000A32FF42FE52F422F5A2F6F2F7E2FC12CAE
:10071000D12C7601E394CB01BA0127E0660F771F55
:10072000881F991F2A95D1F7A70196010E94953934
:1007300042019694982C882497948794B12CA12CEC
:1007400002E0901AA108B108280D391D4A1D5B1D51
:10075000BC89A0E1BA9FF0011124842E8E2AE4E026
:100760002E16310409F04CC0ECE01982CA828E2AA0
:100770008B823C832D8394E0CC0CDD1CEE1CFF1C93
:100780009A95D1F7E82AEE827F83688748E0BE0118
:100790006F5F7F4F8989880F880F880F865D0E9461
:1007A0000403612F6295660F660F607CC988C7FEDF
:1007B00029C060688C2D885E0E94240364960FB661
:1007C000F894DEBF0FBECDBFDF91CF911F910F9187
:1007D000FF90EF90DF90CF90BF90AF909F908F9061
:1007E0007F906F905F904F903F902F90089540E0E2
:1007F00050E0BA0111E0C12CD12C7601C3948BCF0B
:10080000E0E0B3CF6F608989805F0E942403EA88AB
:10081000FB88E49CA001E59C500DF49C500D112434
:1008200021E01227212F30E0429FC001439F900D0D
:10083000529F900D11246AE570E00E946D398989FC
:100840008B55BACF2F923F924F925F926F927F92C9
:100850008F929F92AF92BF92CF92DF92EF92FF92D0
:100860000F931F93CF93DF93CDB7DEB760970FB68B
:10087000F894DEBF0FBECDBF4B015C0149875A83A0
:1008800029833B8321E0821623EA920621EEA20609
:1008900021E1B206DCF023E030E0CA01B9010E9498
:1008A0006D3969877A8389819B81B9010E946D398D
:1008B00069837B83C501B40123E030E040E050E070
:1008C0000E94B73949015A01188611C060E28616A4
:1008D00061EA960667E0A606B104B4F747E0880C23
:1008E000991CAA1CBB1C4A95D1F777E0788780E851
:1008F000881683EC980689ECA80681E0B806CCF44B
:100900006091CA067091CB068091CC069091CD067D
:10091000A0EE8A16A7E69A06A5E3AA06B1040CF48F
:1009200045C124E0660F771F881F991F2A95D1F7CC
:1009300049C16091CA067091CB068091CC06909116
:10094000CD0635E0660F771F881F991F3A95D1F7BE
:10095000A50194010E9495391901B1E08B16BBE302
:100960009B06B8E5AB06B8E0BB060CF031C120FE33
:1009700003C02FEF221A320AD101A5019401285891
:100980003341410951090E94FA396B017C012091E0
:10099000CA063091CB064091CC065091CD064090CE
:1009A000CA065090CB066090CC067090CD064C8263
:1009B0005D826E827F820E94953929013A01910100
:1009C000A0E1B7E20E94E4396C0D7D1D8E1D9F1DD4
:1009D0002C813D814E815F810E94953942165306DC
:1009E0006406750619F022E0220E311CD101A50122
:1009F00094010E94FA392B013C010091CA06109122
:100A0000CB062091CC063091CD06C12CF12CE12CE7
:100A1000BC01A2018EEF0E943403C884E984FA80ED
:100A200095018401B301A20180E00E943403C884CF
:100A3000E980FB809501B301A20181E00E943403AB
:100A4000C884F12CE12C9501B301A20182E00E943F
:100A500034036985062E000C770B8981681B7109A8
:100A600087FD73957D836C83C301B201A501940159
:100A70000E949539AC81BD81A29FC001A39F900DBA
:100A8000B29F900D11246AE570E00E948139809137
:100A9000CE069091CF068617970741F07093CF0648
:100AA0006093CE0660EA81EB0E9424036CEF83E042
:100AB0000E9424038092B7069092B806A092B906CD
:100AC000B092BA062092BB062091CA063091CB069E
:100AD0004091CC065091CD06C301B2010E949539D8
:100AE0002450310941095E4F3695322F2227379520
:100AF00027953093BD062093BC062091CA063091FD
:100B0000CB064091CC065091CD06C090CA06D0903D
:100B1000CB06E090CC06F090CD06C301B2010E9456
:100B200095392B013C01812C912C540169875A86FF
:100B30008B877C868D869E86AF86B88A9B01AC01AA
:100B400060E070E080E090E007E10E94AD3A2A8327
:100B5000398356016701E12CF12C00E010E02A8175
:100B600039810E94403AC901DA018093BE06909310
:100B7000BF06A093C006B093C10660960FB6F89466
:100B8000DEBF0FBECDBFDF91CF911F910F91FF90C0
:100B9000EF90DF90CF90BF90AF909F908F907F901D
:100BA0006F905F904F903F902F9008952091CA06CC
:100BB0003091CB064091CC065091CD06A7E0B0E035
:100BC0000E94FA39A50194010E9495391901CFCEEE
:100BD00094E0292E312CCBCECF936FEF83E00E948F
:100BE000240360E188E10E94240360E089E10E941F
:100BF0002403C0E160E88C2F0E942403CF5FC8313A
:100C0000C9F760E08BEB0E94240360E085E90E9455
:100C1000240362ED87EBCF910C942403E09112063C
:100C2000E7FD16C0F0E0E958FD4FE491EA3281F0AB
:100C3000E093DC0181E080931106EDECF1E081812D
:100C4000819381E0EC3DF807D1F780E28093DC01ED
:100C500081E0809312060895843081F028F4823078
:100C6000E9F08330F9F00895883071F0893091F01F
:100C70008530B9F4809180008F7D03C08091800021
:100C80008F778093800008958091B0008F77809354
:100C9000B00008958091B0008F7DF9CF84B58F7733
:100CA00084BD089584B58F7DFBCFCF93DF93282F2C
:100CB00030E0F901E05AFD4F8491F901E75BFD4F07
:100CC000D491F901EE5CFD4FC491CC23A1F08111C8
:100CD0000E942C06EC2FF0E0EE0FFF1FE85DFD4FA9
:100CE000A591B491EC91ED2381E090E009F480E0CE
:100CF000DF91CF91089580E090E0FACF1F93CF93DA
:100D0000DF93282F30E0F901E05AFD4F8491F9017B
:100D1000E75BFD4FD491F901EE5CFD4FC491CC230C
:100D2000A9F0162F81110E942C06EC2FF0E0EE0F97
:100D3000FF1FE25EFD4FA591B4918FB7F894EC913F
:100D4000111108C0D095DE23DC938FBFDF91CF91C6
:100D50001F910895DE2BF8CFCF93DF9390E0FC0135
:100D6000E75BFD4F24918E5C9D4FFC0184918823AD
:100D7000C9F090E0880F991FFC01EC5EFD4FA59132
:100D8000B491FC01E25EFD4FC591D49161110DC09B
:100D90009FB7F8948C91209582238C938881282387
:100DA00028839FBFDF91CF910895623051F49FB7A0
:100DB000F8943C91822F809583238C93E8812E2B8D
:100DC000EFCF8FB7F894EC912E2B2C938FBFEACFF7
:100DD000883020F08D3008F48DE08E50877080646C
:100DE00080937C0080917A00806480937A00809167
:100DF0007A0086FDFCCF809178009091790008956B
:100E0000880F991F880F991F05970197F1F708958B
:100E10003FB7F89480910D0690910E06A0910F06B1
:100E2000B091100626B5A89B05C02F3F19F001967A
:100E3000A11DB11D3FBFBA2FA92F982F8827BC0134
:100E4000CD01620F711D811D911D42E0660F771F5C
:100E5000881F991F4A95D1F708958F929F92AF925C
:100E6000BF92CF92DF92EF92FF926B017C010E94C2
:100E700008074B015C01C114D104E104F104B9F08D
:100E80000E940807681979098A099B09683E73401E
:100E90008105910580F321E0C21AD108E108F1082B
:100EA00088EE880E83E0981EA11CB11CE4CFFF9051
:100EB000EF90DF90CF90BF90AF909F908F9008956C
:100EC0002FB7F8946091090670910A0680910B067D
:100ED00090910C062FBF0895DC01ED91FC910190DB
:100EE000F081E02D0994AF92BF92CF92DF92EF9202
:100EF000FF920F931F93CF93DF936C017B018B01C4
:100F0000040F151FEB015E01AE18BF08C017D10713
:100F100059F06991D601ED91FC910190F081E02D9D
:100F2000C6010995892B79F7C501DF91CF911F91F2
:100F30000F91FF90EF90DF90CF90BF90AF9008950A
:100F4000FC01538D448D252F30E0842F90E0821BCF
:100F5000930B541710F0CF96089501970895FC0154
:100F6000918D828D981761F0A28DAE0FBF2FB11DAC
:100F70005D968C91928D9F5F9F73928F90E0089504
:100F80008FEF9FEF0895FC01918D828D981731F0BE
:100F9000828DE80FF11D858D90E008958FEF9FEF12
:100FA0000895FC01918D228D892F90E0805C9F4FE8
:100FB000821B91098F73992708958AE196E00E9418
:100FC000D10721E0892B09F420E0822F0895FC014C
:100FD000A48DA80FB92FB11DA35ABF4F2C91848D9A
:100FE00090E001968F739927848FA689B7892C93F7
:100FF000A089B1898C91837080648C93938D848D4A
:10100000981306C00288F389E02D80818F7D80834C
:101010000895EF92FF920F931F93CF93DF93EC010C
:1010200081E0888F9B8D8C8D98131AC0E889F9898F
:10103000808185FF15C09FB7F894EE89FF89608392
:10104000E889F98980818370806480839FBF81E013
:1010500090E0DF91CF911F910F91FF90EF90089555
:10106000F62E0B8D10E00F5F1F4F0F731127E02E30
:101070008C8D8E110CC00FB607FCFACFE889F98968
:10108000808185FFF5CFCE010E94E707F1CFEB8D80
:10109000EC0FFD2FF11DE35AFF4FF0829FB7F8943C
:1010A0000B8FEA89FB8980818062CFCFCF93DF935A
:1010B000EC01888D8823B9F0AA89BB89E889F98970
:1010C0008C9185FD03C0808186FD0DC00FB607FCA5
:1010D000F7CF8C9185FFF2CF808185FFEDCFCE01D8
:1010E0000E94E707E9CFDF91CF9108950F931F93F7
:1010F0008091190681111BC0809118068823B9F0D0
:101100008AE196E00E9456080E946007009114064A
:101110001091150620911606309117066017710779
:101120008207930710F4A895EFCF429A3A9A8091DC
:10113000C100877E8093C100F8941F910F9108959C
:10114000CF93C82F0E9476088BB1807F80618C2B53
:101150008BB984E090E00E9400075C980E94A70190
:101160008CE390E0CF910C940007CF93C82F829529
:101170008F700E94A0088C2F8F70CF910C94A008C4
:101180008CE00C94B508CF93DF93D82FC62F0E9424
:10119000680280E40E94E0018D2F0E94E0018C2F04
:1011A0000E94E001DF91CF910C94BD01CF93DF93BA
:1011B000D82FC92F6FEF87E00E94C3086FEF86E03A
:1011C0000E94C3086D2F82E00E94C30860E086E0A1
:1011D0000E94C3086C2F83E00E94C30860E087E090
:1011E000DF91CF910C94C30890917E00E1E0F0E094
:1011F000082E01C0EE0F0A94EAF79E2B90937E0012
:1012000010927A0010927B0010927C0090917C00EA
:10121000892B80937C0080917C0090E4611190EC9C
:10122000892B80937C0061EB77EC82E190E00E9457
:10123000953980E0369527952115310511F08F5F9E
:10124000F9CF90917A008770892B80937A008091F2
:101250007A00806880937A0008958091E5058093F4
:101260007C00EAE7F0E08081806480832091780050
:10127000309179002F5F314084E79BE09093BB056C
:101280008093BA05809196059091970540919405B9
:1012900050919505480F591FCA01880F991F840F57
:1012A000951F820F931F4091920550919305840FD3
:1012B000951F9595879530939705209396052091D6
:1012C00090053091910540918E0550918F05420F08
:1012D000531F9A01220F331F240F351F280F391F68
:1012E00040918C0550918D05240F351F30938B054F
:1012F00020938A059093910580939005089580919D
:10130000E50580937C00EAE7F0E0808180648083DB
:10131000809178009091790022E03AE03093BB050B
:101320002093BA052091940530919505309393054B
:10133000209392058F5F914090939505809394053B
:1013400008958091E50580937C00EAE7F0E08081D4
:101350008064808320917800309179002F5F314044
:1013600083E79AE09093BB058093BA0580918E0540
:1013700090918F0590938D0580938C0580919605B3
:10138000909197054091940550919505480F591FEC
:10139000CA01880F991F840F951F820F931F4091D8
:1013A000920550919305840F951F9595879590937D
:1013B0008F0580938E0530939705209396050895A9
:1013C0008091E50580937C00EAE7F0E0808180640D
:1013D0008083809178009091790023E03BE0309306
:1013E000BB052093BA052091940530919505309363
:1013F0009305209392058F5F91409093950580937C
:10140000940508958091E60580937C0080917A0090
:10141000806480937A0020917800309179002F5F6A
:1014200031408091840590918505820F931F97FD2F
:101430000196959587953093850520938405209195
:10144000EA05211140C040918005509181056091CD
:101450007E0570917F05640F751F9B01359527955B
:101460003595279535952795359527953595279564
:1014700020583F4F2F3F310509F07CF537FD31C033
:1014800070937F0560937E0560918205709183055E
:10149000460F571F50938105409380052093880085
:1014A0002DE239E03093BB052093BA0520918805E1
:1014B000309189053093870520938605909389059F
:1014C000809388050895109283051092820520E884
:1014D00070E060E050E040E0D3CF2FEF30E037FF26
:1014E000CFCF20E0CDCF8091E60580937C00809126
:1014F0007A00806480937A0040917800509179005E
:101500004F5F51408091840590918505840F951F10
:1015100097FD01969C01359527955093850540933D
:1015200084058091EA0581115EC04091800550914B
:10153000810560917E0570917F05640F751FCB0159
:101540009595879595958795959587959595879583
:101550009595879580589F4F8F3F910511F00CF01E
:101560004CC097FD4EC070937F0560937E056091DF
:10157000820570918305460F571F50938105409354
:101580008005809388008FE799E09093BB05809356
:10159000BA0580917C0590917D0590937B058093A1
:1015A0007A05809178059091790540918805509150
:1015B0008905480F591FCA01880F991F840F951F6D
:1015C000820F931F4091860550918705840F951FC8
:1015D0009595879590937D0580937C05309379054B
:1015E000209378050895109283051092820580E873
:1015F00070E060E050E040E0B6CF8FEF90E097FF02
:10160000B2CF80E0B0CF8091E60580937C008091DE
:101610007A00806480937A0020917800309179007C
:101620002F5F31408091840590918505820F931F33
:1016300097FD0196959587953093850520938405B0
:101640002091EA05211140C040918005509181050B
:1016500060917E0570917F05640F751F9B01359524
:101660002795359527953595279535952795359562
:10167000279520583F4F2F3F310509F07CF537FD66
:1016800031C070937F0560937E05609182057091F3
:101690008305460F571F5093810540938005209383
:1016A000880021EA39E03093BB052093BA052091E8
:1016B000880530918905309387052093860590939E
:1016C00089058093880508951092830510928205FC
:1016D00020E870E060E050E040E0D3CF2FEF30E052
:1016E00037FFCFCF20E0CDCF4F925F926F927F92A6
:1016F0008F929F92AF92BF92CF92DF92EF92FF9222
:101700000F931F93CF93DF938091E60580937C0026
:1017100080917A00806480937A00409178005091A3
:1017200079004F5F51408091840590918505840F29
:10173000951F97FD01969C0135952795509385053A
:10174000409384058091EA058111DDC2E091800516
:10175000F091810560917E0570917F056E0F7F1F6E
:10176000CB019595879595958795959587959595B1
:1017700087959595879580589F4F8F3F910511F0DC
:101780000CF077C397FDB1C370937F0560937E051E
:1017900040918205509183054E0F5F1F5093810544
:1017A000409380058093880080EE99E09093BB057C
:1017B0008093BA05809178059091790540918805CC
:1017C00050918905480F591FCA01880F991F840F2E
:1017D000951F820F931F4091860550918705840FB6
:1017E000951F95958795309379052093780560909E
:1017F00076057090770520917C0530917D05260D4A
:10180000371D3901660C771C620E731E680E791E37
:1018100020917A0530917B05620E731E90937705B7
:101820008093760560918A0570918B058091EA0519
:10183000811154C2809174059091750520917205B3
:1018400030917305AC01421B530B9A014091700516
:1018500050917105D901A41BB50BAD0150938305BF
:101860004093820540916F05542F4F5F40936F0561
:10187000511107C07894809174059091750540913D
:101880006F053093710520937005909373058093D5
:1018900072058091710102C0759567958A95E2F78E
:1018A000C0905705D0905805A0906B05B0906C057E
:1018B000E0905B05F0905C05A0916705B09168052C
:1018C000F701EA1BFB0B00915F0510916005C091C9
:1018D0006305D091640598012C1B3D0B8090530546
:1018E00090905405861A970AC6018A199B09880F99
:1018F000991F880F991F880E991E97FE03C05FE3FA
:10190000850E911C082C892C000C881C9908000C51
:10191000881C991CCF01820F931F97FD0796959500
:1019200087959595879595958795880E991ECF01F2
:10193000880F991F880F991F8E0F9F1F821B930B73
:1019400097FF02C081589F4F880F892F881F990BDE
:10195000880D991D37FF02C02F5F3F4F35952795A2
:10196000280F391F80915505909156059093540585
:1019700080935305D0925605C09255058091590524
:1019800090915A059093580580935705F0925A0507
:10199000E092590580915D0590915E0590935C05FC
:1019A00080935B0510935E0500935D058091610552
:1019B000909162059093600580935F05D0936205D6
:1019C000C0936105809165059091660590936405CB
:1019D00080936305B0936605A093650580916905C2
:1019E00090916A059093680580936705B0926A05A7
:1019F000A092690580916D0590916E0590936C059C
:101A000080936B0570936E0560936D0580917101F5
:101A100002C0759467948A95E2F77092C50560924A
:101A2000C4057093520560935105E0914305F09110
:101A30004405809145059091460590934405809317
:101A40004305809147059091480590934605809302
:101A500045058091490590914A05909348058093EA
:101A6000470580914B0590914C0590934A058093D2
:101A7000490580914D0590914E0590934C058093BA
:101A80004B0580914F059091500590934E058093A2
:101A90004D057092500560924F05F195E195F10961
:101AA000E21BF30B90914205CFEFC90FC0934205A3
:101AB000C0903E05D0903F05E0904005F090410574
:101AC000911173C0C092D905D092DA05E092DB057E
:101AD000F092DC0510923E0510923F0510924005F1
:101AE000109241058091CC01843009F476C0809138
:101AF000CC01833009F4C2C180916901813009F4BD
:101B0000B4C08091B2018E300CF407C18091B20153
:101B10008D5002C0EE0FFF1F8A95E2F78091C4013D
:101B200081110DC18091EC05811129C1C09036054C
:101B3000D0903705E0903805F0903905CF7309F063
:101B4000B7C1C092CD05D092CE05E092CF05F092FC
:101B5000D005109236051092370510923805109274
:101B60003905E115B2E0FB0714F0EFEFF1E0E11504
:101B70002EEFF20714F4E0E0FEEFF0937505E0932A
:101B80007405415040936F05DF91CF911F910F91E4
:101B9000FF90EF90DF90CF90BF90AF909F908F908D
:101BA0007F906F905F904F900895CF01F7FD98C19F
:101BB000092E000CAA0BBB0B8C0D9D1DAE1DBF1D6D
:101BC00080933E0590933F05A0934005B093410557
:101BD0008091CC01843009F08ACF2091C4053091E6
:101BE000C505809151059091520537FF03C031958D
:101BF0002195310997FF03C091958195910982172D
:101C000093070CF474C18091510590915205E091B5
:101C1000C405F091C505F7FF03C0F195E195F10901
:101C2000F595E795F595E79597FF03C09195819513
:101C30009109E80FF91F80913C0590913D059F01A6
:101C4000281B390B37FF02C02F5F3F4F3595279573
:101C5000280F391F30933D0520933C05E21BF30B01
:101C600080916901813009F04CCF8091670190919A
:101C70006801811564E0960774F09C01232F330FEF
:101C8000330B25952595DF01A29FF001A39FF00D51
:101C9000B29FF00D11242F2F259525953F2F330F3F
:101CA000330B37FDE2C161E070E0DB01A21BB30B37
:101CB0006FEF7FE7681B790BA617B70734F48A0F1D
:101CC0009B1F9093680180936701181619060CF00A
:101CD000C5C12091B20180E190E023C0109275054A
:101CE000109274051092730510927205109271058E
:101CF000109270051092EA0550E040E030E020E0DC
:101D000090E080E0ABCD109283051092820580E8D0
:101D100070E060E0F0E0E0E037CD2091B2018DE0CE
:101D200090E0821B910927FD939502C0F595E795F8
:101D30008A95E2F78091C401882309F4F3CE0091DB
:101D40002205109123052091C401CF01801B910B26
:101D50002150330B61E070E002C0660F771F2A95B7
:101D6000E2F70E948139FB01E00FF11FF093230598
:101D7000E09322058091EC05882309F4D7CE809169
:101D8000EC05E0902E05F0902F05C0903205D09024
:101D90003305843008F0B4C0809134059091350546
:101DA000F0933505E0933405DF01A81BB90B9F01C3
:101DB00022953295307F3227207F3227CF01880F3E
:101DC000991F880F991F880F991F280F391F2E0FF1
:101DD0003F1F8EE190E0A89FF001A99FF00DB89FF2
:101DE000F00D11242E0F3F1F35952795359527951A
:101DF0003595279535952795359527958091EC054F
:101E0000823009F457C2833009F43EC2813009F4AC
:101E1000FBC1A0912A05B0912B058091EC050091A2
:101E2000280510912905823009F4CDC1833009F4C9
:101E3000A8C1813009F469C1E0912405F09125051C
:101E40001093270500932605F0932905E0932805B4
:101E5000F0922D05E0922C05B0932F05A0932E054E
:101E6000D0923105C092300530933305209332056E
:101E70005DCE8FEF90E097FF87CC37C08091C4058F
:101E80009091C5058E0F9F1F20913A0530913B051B
:101E9000829FF001839FF00D929FF00D112480919D
:101EA000C4059091C50590933B0580933A0524CED7
:101EB000CF01F7FF04C0882799278E1B9F0B092E9F
:101EC000000CAA0BBB0B8C0D9D1DAE1DBF1D80937E
:101ED000360590933705A0933805B093390541CE68
:101EE000882799278E1B9F0B63CE80E04DCC809175
:101EF000C4059091C505E0915105F09152058BCE36
:101F00008091EC05853009F4F0C108F4EEC086300C
:101F100009F4AFC020912C0530912D05A3ECBFEF43
:101F2000873009F0EFC10E94DC394B015C012EE6DD
:101F300030E0D7010E94F33995018401060F171F85
:101F4000281F391F37FF04C0015C1F4F2F4F3F4F21
:101F500056E035952795179507955A95D1F70C0DAD
:101F60001D1D10932B0500932A058091EC05A09070
:101F70002805B0902905853009F4C9C108F480C04E
:101F8000863009F4F9C1873009F0F1C1C701880F23
:101F9000991FB801681B790B80902C0590902D0536
:101FA000860E971E97FE03C08FE1880E911C9594B4
:101FB0008794959487949594879495948794959411
:101FC00087942091260530912705A2ECBFEF0E944F
:101FD000DC392B013C0120E730E0D5010E94F339C8
:101FE000460E571E681E791E77FE05C0AFE34A0EE7
:101FF000511C611C711CC301B20126E095958795A7
:10200000779567952A95D1F7680D791D7093250509
:1020100060932405B0922705A092260570932905A8
:1020200060932805F0922D05E0922C0510932F0562
:1020300000932E05D0923105C0923005F093330500
:10204000E093320577FF02C0695F7F4FFB01F59592
:10205000E795F595E795F595E79568CD81E090E0F2
:10206000909368018093670134CE319521953109B1
:102070001ACE20912C0530912D05A2ECBFEF53CF45
:10208000843009F074C12091260530912705ACEC0D
:10209000BFEF0E94DC392B013C012FE530E0D50178
:1020A0000E94F339460E571E681E791E77FE05C042
:1020B000BFE34B0E511C611C711CD6E075946794F4
:1020C00057944794DA95D1F7C701880F991F980163
:1020D000281B390BC90120912C0530912D05820F49
:1020E000931FBC01640D751D91CF843009F00AC1A6
:1020F00020912C0530912D05A7ECBFEF0E94DC3913
:102100004B015C0122E730E014CF809126059091CD
:102110002705F701EE0FFF1FEA0FFB1F60912C054B
:1021200070912D05E60FF71FF595E7955C01AA0C58
:10213000BB1CAA0CBB1CAA0CBB1CBC01660F771FE6
:102140006A0D7B1D680F791F5801AA0CBB1CC801C2
:1021500082959295907F9827807F9827A80EB91E28
:10216000A60EB71EB594A794B594A794B594A7945A
:10217000B594A794EA19FB09F0932505E09324058B
:102180005FCEF701EE0FFF1FEA0FFB1F80912C05BA
:1021900090912D05E80FF91FF595E795F595E795D1
:1021A0008091260590912705880F991F880F991F08
:1021B0009595879595958795959587959595879507
:1021C000E81BF90BD9CFF701EE0FFF1FEA0FFB1F3A
:1021D00080912C0590912D05E80FF91FF595E79555
:1021E000F595E795A0902605B0902705AA0CBB1C95
:1021F000AA0CBB1CAA0CBB1CC801880F991F880F16
:10220000991FA80EB91EAECFE0912C05F0912D05B7
:10221000D601AA0FBB1FA20FB31F8091300590916A
:102220003105A80FB91FB595A795B701660F771FA0
:10223000660F771FC701880F991F880F991F880F96
:10224000991F860F971F8E0D9F1DBF01660F771F69
:10225000660F771F660F771F8F01000F111F600F2A
:10226000711F6E0F7F1F860F971F95958795959508
:1022700087959595879595958795A81BB90BB093EC
:102280002B05A0932A05C9CDD601AA0FBB1FA20F0B
:10229000B31F8091300590913105A80FB91FB595F6
:1022A000A79580912C0590912D05880F991F880F77
:1022B000991FDBCFD601AA0FBB1FA20FB31F8091BE
:1022C000300590913105A80FB91FB595A79580915C
:1022D0002C0590912D05880F991F880F991F880F45
:1022E000991FB701660F771FBECF20912C05309143
:1022F0002D05A4ECBFEF0E94DC394B015C0121E706
:1023000030E017CE00912A0510912B052ECEC70183
:10231000880F991FB801681B790B80902C0590904D
:102320002D05860E971E97FE03C033E0830E911C89
:10233000959487949594879420912605309127054C
:10234000A5ECBFEF0E94DC392B013C012AE630E00E
:10235000D5010E94F339460E571E681E791E77FE7E
:102360004ACE5FE3450E511C611C711C44CE609146
:102370002405709125054ECEC701880F991FB8011D
:10238000681B790B80902C0590902D05860E971E6A
:1023900097FE03C06FE0860E911C959487949594E8
:1023A00087949594879495948794209126053091ED
:1023B0002705A2ECBFEF0E94DC392B013C0121E78D
:1023C00030E0D5010E94F339460E571E681E791E73
:1023D00077FE11CE7FE3470E511C611C711C0BCEA2
:1023E000CF92DF92EF92FF926B017C010E94600717
:1023F000C60ED71EE81EF91E0E9460076C157D05EB
:102400008E059F05C0F4A89581E10E9455060197AD
:1024100029F48CE00E945506892B39F481E10E9451
:102420005506019771F0A895F9CF8DE00E945506E9
:10243000892B11F7F3CF80E0FF90EF90DF90CF90E2
:10244000089581E0F9CFEAE7F0E08081806480833D
:102450008091100580938A000E946F02809178001D
:102460009091790020916A01925002C0880F991FC3
:102470002A95E2F70C948B02CF93DF9300D000D023
:1024800000D0CDB7DEB780917A00806480937A0067
:102490008091100480938A00809178009091790057
:1024A00020916A0192502450330B02C0880F991F6B
:1024B0002A95E2F780969E838D832FEF30E03C8350
:1024C0002B83FE018F3F9105B4F033961A82198257
:1024D000808191811816190614F0FE0131968081D1
:1024E0008093100426960FB6F894DEBF0FBECDBFC2
:1024F000DF91CF9108953596E9CFCF92DF92EF9299
:10250000FF92CF93DF9390918A00809110059817E6
:1025100098F4CFE1D0E02197FE01E25CFE4FE49118
:10252000F0E0EF5EFB4F808180938A008CE390E0C7
:102530000E940007209779F78091100580938A0008
:10254000E091B10184E0E89FF0011124E45BFD4FCC
:102550002081318142815381A3E3B0E00E94FA39A6
:1025600020EC32E140E050E00E94B7396901A091CF
:102570006501B091660140910E0450910F049601DF
:102580000E94DC39672F782F892F992787FD9A952C
:10259000640F751F70930F0460930E04A0910E04D6
:1025A000B0910F0440916501509166010E94DC39A1
:1025B000672F782F892F992787FD9A95461B570BF0
:1025C000509366014093650180910E0490910F0431
:1025D0004091B20128E130E0241B310947FD3395D9
:1025E00002C0959587952A95E2F7805880938800D8
:1025F000DF91CF91FF90EF90DF90CF9008950895F5
:102600000F931F93CF93DF93ECEEF3E02AE034E0D7
:1026100042815381419351932E173F07C9F720916F
:10262000BD05E091EA03F091EB03222309F450C1C8
:1026300047E04E9F90014F9F300D1124280F391F06
:1026400037FF02C0295F3F4FD3E035952795DA95D4
:10265000E1F73093EB032093EA03821B930B97FD82
:1026600001969595879590930B0480930A04809129
:10267000FA039091FB03FC01EE0FFF1FA091F403FE
:10268000B091F5034091000450910104A41BB50BD7
:102690004091F8035091F9036091FC037091FD03A0
:1026A000461B570B2091EC033091ED036091080419
:1026B00070910904261B370B220F331F6091F00322
:1026C0007091F103C0910404D09105046C1B7D0B43
:1026D00013E0660F771F1A95E1F7260F371FBD012C
:1026E00004E0660F771F0A95E1F7ED01CC0FDD1FBF
:1026F000CC0FDD1F6C0F7D1F6A0F7B1F260F371F4E
:10270000BA0104E0660F771F0A95E1F7260F371F1D
:1027100066E0359527956A95E1F7240F351FBC01D2
:1027200097FF03C0719561957109A90137FF02C038
:102730004F5F5F4F5595479557FF03C051954195A2
:102740005109461757070CF0ECC0C90137FD079631
:10275000A3E095958795AA95E1F797FF03C091951A
:1027600081959109860F971F40916B0148171906B3
:1027700008F0E9C040910606442309F4E2C04EEF98
:102780004093060640916A0102C0880F991F4A953E
:10279000E2F78F3F910509F020F440916A0148303B
:1027A00011F48FEF90E040910606442309F4D4C061
:1027B0008F5E9B4FDC018C9180931004E90137FF01
:1027C00004C0CC27DD27C21BD30B8F01F7FF04C049
:1027D000002711270E1B1F0B0C171D070CF0BEC086
:1027E00045EE4003C001419F900D1124BE010E949F
:1027F00081396A597F4F609FC001619F900D709F22
:10280000900D1124BE010E94813986E990E0AC014F
:10281000461B570BBA01F7FF06C08CE291E0DC01C2
:10282000A61BB70BBD0137FF03C0719561957109F8
:102830008091E6039091E7039B01281B390B70936D
:10284000E7036093E60337FF02C0285A3D4F8091AB
:10285000EC05882309F49EC08091EC05833009F0D3
:102860009CC086E990E08217930714F58091EC05EF
:10287000882309F495C08091EC05833009F093C05A
:1028800086E990E0281B390B621B730B7093E703FA
:102890006093E6038091EC0528E532E0882341F05F
:1028A0008091EC0526E930E0833011F02CE231E034
:1028B0008091CC01813009F079C0C90123E0880FF3
:1028C000991F2A95E1F7DF91CF911F910F910895FC
:1028D0009C01220F331F4091E8035091E903240F1C
:1028E000351F440F551F841B950BC3E0D0E0BE017C
:1028F0000E9481397093E9036093E803CF01880F48
:10290000991F820F931FBE010E9481397093EB03C0
:102910006093EA03261B370B30930B0420930A04C1
:10292000A6CECF01F7FD079663E0959587956A954A
:10293000E1F797FF03C0919581959109840F951F49
:1029400013CF4FEF1DCF40910606442309F41ACF51
:1029500040910606415014CF80E02ECF70E060E039
:10296000309709F460CF45EEBE014603C001479F92
:10297000900D1124B8010E9481396A597F4F6C9FD4
:10298000C0016D9F900D7C9F900D1124B8010E9495
:10299000813941CF88E592E066CF8CE291E063CF48
:1029A00088E592E06FCF8CE291E06CCF48EF420374
:1029B000C001439F900D112486CFCF93DF93C09128
:1029C0007800D091790080917A00806480937A00B9
:1029D0000E946F028091100480938A008091780099
:1029E00090917900C80FD91F80917A0080648093FC
:1029F0007A0080910C0490910D040E9400132091A4
:102A0000780030917900C20FD31F20917A002064A2
:102A100020937A000E948B022091780030917900F7
:102A200090917A00906490937A00CE01820F931F68
:102A300097FD03969595879595958795805E91402E
:102A400090930D0480930C0480910606813031F43C
:102A500010928A006FEF83E00E94240380910606A3
:102A60008F3F31F46BEF83E0DF91CF910C9424031F
:102A7000DF91CF910895CF93C62F0E9476088BB136
:102A8000807F80619C2F92959F70892B8BB96BB151
:102A9000607F6061CF706C2B3C9800005C986BB9D4
:102AA0003C9A3C9800005C983C9A0E94A7018CE3F9
:102AB00090E00E94000781E090E0CF9108950F938D
:102AC0001F93CF93DF938C01D0E0C0E0F801EC0FAF
:102AD000FD1F6491662341F080ED96E00E943B1556
:102AE000892B11F02196F2CFCE01DF91CF911F916A
:102AF0000F9108958EE591E00C945F15089590E094
:102B000080E008950F931F93CF93DF934091E103EB
:102B1000C0910201C41BDD0BE1E1F4E030E020E0F4
:102B20000FEF10E0C901B8010E946D39640F619385
:102B30002C0F3D1F85E0E131F807A1F7DF91CF9120
:102B40001F910F9108950F931F93CF93C62F8A0162
:102B5000813009F042C080E80E94B5086C2F629570
:102B60006F70CF706A3031F461E380ED96E00E94BF
:102B70006C0760E0605D80ED96E00E946C076EE29D
:102B800080ED96E00E946C07CA3030F0CA5061E3D5
:102B900080ED96E00E946C0760E36C0F80ED96E09C
:102BA0000E946C0760E280ED96E00E946C07C8010D
:102BB0000E945F150E947A150E947A1580EC0E948F
:102BC000B508809101068230A8F06EE380ED96E0B2
:102BD000CF911F910F910C946C0780EC0E94B50867
:102BE000C8010E945F158FE690E0CF911F910F9171
:102BF0000C945F15CF911F910F91089580E80E946A
:102C0000B50888E690E00E945F1561E080ED96E0EF
:102C10000E946C070E947A150C947A158091C60167
:102C20008F5B80680E94B5088EE00C94B5088F9287
:102C30009F92AF92BF92CF92DF92EF92FF92F0906D
:102C4000C60580912105F81609F47EC08091010621
:102C500081110FC00E94C0088FEC0E94B50862E588
:102C6000F11001C060E280ED96E00E946C070E94C6
:102C70000E168090110590901205A0901305B0904B
:102C800014058091C605882309F494C00E9460074A
:102C900060931D0570931E0580931F05909320057A
:102CA0000E946007C0901905D0901A05E0901B059E
:102CB000F0901C059B01AC012C193D094E095F09E0
:102CC00069017A01C0921505D0921605E0921705A8
:102CD000F092180580911206823030F1D501C401BE
:102CE000880F991FAA1FBB1F8C159D05AE05BF0538
:102CF000D8F40E940E0660EB74E080E090E0A5013D
:102D000094010E949539CA01B901A2E0660F771FAC
:102D1000881F991FAA95D1F723E030E040E050E0EA
:102D20000E94953920937001A5E0B0E0A5019401BF
:102D30000E94FA39C616D706E806F90628F081E09F
:102D4000809312060E940E060E946007C09019052B
:102D5000D0901A05E0901B05F0901C059B01AC017A
:102D60002C193D094E095F0969017A01209111056D
:102D7000309112054091130550911405A6E0B0E082
:102D80000E94FA396C157D058E059F0530F48091FF
:102D90001206823010F00E940E068091C6058093C4
:102DA0002105FF90EF90DF90CF90BF90AF909F9064
:102DB0008F9008950E9460076093190570931A051B
:102DC00080931B0590931C050E946007C0901D0511
:102DD000D0901E05E0901F05F09020059B01AC01EE
:102DE0002C193D094E095F0969017A01D501C40119
:102DF000880F991FAA1FBB1FC816D906EA06FB0633
:102E000020F089288A288B28A1F4BC01CD016C0D03
:102E10007D1D8E1D9F1D23E030E040E050E00E94AC
:102E20009539209311053093120540931305509363
:102E30001405209111053091120540911305509110
:102E40001405A5E0B0E00E94FA396C157D058E05E9
:102E50009F0580F4C701B60123E030E040E050E078
:102E60000E94953920931105309312054093130564
:102E7000509314054091110550911205609113056E
:102E800070911405DB01CA01B695A79597958795B2
:102E90008C159D05AE05BF0508F056CF8091120632
:102EA00090E0880F991F440F551F661F771F21E080
:102EB0004C155D056E057F0508F020E0822B8093A0
:102EC000120642CF9091C601980F9093C60190913F
:102ED000C601911103C098E09093C6019091C6017C
:102EE000993018F091E09093C6019091C60194300A
:102EF00021F09091C601923029F49091C601890F7A
:102F00008093C6010C940E16CF93DF93C82F809147
:102F100070008D7F8093700084E190E00E94000734
:102F2000F894C0930606CC2309F46AC0809100018E
:102F3000909101019093E0038093DF0310920206C9
:102F40001092030610920406109205068091CC019F
:102F5000823009F44CC008F443C0833009F44DC0FA
:102F6000843009F447C07894CC2309F493C080914D
:102F7000E70580937C001092BC058091CB018823EB
:102F800061F08091CC01823041F481E0C11101C037
:102F900080E08093C6050E941716CC2309F4C5C0B3
:102FA0008091E20360E0882309F478C088E00E9401
:102FB0007E068FEC0E94B50860E580ED96E00E94E9
:102FC0006C076FEF83E00E94240383E38093B300D8
:102FD00080917000826080937000DF91CF9108959E
:102FE0008DED94E19093BB058093BA05BCCF8DE73E
:102FF00092E1F8CF8CE392E1F5CF83E292E1F2CF58
:103000008091CC01823091F5809102069091030667
:10301000A0910406B0910506892B8A2B8B2B31F5E4
:103020000E946007AB01BC018091F7059091F80503
:10303000A091F905B091FA0523E0880F991FAA1F06
:10304000BB1F2A95D1F7840F951FA61FB71F80932A
:10305000020690930306A0930406B09305068091A0
:10306000E303811114C084E79BE0BCCF8091DF03B0
:103070009091E00390930101809300011092020669
:10308000109203061092040610920506ECCF8FEF03
:1030900092E1A8CF81E08093EA056DCF88E00E949D
:1030A0007E068FEC0E94B50864E580ED96E00E94F4
:1030B0006C078091CC01823079F58091E105909187
:1030C000E205A091E305B091E40591958195910900
:1030D0000E948B020E946F026BEF83E00E94240328
:1030E00080E8809388008091DE03811109C080917F
:1030F000CC01823029F0809180008F77809380000E
:1031000080918000806280938000809118068823DF
:1031100009F45BCF3A9859CF8091ED059091EE0577
:10312000892BD1F290E080E0D3CF80918A00882370
:10313000A1F0CEE3D1E0FE018491E82FF0E0EF5E54
:10314000FB4F808180938A008CE390E00E9400070F
:103150002196F1E0CD35DF0771F78091800080681E
:1031600080938000809180008F7D8093800060E05C
:103170008AE00E947E0610928A006CEF83E00E9433
:1031800024038091020690910306A0910406B09159
:103190000506892B8A2B8B2B21F08091E30381116B
:1031A00009C08091E80561E0823009F460E088E0C0
:1031B0000E947E068091ED059091EE050E948B02A3
:1031C0000E946F028FEC0E94B5088091190662E59B
:1031D000811166E580ED96E00E946C0780911906EA
:1031E000811104C08091180681113A9A83E0EECED5
:1031F0008DE00E94550681110AC08091F20591E090
:10320000811192E08091FF05892B8093FF058CE06E
:103210000E94550681110AC08091F20592E0811149
:1032200091E08091FF05892B8093FF0508950F930E
:103230001F93CF93DF9390E080E00E94D608D0E008
:10324000C0E001E010E0C8010C2E02C0880F991FF9
:103250000A94E2F78095909581600E94D6086EE10D
:1032600070E080E090E00E942D0790E080E00E94F6
:10327000D6082196C031D10531F7DF91CF911F914A
:103280000F910895FB0101900020E9F73197AF01FC
:10329000461B570BDC01ED91FC910280F381E02D80
:1032A00009948F929F92AF92BF92EF92FF920F93E9
:1032B0001F93CF93DF93CDB7DEB7A1970FB6F894E6
:1032C000DEBF0FBECDBF7C01FA01CB0119A22230B7
:1032D00008F42AE08E010F5D1F4F822E912CB12C35
:1032E000A12CBF01A50194010E949539F901CA01E1
:1032F0006A300CF5605DD8016E938D01232B242B71
:10330000252B79F790E080E0109721F0BD01C701EF
:103310000E944219A1960FB6F894DEBF0FBECDBF32
:10332000DF91CF911F910F91FF90EF90BF90AF90E1
:103330009F908F900895695CDECFCF92DF92EF92DD
:10334000FF920F931F93CF93DF9377FF1DC06A0106
:103350007B01EC016DE20E946C078C01442755272C
:10336000BA014C195D096E097F092AE0CE010E945D
:103370005119800F911FDF91CF911F910F91FF90F5
:10338000EF90DF90CF9008952AE0DF91CF911F91C9
:103390000F91FF90EF90DF90CF900C945119AB01FB
:1033A000770F660B770B0C949D19EF92FF920F939A
:1033B0001F93CF937C018B01C42F80EC0E94B50832
:1033C00061E280ED96E00E946C0761E280ED96E09C
:1033D0000E946C07C7010E945F15CC2379F06DE352
:1033E00080ED96E00E946C07B80180ED96E00E94A7
:1033F000CF196C2F80ED96E00E946C070E947A1521
:103400006CED75E080E090E00E942D07A895CF91CB
:103410001F910F91FF90EF9008956115710511F0C4
:103420000C94421990E080E00895EF92FF920F9380
:103430001F93CF93DF93CDB7DEB7A0970FB6F89465
:10344000DEBF0FBECDBF6091B4017091B501809118
:10345000B6019091B70120E03AEC4AE95BE30E94A3
:103460009539122F032F20E432E44FE050E00E9400
:103470009539F22EE32E28EE33E040E050E00E9432
:1034800095397F936F933F932F93EF92FF920F9312
:103490001F9386E792E09F938F938E010F5F1F4FDC
:1034A0001F930F930E94DC3AB8018AE196E00E94D4
:1034B0000D1A69E872E0C8010E94C63AB8018AE1B3
:1034C00096E00E940D1A61E972E0C8010E94C63AB6
:1034D000B8018AE196E00E940D1A6091CC0170E07B
:1034E0006F5F7F4F8AE196E00E94CF1966E972E034
:1034F000C8010E94C63AB8018AE196E00E940D1AFE
:103500000FB6F894DEBF0FBECDBFA0960FB6F894ED
:10351000DEBF0FBECDBFDF91CF911F910F91FF9006
:10352000EF900895CF92DF92EF92FF920F931F9347
:10353000CF93DF93CDB7DEB7A0970FB6F894DEBF79
:103540000FBECDBF8AE196E00E94D107892B09F416
:1035500094C00E946007665F7F4F8F4F9F4F6093BC
:1035600014067093150680931606909317068AE149
:1035700096E00E94AF07E091B80591E09E0F90930E
:10358000B805F0E0E856FA4F80838B3309F0BFC1ED
:10359000E091B805F0E0E856FA4F10821092B805B5
:1035A00080911806811105C081E080931806109261
:1035B000CA0180919805863409F08BC080919905E5
:1035C000813409F064C180919A058B3309F064C09D
:1035D00080911806882309F44AC06091B401709163
:1035E000B5018091B6019091B70120E03AEC4AE92B
:1035F0005BE30E949539122F032F20E432E44FE061
:1036000050E00E9495396B017C013F932F930F93FB
:103610001F938FE992E09F938F938E010F5F1F4F4F
:103620001F930F930E94DC3AB8018AE196E00E9452
:103630000D1AC701B60128EE33E040E050E00E94C9
:1036400095397F936F933F932F938AEA92E09F93EC
:103650008F931F930F930E94DC3AB8018AE196E0A2
:103660000E940D1A0FB6F894DEBF0FBECDBF6AE000
:1036700070E080E090E00E942D07A0960FB6F894CD
:10368000DEBF0FBECDBFDF91CF911F910F91FF9095
:10369000EF90DF90CF9008958091A5058B3399F539
:1036A0004BE050E06AE975E0CE0101960E94CD3A08
:1036B0001C86CE0101960E94E9336093B401709399
:1036C000B5018093B6019093B70181E08093C50165
:1036D000CECF8934D9F480919905863461F48091F4
:1036E0009A058B3381F480911806882309F4BFCFA3
:1036F0000E94151ABCCF843431F480919A0564EB92
:1037000072E08B33F9F060EF72E01CC0803569F431
:10371000809199058335B9F780919A056BEB72E03A
:103720008B3381F0813379F7A2CF813499F4809182
:103730009905893409F079C080919A058B3339F461
:1037400060EC72E08AE196E00E940D1A90CF80331F
:10375000D1F6F6CF8D34C1F580919905843499F670
:1037600080919A058B33A9F465EC72E08AE196E0CA
:103770000E940D1A6091CC0170E06F5F7F4F8AE16B
:1037800096E00E94CF196BE38AE196E00E946C07F5
:103790006ECF90919B059B3309F0B5CF81538093F9
:1037A000CC018091CC019091EB05092F017010E0C4
:1037B000F801E054FE4F808381E08093C5011092B0
:1037C000CF061092CE0653CF8235C1F48091990571
:1037D000883509F044C080919A058B3309F093CF66
:1037E00080E00E9484171092020610920306109245
:1037F00004061092050668EC72E0A4CF843501F54A
:1038000080919905883509F07ECF80919A058B3398
:1038100021F481E00E9484172ACF8033D1F38133D1
:10382000C1F3823309F06FCFF4CF873409F06BCF47
:1038300080919A056DEC72E0803309F064CF82CFFD
:103840008835D9F580919905843509F05CCF809150
:103850009A0562ED72E0813309F055CF73CF84355C
:1038600041F480919A0567ED72E0813309F04BCF06
:1038700069CF8334B9F480919A058B3309F043CF33
:103880001092EE051092ED056CED72E05BCF8C347A
:1038900009F039CF80919A0560EE72E0803309F02B
:1038A00032CF50CF833509F02ECF80919A0565EE47
:1038B00072E08B3309F027CF45CF863509F023CF4F
:1038C00080919905883509F01ECF80919A058B3338
:1038D00009F419CF282F082E000C330B3F938F9338
:1038E0008AEE92E09F938F938E010F5F1F4F1F937D
:1038F0000F930E94DC3AB8018AE196E00E940D1A0B
:103900000F900F900F900F900F900F90B0CE80916E
:10391000B805803208F4B1CE63EF72E08AE196E038
:103920000E940D1A1092B805A8CE0E94DD078111E1
:103930000C94921A0895CF93DF93282FCB016091B6
:10394000E4037091E503C42FD0E0233079F02430F4
:1039500089F04091E4035091E503C40FD51FD09343
:10396000E503C093E403DF91CF910895AE010E9477
:10397000AC36EFCFAE010E94C436EBCF4F925F92D0
:103980006F927F928F929F92AF92BF92CF92DF926F
:10399000EF92FF920F931F93CF93DF93CDB7DEB7D4
:1039A000FB01823008F067C0908140901306042C20
:1039B000000C550866087708490E511C611C711CE3
:1039C0004C145D046E047F047CF5C0826901F42E02
:1039D0005F01E82E109213060E94C008A6016F2D09
:1039E0008E2D0E94A315F50101151105B1F5408139
:1039F00050E070E060E02AE080ED96E00E9451190E
:103A00000E947A15DF91CF911F910F91FF90EF9057
:103A1000DF90CF90BF90AF909F908F907F906F90EE
:103A20005F904F900C947A159081C09013060C2CE7
:103A3000000CDD08EE08FF08C90ED11CE11CF11CCA
:103A40008C149D04AE04BF0414F48082BFCF508157
:103A500090911306950F9083B9CF808190E0880FE5
:103A6000991F080F191FF8016081718180ED96E0A0
:103A70000E940D1AC5CF41E0DF91CF911F910F91A8
:103A8000FF90EF90DF90CF90BF90AF909F908F907E
:103A90007F906F905F904F900C949B1C0F931F939F
:103AA000CF93DF93EB01823008F058C00881198171
:103AB0002A813B8190911306492F990F550B660B74
:103AC000770B400F511F621F731F77FF1FC01882B3
:103AD00019821A821B82182F109213060E94C008A6
:103AE00050E040E060E0812F0E94A3154881598199
:103AF0006A817B8180ED96E00E949D190E947A1573
:103B0000DF91CF911F910F910C947A150881198143
:103B10002A813B8190911306492F990F550B660B13
:103B2000770B400F511F621F731F141615061606E0
:103B300017066CF2088119812A813B819091130646
:103B4000492F990F550B660B770B400F511F621FC2
:103B5000731F488359836A837B83BDCF44E0DF9121
:103B6000CF911F910F910C949B1C6F927F928F921B
:103B70009F92AF92BF92CF92DF92EF92FF920F93FC
:103B80001F93CF93DF9300D000D000D0CDB7DEB726
:103B9000782E662EEDEFBE2EB80E00E511E0EE2475
:103BA000E394F12CACE2CA2ED12C21E02B1570F05D
:103BB0001093E5030093E403AA24A394A61430F41D
:103BC0006A2D85E00E94B51DA394F8CF8FEF68128F
:103BD0001BC011E0612F872D0E94B51D1F5F12339E
:103BE000C9F7812C912C5401C12CD12C760110E005
:103BF00000E030E020E040E063EC75E0872D0E94BB
:103C0000BE1C82E3682EAFC092E3961508F461C330
:103C1000E62DF0E0E25FF14E0C94D6396121411EB1
:103C2000A11EC91ED91EE91EF91E081F6F1F7E1F87
:103C30008E1F9E1FAE1F6921BE1F69216921CD1FE6
:103C4000DC1F36204620552064207320692169211D
:103C50006921692169216921692169216921692114
:103C6000692182209720A8201D21692169216921CD
:103C70006921692169212D213C21422145215321BE
:103C8000F11D21E0271508F455C08091B201409143
:103C90001306082E000C990BAA0BBB0B042E000C6C
:103CA000550B660B770B840F951FA61FB71F8F3F11
:103CB0009F4FAF4FBF4F04F58FEF8093B20110922B
:103CC00013060E94C00847E351E061E1872D0E947E
:103CD000A3158091B20187FD05C06BE280ED96E0EF
:103CE0000E946C076091B201062E000C770B80EDEC
:103CF00096E00E94CF19C1C08091B2014091130695
:103D0000082E000C990BAA0BBB0B042E000C550BB4
:103D1000660B770B840F951FA61FB71F4197A10550
:103D2000B10514F080E1C9CF8091B20190911306E2
:103D3000890FC3CF41E062EB71E0872D0E949B1C8D
:103D400012C074E0872E912CA12CB12CC12CD12C47
:103D5000760102E711E022E331E042E16CEC71E030
:103D6000872D0E94BE1C862D26960FB6F894DEBFC6
:103D70000FBECDBFDF91CF911F910F91FF90EF90BC
:103D8000DF90CF90BF90AF909F908F907F906F907B
:103D9000089567E0862E912CA12CB12CC12CD12C3A
:103DA000760105E511E028E231E043E16CEE75E0D3
:103DB000D7CF5AE0852E912CA12CB12CC12CD12C1F
:103DC00076010FE311E023E231E044E163EB71E0BF
:103DD000C7CF49E0842E912CA12CB12CC12CD12C21
:103DE00076010BE211E029E131E045E166EC71E09A
:103DF000B7CF812C912C54018394C12CD12C760106
:103E000007E211E020E131E046E16BEE75E0A8CF7A
:103E100081E0871508F45FC08091ED059091EE0573
:103E200040911306092E000CAA0BBB0B042E000CAC
:103E3000550B660B770B840F951FA61FB71FB7FF97
:103E400021C01092EE051092ED05109213060E940B
:103E5000C0084CE051E067E1872D0E94A315E09176
:103E6000ED05F091EE05EE0FFF1FED5DFE4F608159
:103E7000718180ED96E00E940D1A0E947A150E94D1
:103E80007A1571CF8091ED059091EE054091130662
:103E9000092E000CAA0BBB0B042E000C550B660B55
:103EA000770B840F951FA61FB71F0297A105B105B9
:103EB0003CF081E090E09093EE058093ED05C5CF56
:103EC0008091ED059091EE0520911306820F911DD2
:103ED00027FD9A95F0CF42E06DEE75E02ECF812C54
:103EE000912C54018394C12CD12C760103E211E072
:103EF00028E031E048E169E671E032CF88E0882EC1
:103F0000912CA12CB12CC12CD12C760110E000E019
:103F100025E031E049E164EC71E022CF07E0802E3A
:103F2000912CA12CB12CC12CD12C760103E111E0F4
:103F300021E031E04AE168EE75E012CF10E1812E18
:103F4000912CA12CB12CC12CD12C760110E000E0D9
:103F50002CEF30E04BE161E771E002CFB4E08B2E53
:103F6000912CA12CB12CC12CD12C760109E011E0AF
:103F700024EF30E04CE16AEC71E0F2CE812C912C20
:103F800054018394C12CD12C760103E211E029EE77
:103F900030E041E26BEC71E0E3CE812C912C5401D6
:103FA0008394C12CD12C760103E211E020EE30E0A5
:103FB00044E263EE73E0D4CE91E0971508F452C06A
:103FC0008091AF019091B00140911306092E000C31
:103FD000AA0BBB0B042E000C550B660B770B840F42
:103FE000951FA61FB71F181619061A061B06ACF058
:103FF00081E090E09093B0018093AF01109213069E
:104000000E94C00844ED50E065E2872D0E94A31590
:104010006091AF017091B0016ACE8091AF01909133
:10402000B00140911306092E000CAA0BBB0B042E05
:10403000000C550B660B770B840F951FA61FB71F3F
:10404000CD97A105B1051CF08CE390E0D3CF809112
:10405000AF019091B00120911306820F911D27FDB1
:104060009A95C8CF42E06FEA71E067CEE2E08E2E0B
:10407000912CA12CB12CC12CD12C760103E011E0A4
:1040800029EC30E046E269EC71E06ACE812C912C9B
:1040900054018394C12CD12C760103E211E02EEB64
:1040A00030E047E262EF75E05BCE812C912C540149
:1040B0008394C12CD12C760103E211E025EB30E092
:1040C00048E262EE73E04CCE812C912C5401839433
:1040D000C12CD12C760103E211E021EB30E041E369
:1040E00069E176E03DCE812C912C54018A94C12C5B
:1040F000D12C760110E000E026EA30E042E36BE6E6
:1041000071E02ECE80900201882D8150990B4C01D8
:10411000092C000CAA08BB08C12CD12C760110E098
:1041200000E02AE930E041E861EE73E019CEC0908A
:10413000E103D12CF12CE12C812C912C54018A9497
:1041400010E000E02EE830E042E862E071E008CEE6
:1041500091E0971508F46DC08091CA069091CB0646
:10416000A091CC06B091CD0640911306042E000C10
:10417000550B660B770B840F951FA61FB71F803852
:104180009F49A54DB10524F580E89FE9A5EDB0E074
:104190008093CA069093CB06A093CC06B093CD062D
:1041A000109213060E94C00845E850E063E8872D8E
:1041B0000E94A3154091CA065091CB066091CC068F
:1041C0007091CD062AE080ED96E00E94511955CEFF
:1041D0008091CA069091CB06A091CC06B091CD06F5
:1041E00040911306042E000C550B660B770B840FC1
:1041F000951FA61FB71F81309F43AB4AB1402CF0DB
:1042000080E09FE3ABEAB1E0C3CF8091CA06909112
:10421000CB06A091CC06B091CD0640911306042E9A
:10422000000C550B660B770B840F951FA61FB71F4D
:10423000AFCF44E06AEC76E080CD24EB822E912C67
:10424000A12CB12CC12CD12C760110E000E02CE780
:1042500030E044E86DEA71E083CD812C912C54016B
:104260008394C12CD12C760103E211E022E730E0E7
:1042700041EA6EED71E074CD68EB71E0872D0E942C
:104280004E1D71CD6CEB71E0F9CF812C912C540156
:10429000C12CD12C760110E000E030E020E040E0BD
:1042A00060EC71E05DCD812C912C5401C12CD12C9E
:1042B000760110E000E030E020E040E061EC71E0E9
:1042C0004FCD109201060E94FE1581E08093C5013A
:1042D0004ACD82E0781247CD9CE2691609F443CDBD
:1042E000809113061816B4F08FEF9FEF860D911D85
:1042F0009E838D83DC82CB82FE018C9774F0339693
:10430000FA82E98280819181029714F4FE0131964C
:1043100060804BCC81E090E0E9CF3596F1CF0C94F2
:10432000BC361F920F920FB60F9211242F933F931A
:104330008F939F93AF93BF938091090690910A0644
:10434000A0910B06B0910C063091080623E0230FD4
:104350002D3768F126E8230F0296A11DB11D209389
:1043600008068093090690930A06A0930B06B09363
:104370000C0680910D0690910E06A0910F06B0914B
:1043800010060196A11DB11D80930D0690930E0697
:10439000A0930F06B0931006BF91AF919F918F919C
:1043A0003F912F910F900FBE0F901F90189501967F
:1043B000A11DB11DD4CF1F920F920FB60F921124E1
:1043C0002F933F934F935F936F937F938F939F931D
:1043D000AF93BF93EF93FF938AE196E00E94E707C4
:1043E000FF91EF91BF91AF919F918F917F916F91CD
:1043F0005F914F913F912F910F900FBE0F901F90A3
:1044000018951F920F920FB60F9211242F938F932E
:104410009F93EF93FF93E0912A06F0912B06808102
:10442000E0913006F091310682FD1BC090818091B1
:1044300033068F5F8F7320913406821741F0E0912D
:104440003306F0E0E65EF94F958F80933306FF91D7
:10445000EF919F918F912F910F900FBE0F901F9012
:1044600018958081F4CF1F920F920FB60F921124EE
:104470002F933F934F935F936F937F938F939F936C
:10448000AF93BF93EF93FF93E091BA05F091BB0513
:104490000995FF91EF91BF91AF919F918F917F917E
:1044A0006F915F914F913F912F910F900FBE0F90A1
:1044B0001F9018951F920F920FB60F9211240F9311
:1044C0001F932F933F934F935F936F937F938F939C
:1044D0009F93AF93BF93CF93EF93FF930091B90551
:1044E00080E1089F8001112487E00E945506C82FB3
:1044F00086E00E945506CC0F802B8C2B8093B9054B
:104500008332B1F08233D1F0FF91EF91CF91BF911F
:10451000AF919F918F917F916F915F914F913F915B
:104520002F911F910F910F900FBE0F901F90189514
:10453000809113068F5F80931306E6CF8091130658
:104540008150F9CFEAE1F6E01382128288EE93E01F
:10455000A0E0B0E084839583A683B7838CE592E0E6
:104560009183808385EC90E09587848784EC90E04C
:104570009787868780EC90E0918B808B81EC90E030
:10458000938B828B82EC90E0958B848B86EC90E011
:10459000978B868B118E128E138E148E88B18F7C22
:1045A00088B93D9800000000000000003C983C9A4B
:1045B00080EC9CEFABE9B1E08093CA069093CB0608
:1045C000A093CC06B093CD06E0EDF6E01382128204
:1045D0008EE692E0918380830895CF93DF93CDB7E9
:1045E000DEB76E970FB6F894DEBF0FBECDBF7894DE
:1045F00084B5836084BD85B5836085BD80916E0080
:10460000816080936E0082E08093810080918100C0
:104610008160809381008091800081608093800020
:104620008091B10084608093B1008091B00081607E
:104630008093B00087E880937A001092C10060E018
:104640008AE00E947E060E94EC0514BE88E198E292
:104650000FB6F894A895809360000FBE9093600009
:1046600080E480937C001092680010926B0010929E
:104670006C0010926D0062E086E00E94AC0662E081
:1046800087E00E94AC0680916D00806C80936D0085
:104690008091680084608093680087E00E945506DE
:1046A000F82E86E00E945506FF0CF82AF092B90514
:1046B000789460E08BE00E947E0661E088E00E94D2
:1046C0007E0660E08AE00E947E0660E089E00E944B
:1046D0007E0661E089E00E94AC0661E08BE00E940A
:1046E000AC0661E088E00E94AC0661E08AE00E94CE
:1046F000AC0660E081E10E94AC0662E08DE00E94C1
:10470000AC0660E08CE00E94AC0660E08EE00E94A7
:104710007E0660E08FE00E947E0660E08EE00E94F0
:10472000AC0660E08FE00E94AC0664E670E080E0DA
:1047300090E00E942D078AB18F618AB93C9A80E58A
:1047400093EC0E9400073C9A5C9883E30E94B508B2
:1047500084E991E10E94000783E30E94B50884E99F
:1047600091E10E94000783E30E94B50886E990E08A
:104770000E94000782E30E94B50888E20E94B50803
:104780008CE00E94B50881E00E94B50863E070E00B
:1047900080E090E00E942D0786E00E94B50810920C
:1047A000C5051092C4055E0129E0A20EB11C8091DE
:1047B000C4059091C5050897A9F16091C405709151
:1047C000C505E3E0660F771FEA95E1F767547E4F72
:1047D00048E050E0CE0101960E9410348091C4055B
:1047E0009091C5058F5F38E0839FC00111248873C5
:1047F00080640E94B508CE0101967C01D7016D91BD
:104800007D0180ED96E00E943B15EA14FB04B1F7B0
:104810008091C4059091C50501969093C50580933C
:10482000C405C5CF0E94FE1587E80E94B50886EB37
:1048300091E00E945F1580EB91E00E945F150E945D
:104840007A156FEF83E00E94240360E08AE00E9403
:104850007E0660E088E00E947E0664E670E080E00C
:1048600090E00E942D078FE00E94E806BC01990F9E
:10487000880B990B0E942F389B01AC010E941437C2
:1048800020E030E040EA50E40E94E43820E030E0EC
:1048900040E85AE30E94E4384B015C0161E088E0A3
:1048A0000E947E062AE939E949E950E4C501B401CC
:1048B0000E94DF38181654F426E636E646EA50E43D
:1048C000C501B4010E94803787FD09C0C501B4014C
:1048D0000E94F73746E58BEA91E00E94D51983E103
:1048E0000E94E806BC01990F880B990B0E942F3893
:1048F00020E030E040EA50E40E94E43820E030E07C
:1049000040E85AE30E94E4384B015C012DEC3CEC9A
:104910004CE450E40E94DF38181654F423E333E3E8
:1049200043E750E4C501B4010E94803787FD09C008
:10493000C501B4010E94F73746E586EA91E00E947E
:10494000D51986E00E94E80680917C0088608093FB
:104950007C0061E070E080E090E00E942D07809193
:104960007A00806480937A0080917A0086FDFCCF83
:10497000609178007091790090E080E00E942D387D
:104980009B01AC016AE979EA8CE894E40E948537DE
:104990004B015C0123E333E343E950E40E94DF3839
:1049A000181654F426E636E646EA50E4C501B4018A
:1049B0000E94803787FD09C0C501B4010E94F73706
:1049C00046E580EA91E00E94D5193A986AE070E0E5
:1049D00080E090E00E942D0780E10E94E806BC0183
:1049E000990F880B990B0E942F3820E030E040EAA5
:1049F00050E40E94E43820E030E040E85AE30E94AE
:104A0000E4384B015C0126E636E646EE5FE30E94A1
:104A1000DF38181654F42DEC3CEC4CE450E4C5019E
:104A2000B4010E94803787FD09C0C501B4010E940E
:104A3000F73746E58AE991E00E94D5198EE00E9499
:104A4000E806BC01990F880B990B0E942F3820E0D3
:104A500030E040EA50E40E94E43820E030E040E8F2
:104A60005AE30E94E4384B015C0126E636E646EE46
:104A70005FE30E94DF38181654F42DEC3CEC4CE454
:104A800050E4C501B4010E94803787FD09C0C5010B
:104A9000B4010E94F73746E584E991E00E94D519F8
:104AA0008FE00E94E806BC01990F880B990B0E94C9
:104AB0002F3820E030E040EA50E40E94E43820E063
:104AC00030E040E85AE30E94E4384B015C0126E6FE
:104AD00036E646EE5FE30E94DF38181654F42DECFC
:104AE0003CEC4CE450E4C501B4010E94803787FDE2
:104AF00009C0C501B4010E94F73746E58EE891E090
:104B00000E94D519A8950E9408071092C505109219
:104B1000C4058091C4059091C505883E934061F01D
:104B20000E946F028091C4059091C50501969093F3
:104B3000C5058093C405EDCF0E9408076091B401BC
:104B40007091B5018091B6019091B7012AE530E0EE
:104B500050E040E00E942204A8951092C5051092F2
:104B6000C405B12CA12C8091C4059091C505883E47
:104B7000934009F468C08091C4059091C5050E94D6
:104B80008B020E946F0274E0E72EF12C0E946802F3
:104B900080EC0E94E0018AE18E0D0E94E0010E94FB
:104BA000BD010E94680281EC0E94E00180E80E9441
:104BB000C901982E80E40E94C901982A80E20E94CF
:104BC000C901982A80E10E94C901982A88E00E94C0
:104BD000C901982A84E00E94C901982A82E00E94B3
:104BE000C901982A81E00E94C901982A3C980000D6
:104BF0000000000000003D980000000000000000E0
:104C00003C983D9A00000000000000000E94BD0199
:104C1000F701E954F94F8385891519F0FFEFAF1AB1
:104C2000BF0A2FEFE21AF20A38E0E316F10409F0A6
:104C3000ADCF8091C4059091C50501969093C505AF
:104C40008093C40590CFA895A114B10431F040E23F
:104C5000B50186E891E00E94D51984E080936A014D
:104C6000E091B10164E0E69FF0011124E45BFD4FA7
:104C700080819181A281B3818093E1059093E205C7
:104C8000A093E305B093E40562E383E00E94B51DC1
:104C90008091C305883709F429C188E78093C3054B
:104CA0006FEF84E00E94B51D80EC0E94B50885E797
:104CB00091E00E945F1564EF71E080E090E00E9457
:104CC0002D07A8951092CF061092CE06FF24F394DC
:104CD000F092C5018091B3018093AE011092190644
:104CE00082E08093C4018093CA011092EE05109275
:104CF000ED058091EB05082F017010E0000F111FEA
:104D0000000F111FF801E854FE4F80819181A281AC
:104D1000B3818093B4019093B501A093B601B09391
:104D2000B7018091EB0580FBCC24C0F8D12CF601B3
:104D3000E054FE4F80818093CC010E9482150E9436
:104D4000FE15F092EA051092BC0584E79BE0909373
:104D5000BB058093BA0524E63EED45E050E061E0F6
:104D600082E00E94F40880917C008093E7058091A6
:104D7000E80561E0813009F460E029E937E741E0C6
:104D800050E080E00E94F40880917C008093E5056B
:104D90008091E80561E0813009F460E029E937E7B6
:104DA00041E050E081E00E94F40880917C00809313
:104DB000E605109280001092810080918000826A46
:104DC000809380008091810089618093810010929E
:104DD00087008CEC809386001092890010928800E6
:104DE00010928B0010928A008091B6008F7D809384
:104DF000B6001092B0001092B1001092B2008091F3
:104E0000B00082608093B0008091B1008460809394
:104E1000B1008091700082608093700083E0809385
:104E2000B300809180008F7D8093800060E08AE0F5
:104E30000E947E06E0912A06F0912B0682E0808394
:104E4000E0912606F09127061082E0912806F09165
:104E5000290680E4808310923206E0912E06F091BC
:104E60002F0686E08083E0912C06F0912D0680814C
:104E700088698083E0912C06F0912D0680818F7DDA
:104E800080838091180681110E94151A10920006E5
:104E900080E18093FF05B090B001A090AF011B2D81
:104EA000110F110BC12ED12EE12EF12E012F20EB6F
:104EB00034E040E050E060E070E080E090E00E948C
:104EC000403A2093F7053093F8054093F905509345
:104ED000FA058DE00E945506811146C040E070E061
:104EE00060E087E691E00E94D519F3CF81E10E944E
:104EF00055068111D2CE6FEF83E00E94B51D83E885
:104F000091E00E948F218093C2058091C20582307A
:104F100010F01092C20584E891E00E948F218093E6
:104F2000C10585E891E00E948F218093C00586E845
:104F300091E00E948F218093BF0587E891E00E9455
:104F40008F218093BE058091C205882309F4BACED3
:104F500081E08093CC018093EC051092690110925E
:104F6000C4018093BD05AECE8091CC01823051F456
:104F70008091C901823031F08CE00E94550688236F
:104F800009F4ACCF5AE0452E512C612C712C809144
:104F90001906882309F448C08091CC01882329F0A0
:104FA0008091CC01813009F03FC0809107068111CA
:104FB000F9C0F89482E880937A0080916B01803286
:104FC00020F060E088E00E947E0690917C00809155
:104FD0007A0084FFFCCF8091E70580937C0080916C
:104FE0007A00806480937A0080917A0084FFFCCFFD
:104FF00090937C0080916B01803220F061E088E02A
:105000000E947E0680917800909179007894925069
:105010000E94001380910606882331F081E080937E
:1050200007068FEF0E9484178091CC01823009F02F
:105030007CC08091CB01882309F477C0809106065B
:10504000811173C08091020690910306A09104061D
:10505000B0910506892B8A2B8B2B09F066C08090B6
:10506000CD059090CE05A090CF05B090D005C09012
:105070006C01D0906D01E0906E01F0906F01C50160
:10508000B4016C197D098E099F0920E031E040E0F0
:1050900050E00E94B739C20ED31EE41EF51EC09226
:1050A0006C01D0926D01E0926E01F0926F01C70128
:1050B000B60122E030E040E050E00E94B73911E054
:1050C000281539054A055B050CF010E01093CC0556
:1050D0008091CB05181751F00E9460076093C705B7
:1050E0007093C8058093C9059093CA050E94600714
:1050F0008090C7059090C805A090C905B090CA05DA
:10510000681979098A099B09613171058105910541
:1051100008F457C08091C60518131093C6050E9465
:1051200017168091CC058093CB05809101068111E3
:1051300029C080911106882309F458C087E0EFED5B
:10514000F1E0DE01119601900D928A95E1F7E09170
:10515000CA0181E090E08C0F9D1F8E0F911DFC0114
:1051600010810E94C0081092110680E80E94B508C4
:10517000612F70E063537E4F80ED96E00E940D1A20
:105180000E940E161091CC01123029F48091C901B1
:10519000823009F08AC18091CC01823009F4E2C2E8
:1051A0001DE0E6C28091060681113ECF0E94841761
:1051B0001092070660E270E080E090E00E942D0708
:1051C00033CFC701B60124E630E040E050E00E9452
:1051D000B739C20ED31EE41EF51EC0926C01D092E8
:1051E0006D01E0926E01F0926F0199CF80910206FD
:1051F00090910306A0910406B0910506892B8A2B95
:105200008B2B09F0BFCF809107068111BBCF809116
:10521000D9059091DA05A091DB05B091DC052091CC
:10522000D5053091D6054091D7055091D805821704
:105230009307A407B50740F02091D9053091DA050E
:105240004091DB055091DC052093D5053093D605C0
:105250004093D7055093D8058091CA01882309F45B
:1052600091CF8091D3059091D40501969093D40568
:105270008093D3059770892B09F084CF21153105D0
:105280004105510509F4F6C0C12CD12C76012A3014
:1052900031054105510560F0CA01B901A301920130
:1052A0000E9495399FEFC91AD90AE90AF90AEFCF86
:1052B000109171012150310941095109220F331F09
:1052C0002A513E4FD901ED91FC91A8EEB3E0A70120
:1052D00096010E94FA396E0F7F1F811D911D22E3F6
:1052E00030E040E050E00E94B739B6E01B9FC001BB
:1052F0001124092E000CAA0BBB0B820F931FA41FB5
:10530000B51F9C01AD01295B310941095109309359
:10531000D2052093D1050E94C0088091CA01813036
:1053200079F489E80E94B5086091D1057091D205A1
:1053300080ED96E00E94CF1989EF91E00E945F1501
:105340008091CA01823019F58091D1059091D205E2
:10535000813CEFEF9E070CF094C081589F4F66E0B0
:1053600070E00E948139162F8EE80E94B5081A302D
:1053700028F463E580ED96E00E946C07412F50E031
:1053800070E060E02AE080ED96E00E945119809183
:10539000CA018330E9F58091D1059091D205813C15
:1053A000FFEF9F070CF076C081589F4F66E070E0DA
:1053B0000E948139FE01319674EF760F8F0125E04E
:1053C00030E042E050E0862F062E000C990B01964B
:1053D0009E878D873C872B87DE0105970CF063C085
:1053E0001D965A8749878D919C911197039714F4C4
:1053F000DE0119968C91819363507613E4CF1D8260
:105400008CE80E94B508B80180ED96E00E940D1A64
:105410008091CA018430B9F48EE80E94B508809169
:10542000CC01823051F44091700150E070E060E0B6
:105430002AE080ED96E00E94511968EF72E080ED5D
:1054400096E00E940D1A0E940E168091D50590914B
:10545000D605A091D705B091D805B695A795979593
:1054600087958093D5059093D605A093D705B093E3
:10547000D80588CE81E89FEF9093D2058093D1051F
:105480004ACF875B1AE0612F0E946139819F102DFE
:1054900011246ACF875B2AE0622F0E946139829FC4
:1054A000602D112487CF1B969CCF809100068230FF
:1054B00009F4E4C008F088C0882309F4A9C0813049
:1054C00009F4C3C0C0900206D0900306E090040621
:1054D000F0900506C114D104E104F10451F00E94DA
:1054E0006007C616D706E806F90618F480E00E94A1
:1054F000841781E10E945506813009F477C48091B8
:10550000F10582FD05C08091F105857009F462C145
:105510008091F105807F90911306992309F4D9C1F8
:105520009CE0892B8093F1058091F105823209F48A
:1055300063C308F0F6C1863108F0CDC1843108F0AC
:1055400099C2813109F49CC280910106811107C082
:105550009091E90580910106981709F486C510918C
:10556000130680910106813009F046C4112309F425
:1055700045C4909113068091F005890F8093F00542
:105580008091F0058D320CF034C48091F005082E26
:10559000000C990B1816190614F081E090E0809326
:1055A000F0056091F00582E00E94B51D8093F00542
:1055B000109213068091010660E081116091F00560
:1055C00081E00E94B51D20C4843009F492C008F423
:1055D0006EC0853009F076CF0E94F8180E946007EF
:1055E000C090F305D090F405E090F505F090F60535
:1055F000C616D706E806F90608F064CF8091FF05C5
:1056000082FFAAC08A7F8093FF05109300065ACFBD
:105610008CE00E94550681110EC01092FB0510927D
:10562000FC051092FD051092FE050E94F81881E01D
:105630008093000647CF8DE00E945506882369F3CA
:105640008091FF05837049F73DCF8091FF0580FF72
:10565000DCCF84608093FF058091F7059091F80579
:10566000A091F905B091FA058093F3059093F405A4
:10567000A093F505B093F60583E0DACF8091FF059E
:1056800081FF6DC02091F7053091F8054091F90533
:105690005091FA05A3E0B0E00E94FA396093F30557
:1056A0007093F4058093F5059093F605E5CF81E0BE
:1056B0000E9484170E9460070091F3051091F40581
:1056C0002091F5053091F605DC01CB01800F911F8B
:1056D000A21FB31F8093F3059093F405A093F505E3
:1056E000B093F6058091FF058C7F8093FF0584E0E1
:1056F0009FCF0E9460070091F3051091F40520915F
:10570000F5053091F6050617170728073907E8F45D
:1057100080E00E9484170E9460070091F7051091B5
:10572000F8052091F9053091FA05DC01CB01800FD5
:10573000911FA21FB31F8093F3059093F405A093CC
:10574000F505B093F60585E073CF8091FF0584FFE2
:10575000B9CE0E94F818B6CE8D7F8093FF051092C7
:105760000006B0CE8091F2051CE0882309F418CD24
:10577000809107068111A6CE812F0E9455068111C6
:10578000A1CE1092FB051092FC051092FD0510921F
:10579000FE0581E00E948417A8958091CC0182309B
:1057A000A1F46AE070E080E090E00E942D0781E1C2
:1057B0000E945506813029F4812F0E9455068823C6
:1057C00059F380E00E9484177DCE64E670E080E0AB
:1057D00090E0EBCFF89480917A0084FFFCCFE090CA
:1057E0007A00F0907C0080917A00877F80937A0025
:1057F00080917A00876080937A0080E480937C00B7
:1058000061E070E080E090E00E942D0781E10E945D
:10581000E8068C01E0927A00F0927C00789481E0B6
:105820008093F1050E9460076B017C0181E10E9479
:105830005506813071F00E9460076C197D098E0950
:105840009F096D3271408105910578F184E0809364
:10585000F1056AE070E080E090E00E942D07809101
:10586000F105843099F00E9460076C197D098E095A
:105870009F09643F71408105910540F481E10E94D8
:1058800055068130A1F082E08093F10581E10E940C
:105890005506813089F080911306882321F080918C
:1058A000F105843031F0A895F1CFA895BFCFA89528
:1058B000D6CF8CE08093F10590E10C3563E01607BC
:1058C00028F090E2073D134008F090E38091F10545
:1058D00028CE95E026CE8C3109F4D0C0813209F073
:1058E00033CE80910106811171C11091CC0180915C
:1058F000ED059091EE05892B09F4FEC01092EE059E
:105900001092ED052091CC0181E090E0223011F061
:1059100090E080E089539E4FDC018C918093C6011A
:1059200051C1823309F450C270F4843209F4C1C108
:10593000813309F009CE80910106811128C281E0EE
:105940000E94621701CE843309F449C28C3309F0F6
:10595000FBCD81E10E945506882309F433C1A89547
:10596000809113068823A9F361E080E00E94B51DB1
:105970008091B20187FF35C28AE08093B20161E075
:1059800084E00E94B51D80EC0E94B5088EEF91E086
:105990000E945F150E947A1587EF84BF0FB6F894B6
:1059A000A8958091600088618093600010926000EB
:1059B0000FBE809170008D7F8093700061E070E079
:1059C00080E090E00E942D071092880010928A00DB
:1059D00080917A00877F80937A0080917A00876037
:1059E00080937A0080E480937C000E94EC056CED4B
:1059F00075E080E090E00E942D0710926800109200
:105A00006B0010926C0010926D0010926E0010925C
:105A10006F00109270001092600080916C0088609E
:105A200080936C00809168008260809368008FEFA3
:105A30008093640088E00E94B5085B9883B7817FFB
:105A4000846083BF83B7816083BF789485B78066A5
:105A500085BF8F7D85BF889583B78E7F83BF88E1A3
:105A600098E00FB6F894A895809360000FBE9093CD
:105A70006000FFCF82E08093010666CD81E0FBCF1E
:105A800080910106813041F48091F0058D3124F040
:105A90008091F0058332A4F080910106882311F1F2
:105AA00080910106813031F181E0909101069230C0
:105AB00010F36091F00584E00E94B51D80E0DBCF1B
:105AC0000E9460076093FB057093FC058093FD05C1
:105AD0009093FE058091F0058D518093EF05109213
